{
  "_format": "hh-sol-artifact-1",
  "contractName": "ElectionVerification",
  "sourceName": "contracts/ElectionVerification.sol",
  "abi": [
    {
      "inputs": [
        {
          "internalType": "address",
          "name": "_votingAddress",
          "type": "address"
        },
        {
          "internalType": "address",
          "name": "_resultsAddress",
          "type": "address"
        },
        {
          "internalType": "address",
          "name": "_voterAddress",
          "type": "address"
        },
        {
          "internalType": "address",
          "name": "_candidateAddress",
          "type": "address"
        }
      ],
      "stateMutability": "nonpayable",
      "type": "constructor"
    },
    {
      "anonymous": false,
      "inputs": [
        {
          "indexed": true,
          "internalType": "address",
          "name": "auditorAddress",
          "type": "address"
        },
        {
          "indexed": false,
          "internalType": "string",
          "name": "organization",
          "type": "string"
        }
      ],
      "name": "AuditorApproved",
      "type": "event"
    },
    {
      "anonymous": false,
      "inputs": [
        {
          "indexed": true,
          "internalType": "address",
          "name": "auditor",
          "type": "address"
        },
        {
          "indexed": false,
          "internalType": "bool",
          "name": "passed",
          "type": "bool"
        }
      ],
      "name": "VerificationCompleted",
      "type": "event"
    },
    {
      "inputs": [
        {
          "internalType": "address",
          "name": "_auditorAddress",
          "type": "address"
        },
        {
          "internalType": "string",
          "name": "_organization",
          "type": "string"
        }
      ],
      "name": "approveAuditor",
      "outputs": [],
      "stateMutability": "nonpayable",
      "type": "function"
    },
    {
      "inputs": [
        {
          "internalType": "address",
          "name": "",
          "type": "address"
        }
      ],
      "name": "auditors",
      "outputs": [
        {
          "internalType": "address",
          "name": "auditorAddress",
          "type": "address"
        },
        {
          "internalType": "string",
          "name": "organization",
          "type": "string"
        },
        {
          "internalType": "bool",
          "name": "isApproved",
          "type": "bool"
        }
      ],
      "stateMutability": "view",
      "type": "function"
    },
    {
      "inputs": [],
      "name": "candidateContract",
      "outputs": [
        {
          "internalType": "contract CandidateRegistration",
          "name": "",
          "type": "address"
        }
      ],
      "stateMutability": "view",
      "type": "function"
    },
    {
      "inputs": [
        {
          "internalType": "string",
          "name": "_nationalID",
          "type": "string"
        }
      ],
      "name": "checkVoteByNationalID",
      "outputs": [
        {
          "internalType": "uint256",
          "name": "",
          "type": "uint256"
        }
      ],
      "stateMutability": "view",
      "type": "function"
    },
    {
      "inputs": [],
      "name": "electionCommission",
      "outputs": [
        {
          "internalType": "address",
          "name": "",
          "type": "address"
        }
      ],
      "stateMutability": "view",
      "type": "function"
    },
    {
      "inputs": [],
      "name": "getAllVerificationRecords",
      "outputs": [
        {
          "components": [
            {
              "internalType": "address",
              "name": "auditor",
              "type": "address"
            },
            {
              "internalType": "uint256",
              "name": "timestamp",
              "type": "uint256"
            },
            {
              "internalType": "string",
              "name": "comments",
              "type": "string"
            },
            {
              "internalType": "bool",
              "name": "verificationPassed",
              "type": "bool"
            }
          ],
          "internalType": "struct ElectionVerification.VerificationRecord[]",
          "name": "",
          "type": "tuple[]"
        }
      ],
      "stateMutability": "view",
      "type": "function"
    },
    {
      "inputs": [],
      "name": "getVerificationCount",
      "outputs": [
        {
          "internalType": "uint256",
          "name": "",
          "type": "uint256"
        }
      ],
      "stateMutability": "view",
      "type": "function"
    },
    {
      "inputs": [
        {
          "internalType": "uint256",
          "name": "_index",
          "type": "uint256"
        }
      ],
      "name": "getVerificationRecord",
      "outputs": [
        {
          "components": [
            {
              "internalType": "address",
              "name": "auditor",
              "type": "address"
            },
            {
              "internalType": "uint256",
              "name": "timestamp",
              "type": "uint256"
            },
            {
              "internalType": "string",
              "name": "comments",
              "type": "string"
            },
            {
              "internalType": "bool",
              "name": "verificationPassed",
              "type": "bool"
            }
          ],
          "internalType": "struct ElectionVerification.VerificationRecord",
          "name": "",
          "type": "tuple"
        }
      ],
      "stateMutability": "view",
      "type": "function"
    },
    {
      "inputs": [],
      "name": "resultsContract",
      "outputs": [
        {
          "internalType": "contract ElectionResults",
          "name": "",
          "type": "address"
        }
      ],
      "stateMutability": "view",
      "type": "function"
    },
    {
      "inputs": [
        {
          "internalType": "string",
          "name": "_comments",
          "type": "string"
        },
        {
          "internalType": "bool",
          "name": "_verificationPassed",
          "type": "bool"
        }
      ],
      "name": "submitVerification",
      "outputs": [],
      "stateMutability": "nonpayable",
      "type": "function"
    },
    {
      "inputs": [
        {
          "internalType": "uint256",
          "name": "",
          "type": "uint256"
        }
      ],
      "name": "verificationRecords",
      "outputs": [
        {
          "internalType": "address",
          "name": "auditor",
          "type": "address"
        },
        {
          "internalType": "uint256",
          "name": "timestamp",
          "type": "uint256"
        },
        {
          "internalType": "string",
          "name": "comments",
          "type": "string"
        },
        {
          "internalType": "bool",
          "name": "verificationPassed",
          "type": "bool"
        }
      ],
      "stateMutability": "view",
      "type": "function"
    },
    {
      "inputs": [],
      "name": "verifyVoteCounts",
      "outputs": [
        {
          "internalType": "bool",
          "name": "",
          "type": "bool"
        }
      ],
      "stateMutability": "view",
      "type": "function"
    },
    {
      "inputs": [],
      "name": "voterContract",
      "outputs": [
        {
          "internalType": "contract VoterRegistration",
          "name": "",
          "type": "address"
        }
      ],
      "stateMutability": "view",
      "type": "function"
    },
    {
      "inputs": [],
      "name": "votingContract",
      "outputs": [
        {
          "internalType": "contract Voting",
          "name": "",
          "type": "address"
        }
      ],
      "stateMutability": "view",
      "type": "function"
    }
  ],
  "bytecode": "0x608060405234801561001057600080fd5b5060405161232d38038061232d833981810160405281019061003291906101e2565b336000806101000a81548173ffffffffffffffffffffffffffffffffffffffff021916908373ffffffffffffffffffffffffffffffffffffffff16021790555083600160006101000a81548173ffffffffffffffffffffffffffffffffffffffff021916908373ffffffffffffffffffffffffffffffffffffffff16021790555082600260006101000a81548173ffffffffffffffffffffffffffffffffffffffff021916908373ffffffffffffffffffffffffffffffffffffffff16021790555081600360006101000a81548173ffffffffffffffffffffffffffffffffffffffff021916908373ffffffffffffffffffffffffffffffffffffffff16021790555080600460006101000a81548173ffffffffffffffffffffffffffffffffffffffff021916908373ffffffffffffffffffffffffffffffffffffffff16021790555050505050610249565b600080fd5b600073ffffffffffffffffffffffffffffffffffffffff82169050919050565b60006101af82610184565b9050919050565b6101bf816101a4565b81146101ca57600080fd5b50565b6000815190506101dc816101b6565b92915050565b600080600080608085870312156101fc576101fb61017f565b5b600061020a878288016101cd565b945050602061021b878288016101cd565b935050604061022c878288016101cd565b925050606061023d878288016101cd565b91505092959194509250565b6120d5806102586000396000f3fe608060405234801561001057600080fd5b50600436106100ea5760003560e01c80637e11cfdc1161008c578063b4a3a16211610066578063b4a3a1621461024f578063bfc87a841461026d578063c1fc006a146102a0578063e6610bc8146102be576100ea565b80637e11cfdc146101e5578063aab46b7f14610215578063adc191f114610233576100ea565b8063630d7d6a116100c8578063630d7d6a1461016f5780637ace3e791461018d5780637bce8e4e146101ab5780637e03238e146101c7576100ea565b80631f05b374146100ef5780632e98002b1461010d57806347f9aa9f1461013d575b600080fd5b6100f76102dc565b604051610104919061113a565b60405180910390f35b61012760048036038101906101229190611195565b6102e9565b6040516101349190611320565b60405180910390f35b6101576004803603810190610152919061136e565b610479565b60405161016693929190611403565b60405180910390f35b610177610558565b6040516101849190611566565b60405180910390f35b6101956106c4565b6040516101a291906115e7565b60405180910390f35b6101c560048036038101906101c09190611763565b6106ea565b005b6101cf6108b8565b6040516101dc91906117bf565b60405180910390f35b6101ff60048036038101906101fa91906117da565b610b59565b60405161020c919061113a565b60405180910390f35b61021d610d83565b60405161022a9190611823565b60405180910390f35b61024d6004803603810190610248919061183e565b610da7565b005b610257610f7a565b60405161026491906118bb565b60405180910390f35b61028760048036038101906102829190611195565b610fa0565b60405161029794939291906118d6565b60405180910390f35b6102a8611095565b6040516102b59190611943565b60405180910390f35b6102c66110bb565b6040516102d3919061197f565b60405180910390f35b6000600680549050905090565b6102f16110e1565b6006805490508210610338576040517f08c379a000000000000000000000000000000000000000000000000000000000815260040161032f906119e6565b60405180910390fd5b6006828154811061034c5761034b611a06565b5b90600052602060002090600402016040518060800160405290816000820160009054906101000a900473ffffffffffffffffffffffffffffffffffffffff1673ffffffffffffffffffffffffffffffffffffffff1673ffffffffffffffffffffffffffffffffffffffff168152602001600182015481526020016002820180546103d590611a64565b80601f016020809104026020016040519081016040528092919081815260200182805461040190611a64565b801561044e5780601f106104235761010080835404028352916020019161044e565b820191906000526020600020905b81548152906001019060200180831161043157829003601f168201915b505050505081526020016003820160009054906101000a900460ff1615151515815250509050919050565b60056020528060005260406000206000915090508060000160009054906101000a900473ffffffffffffffffffffffffffffffffffffffff16908060010180546104c290611a64565b80601f01602080910402602001604051908101604052809291908181526020018280546104ee90611a64565b801561053b5780601f106105105761010080835404028352916020019161053b565b820191906000526020600020905b81548152906001019060200180831161051e57829003601f168201915b5050505050908060020160009054906101000a900460ff16905083565b60606006805480602002602001604051908101604052809291908181526020016000905b828210156106bb57838290600052602060002090600402016040518060800160405290816000820160009054906101000a900473ffffffffffffffffffffffffffffffffffffffff1673ffffffffffffffffffffffffffffffffffffffff1673ffffffffffffffffffffffffffffffffffffffff1681526020016001820154815260200160028201805461060f90611a64565b80601f016020809104026020016040519081016040528092919081815260200182805461063b90611a64565b80156106885780601f1061065d57610100808354040283529160200191610688565b820191906000526020600020905b81548152906001019060200180831161066b57829003601f168201915b505050505081526020016003820160009054906101000a900460ff1615151515815250508152602001906001019061057c565b50505050905090565b600260009054906101000a900473ffffffffffffffffffffffffffffffffffffffff1681565b600560003373ffffffffffffffffffffffffffffffffffffffff1673ffffffffffffffffffffffffffffffffffffffff16815260200190815260200160002060020160009054906101000a900460ff16610779576040517f08c379a000000000000000000000000000000000000000000000000000000000815260040161077090611b07565b60405180910390fd5b600660405180608001604052803373ffffffffffffffffffffffffffffffffffffffff168152602001428152602001848152602001831515815250908060018154018082558091505060019003906000526020600020906004020160009091909190915060008201518160000160006101000a81548173ffffffffffffffffffffffffffffffffffffffff021916908373ffffffffffffffffffffffffffffffffffffffff1602179055506020820151816001015560408201518160020190816108439190611cc9565b5060608201518160030160006101000a81548160ff02191690831515021790555050503373ffffffffffffffffffffffffffffffffffffffff167fd1d482b5c22565a9f99b7cf53436104f195185943cd2a18f7294234cfeda41ef826040516108ac91906117bf565b60405180910390a25050565b600080600260009054906101000a900473ffffffffffffffffffffffffffffffffffffffff1673ffffffffffffffffffffffffffffffffffffffff16637de418d56040518163ffffffff1660e01b8152600401602060405180830381865afa158015610928573d6000803e3d6000fd5b505050506040513d601f19601f8201168201806040525081019061094c9190611db0565b9050600080600360009054906101000a900473ffffffffffffffffffffffffffffffffffffffff1673ffffffffffffffffffffffffffffffffffffffff1663793cf2186040518163ffffffff1660e01b8152600401602060405180830381865afa1580156109be573d6000803e3d6000fd5b505050506040513d601f19601f820116820180604052508101906109e29190611db0565b905060005b81811015610b4d576000600360009054906101000a900473ffffffffffffffffffffffffffffffffffffffff1673ffffffffffffffffffffffffffffffffffffffff1663a873bb00836040518263ffffffff1660e01b8152600401610a4c919061113a565b602060405180830381865afa158015610a69573d6000803e3d6000fd5b505050506040513d601f19601f82011682018060405250810190610a8d9190611df2565b9050600360009054906101000a900473ffffffffffffffffffffffffffffffffffffffff1673ffffffffffffffffffffffffffffffffffffffff166309eef43e826040518263ffffffff1660e01b8152600401610aea9190611823565b602060405180830381865afa158015610b07573d6000803e3d6000fd5b505050506040513d601f19601f82011682018060405250810190610b2b9190611e34565b15610b3f578380610b3b90611e90565b9450505b5080806001019150506109e7565b50818314935050505090565b6000600560003373ffffffffffffffffffffffffffffffffffffffff1673ffffffffffffffffffffffffffffffffffffffff16815260200190815260200160002060020160009054906101000a900460ff16610bea576040517f08c379a0000000000000000000000000000000000000000000000000000000008152600401610be190611b07565b60405180910390fd5b600380811115610bfd57610bfc611ed8565b5b600160009054906101000a900473ffffffffffffffffffffffffffffffffffffffff1673ffffffffffffffffffffffffffffffffffffffff1663c19d93fb6040518163ffffffff1660e01b8152600401602060405180830381865afa158015610c6a573d6000803e3d6000fd5b505050506040513d601f19601f82011682018060405250810190610c8e9190611f2c565b6003811115610ca057610c9f611ed8565b5b14610ce0576040517f08c379a0000000000000000000000000000000000000000000000000000000008152600401610cd790611fcb565b60405180910390fd5b600160009054906101000a900473ffffffffffffffffffffffffffffffffffffffff1673ffffffffffffffffffffffffffffffffffffffff1663743cabe6836040518263ffffffff1660e01b8152600401610d3b9190611feb565b602060405180830381865afa158015610d58573d6000803e3d6000fd5b505050506040513d601f19601f82011682018060405250810190610d7c9190611db0565b9050919050565b60008054906101000a900473ffffffffffffffffffffffffffffffffffffffff1681565b60008054906101000a900473ffffffffffffffffffffffffffffffffffffffff1673ffffffffffffffffffffffffffffffffffffffff163373ffffffffffffffffffffffffffffffffffffffff1614610e35576040517f08c379a0000000000000000000000000000000000000000000000000000000008152600401610e2c9061207f565b60405180910390fd5b60405180606001604052808373ffffffffffffffffffffffffffffffffffffffff16815260200182815260200160011515815250600560008473ffffffffffffffffffffffffffffffffffffffff1673ffffffffffffffffffffffffffffffffffffffff16815260200190815260200160002060008201518160000160006101000a81548173ffffffffffffffffffffffffffffffffffffffff021916908373ffffffffffffffffffffffffffffffffffffffff1602179055506020820151816001019081610f049190611cc9565b5060408201518160020160006101000a81548160ff0219169083151502179055509050508173ffffffffffffffffffffffffffffffffffffffff167fc8a4d575eab5df51c0aa35a94bb70abe389bc5f6aa7cbe1edd419133091cf3fa82604051610f6e9190611feb565b60405180910390a25050565b600460009054906101000a900473ffffffffffffffffffffffffffffffffffffffff1681565b60068181548110610fb057600080fd5b90600052602060002090600402016000915090508060000160009054906101000a900473ffffffffffffffffffffffffffffffffffffffff1690806001015490806002018054610fff90611a64565b80601f016020809104026020016040519081016040528092919081815260200182805461102b90611a64565b80156110785780601f1061104d57610100808354040283529160200191611078565b820191906000526020600020905b81548152906001019060200180831161105b57829003601f168201915b5050505050908060030160009054906101000a900460ff16905084565b600160009054906101000a900473ffffffffffffffffffffffffffffffffffffffff1681565b600360009054906101000a900473ffffffffffffffffffffffffffffffffffffffff1681565b6040518060800160405280600073ffffffffffffffffffffffffffffffffffffffff16815260200160008152602001606081526020016000151581525090565b6000819050919050565b61113481611121565b82525050565b600060208201905061114f600083018461112b565b92915050565b6000604051905090565b600080fd5b600080fd5b61117281611121565b811461117d57600080fd5b50565b60008135905061118f81611169565b92915050565b6000602082840312156111ab576111aa61115f565b5b60006111b984828501611180565b91505092915050565b600073ffffffffffffffffffffffffffffffffffffffff82169050919050565b60006111ed826111c2565b9050919050565b6111fd816111e2565b82525050565b61120c81611121565b82525050565b600081519050919050565b600082825260208201905092915050565b60005b8381101561124c578082015181840152602081019050611231565b60008484015250505050565b6000601f19601f8301169050919050565b600061127482611212565b61127e818561121d565b935061128e81856020860161122e565b61129781611258565b840191505092915050565b60008115159050919050565b6112b7816112a2565b82525050565b60006080830160008301516112d560008601826111f4565b5060208301516112e86020860182611203565b50604083015184820360408601526113008282611269565b915050606083015161131560608601826112ae565b508091505092915050565b6000602082019050818103600083015261133a81846112bd565b905092915050565b61134b816111e2565b811461135657600080fd5b50565b60008135905061136881611342565b92915050565b6000602082840312156113845761138361115f565b5b600061139284828501611359565b91505092915050565b6113a4816111e2565b82525050565b600082825260208201905092915050565b60006113c682611212565b6113d081856113aa565b93506113e081856020860161122e565b6113e981611258565b840191505092915050565b6113fd816112a2565b82525050565b6000606082019050611418600083018661139b565b818103602083015261142a81856113bb565b905061143960408301846113f4565b949350505050565b600081519050919050565b600082825260208201905092915050565b6000819050602082019050919050565b600060808301600083015161148560008601826111f4565b5060208301516114986020860182611203565b50604083015184820360408601526114b08282611269565b91505060608301516114c560608601826112ae565b508091505092915050565b60006114dc838361146d565b905092915050565b6000602082019050919050565b60006114fc82611441565b611506818561144c565b9350836020820285016115188561145d565b8060005b85811015611554578484038952815161153585826114d0565b9450611540836114e4565b925060208a0199505060018101905061151c565b50829750879550505050505092915050565b6000602082019050818103600083015261158081846114f1565b905092915050565b6000819050919050565b60006115ad6115a86115a3846111c2565b611588565b6111c2565b9050919050565b60006115bf82611592565b9050919050565b60006115d1826115b4565b9050919050565b6115e1816115c6565b82525050565b60006020820190506115fc60008301846115d8565b92915050565b600080fd5b600080fd5b7f4e487b7100000000000000000000000000000000000000000000000000000000600052604160045260246000fd5b61164482611258565b810181811067ffffffffffffffff821117156116635761166261160c565b5b80604052505050565b6000611676611155565b9050611682828261163b565b919050565b600067ffffffffffffffff8211156116a2576116a161160c565b5b6116ab82611258565b9050602081019050919050565b82818337600083830152505050565b60006116da6116d584611687565b61166c565b9050828152602081018484840111156116f6576116f5611607565b5b6117018482856116b8565b509392505050565b600082601f83011261171e5761171d611602565b5b813561172e8482602086016116c7565b91505092915050565b611740816112a2565b811461174b57600080fd5b50565b60008135905061175d81611737565b92915050565b6000806040838503121561177a5761177961115f565b5b600083013567ffffffffffffffff81111561179857611797611164565b5b6117a485828601611709565b92505060206117b58582860161174e565b9150509250929050565b60006020820190506117d460008301846113f4565b92915050565b6000602082840312156117f0576117ef61115f565b5b600082013567ffffffffffffffff81111561180e5761180d611164565b5b61181a84828501611709565b91505092915050565b6000602082019050611838600083018461139b565b92915050565b600080604083850312156118555761185461115f565b5b600061186385828601611359565b925050602083013567ffffffffffffffff81111561188457611883611164565b5b61189085828601611709565b9150509250929050565b60006118a5826115b4565b9050919050565b6118b58161189a565b82525050565b60006020820190506118d060008301846118ac565b92915050565b60006080820190506118eb600083018761139b565b6118f8602083018661112b565b818103604083015261190a81856113bb565b905061191960608301846113f4565b95945050505050565b600061192d826115b4565b9050919050565b61193d81611922565b82525050565b60006020820190506119586000830184611934565b92915050565b6000611969826115b4565b9050919050565b6119798161195e565b82525050565b60006020820190506119946000830184611970565b92915050565b7f496e646578206f7574206f6620626f756e647300000000000000000000000000600082015250565b60006119d06013836113aa565b91506119db8261199a565b602082019050919050565b600060208201905081810360008301526119ff816119c3565b9050919050565b7f4e487b7100000000000000000000000000000000000000000000000000000000600052603260045260246000fd5b7f4e487b7100000000000000000000000000000000000000000000000000000000600052602260045260246000fd5b60006002820490506001821680611a7c57607f821691505b602082108103611a8f57611a8e611a35565b5b50919050565b7f4f6e6c7920617070726f7665642061756469746f72732063616e20706572666f60008201527f726d207468697320616374696f6e000000000000000000000000000000000000602082015250565b6000611af1602e836113aa565b9150611afc82611a95565b604082019050919050565b60006020820190508181036000830152611b2081611ae4565b9050919050565b60008190508160005260206000209050919050565b60006020601f8301049050919050565b600082821b905092915050565b600060088302611b897fffffffffffffffffffffffffffffffffffffffffffffffffffffffffffffffff82611b4c565b611b938683611b4c565b95508019841693508086168417925050509392505050565b6000611bc6611bc1611bbc84611121565b611588565b611121565b9050919050565b6000819050919050565b611be083611bab565b611bf4611bec82611bcd565b848454611b59565b825550505050565b600090565b611c09611bfc565b611c14818484611bd7565b505050565b5b81811015611c3857611c2d600082611c01565b600181019050611c1a565b5050565b601f821115611c7d57611c4e81611b27565b611c5784611b3c565b81016020851015611c66578190505b611c7a611c7285611b3c565b830182611c19565b50505b505050565b600082821c905092915050565b6000611ca060001984600802611c82565b1980831691505092915050565b6000611cb98383611c8f565b9150826002028217905092915050565b611cd282611212565b67ffffffffffffffff811115611ceb57611cea61160c565b5b611cf58254611a64565b611d00828285611c3c565b600060209050601f831160018114611d335760008415611d21578287015190505b611d2b8582611cad565b865550611d93565b601f198416611d4186611b27565b60005b82811015611d6957848901518255600182019150602085019450602081019050611d44565b86831015611d865784890151611d82601f891682611c8f565b8355505b6001600288020188555050505b505050505050565b600081519050611daa81611169565b92915050565b600060208284031215611dc657611dc561115f565b5b6000611dd484828501611d9b565b91505092915050565b600081519050611dec81611342565b92915050565b600060208284031215611e0857611e0761115f565b5b6000611e1684828501611ddd565b91505092915050565b600081519050611e2e81611737565b92915050565b600060208284031215611e4a57611e4961115f565b5b6000611e5884828501611e1f565b91505092915050565b7f4e487b7100000000000000000000000000000000000000000000000000000000600052601160045260246000fd5b6000611e9b82611121565b91507fffffffffffffffffffffffffffffffffffffffffffffffffffffffffffffffff8203611ecd57611ecc611e61565b5b600182019050919050565b7f4e487b7100000000000000000000000000000000000000000000000000000000600052602160045260246000fd5b60048110611f1457600080fd5b50565b600081519050611f2681611f07565b92915050565b600060208284031215611f4257611f4161115f565b5b6000611f5084828501611f17565b91505092915050565b7f456c656374696f6e206d75737420626520656e64656420666f7220766f74652060008201527f766572696669636174696f6e0000000000000000000000000000000000000000602082015250565b6000611fb5602c836113aa565b9150611fc082611f59565b604082019050919050565b60006020820190508181036000830152611fe481611fa8565b9050919050565b6000602082019050818103600083015261200581846113bb565b905092915050565b7f4f6e6c7920656c656374696f6e20636f6d6d697373696f6e2063616e2070657260008201527f666f726d207468697320616374696f6e00000000000000000000000000000000602082015250565b60006120696030836113aa565b91506120748261200d565b604082019050919050565b600060208201905081810360008301526120988161205c565b905091905056fea2646970667358221220963d701660021f80e443e7e90f18f9ca8bc4e5bbc3074bab0c45714d26e4957e64736f6c634300081c0033",
  "linkReferences": {},
  "deployedLinkReferences": {}
}