{
  "_format": "hh-sol-artifact-1",
  "contractName": "ElectionResults",
  "sourceName": "contracts/ElectionResults.sol",
  "abi": [
    {
      "inputs": [
        {
          "internalType": "address",
          "name": "_votingAddress",
          "type": "address"
        },
        {
          "internalType": "address",
          "name": "_candidateAddress",
          "type": "address"
        },
        {
          "internalType": "address",
          "name": "_voterAddress",
          "type": "address"
        }
      ],
      "stateMutability": "nonpayable",
      "type": "constructor"
    },
    {
      "anonymous": false,
      "inputs": [
        {
          "indexed": true,
          "internalType": "uint256",
          "name": "winningCandidateID",
          "type": "uint256"
        },
        {
          "indexed": false,
          "internalType": "uint256",
          "name": "totalVotes",
          "type": "uint256"
        }
      ],
      "name": "ResultsFinalized",
      "type": "event"
    },
    {
      "inputs": [],
      "name": "candidateContract",
      "outputs": [
        {
          "internalType": "contract CandidateRegistration",
          "name": "",
          "type": "address"
        }
      ],
      "stateMutability": "view",
      "type": "function"
    },
    {
      "inputs": [],
      "name": "electionCommission",
      "outputs": [
        {
          "internalType": "address",
          "name": "",
          "type": "address"
        }
      ],
      "stateMutability": "view",
      "type": "function"
    },
    {
      "inputs": [],
      "name": "finalizeResults",
      "outputs": [],
      "stateMutability": "nonpayable",
      "type": "function"
    },
    {
      "inputs": [],
      "name": "getAllResults",
      "outputs": [
        {
          "components": [
            {
              "internalType": "uint256",
              "name": "candidateID",
              "type": "uint256"
            },
            {
              "internalType": "string",
              "name": "nationalID",
              "type": "string"
            },
            {
              "internalType": "string",
              "name": "candidateName",
              "type": "string"
            },
            {
              "internalType": "string",
              "name": "party",
              "type": "string"
            },
            {
              "internalType": "uint256",
              "name": "voteCount",
              "type": "uint256"
            }
          ],
          "internalType": "struct ElectionResults.ElectionResult[]",
          "name": "",
          "type": "tuple[]"
        }
      ],
      "stateMutability": "view",
      "type": "function"
    },
    {
      "inputs": [],
      "name": "getVoterTurnout",
      "outputs": [
        {
          "internalType": "uint256",
          "name": "",
          "type": "uint256"
        }
      ],
      "stateMutability": "view",
      "type": "function"
    },
    {
      "inputs": [],
      "name": "getWinner",
      "outputs": [
        {
          "components": [
            {
              "internalType": "uint256",
              "name": "candidateID",
              "type": "uint256"
            },
            {
              "internalType": "string",
              "name": "nationalID",
              "type": "string"
            },
            {
              "internalType": "string",
              "name": "candidateName",
              "type": "string"
            },
            {
              "internalType": "string",
              "name": "party",
              "type": "string"
            },
            {
              "internalType": "uint256",
              "name": "voteCount",
              "type": "uint256"
            }
          ],
          "internalType": "struct ElectionResults.ElectionResult",
          "name": "",
          "type": "tuple"
        }
      ],
      "stateMutability": "view",
      "type": "function"
    },
    {
      "inputs": [],
      "name": "resultFinalized",
      "outputs": [
        {
          "internalType": "bool",
          "name": "",
          "type": "bool"
        }
      ],
      "stateMutability": "view",
      "type": "function"
    },
    {
      "inputs": [],
      "name": "totalVotesCast",
      "outputs": [
        {
          "internalType": "uint256",
          "name": "",
          "type": "uint256"
        }
      ],
      "stateMutability": "view",
      "type": "function"
    },
    {
      "inputs": [],
      "name": "voterContract",
      "outputs": [
        {
          "internalType": "contract VoterRegistration",
          "name": "",
          "type": "address"
        }
      ],
      "stateMutability": "view",
      "type": "function"
    },
    {
      "inputs": [],
      "name": "votingContract",
      "outputs": [
        {
          "internalType": "contract Voting",
          "name": "",
          "type": "address"
        }
      ],
      "stateMutability": "view",
      "type": "function"
    },
    {
      "inputs": [],
      "name": "winningCandidateID",
      "outputs": [
        {
          "internalType": "uint256",
          "name": "",
          "type": "uint256"
        }
      ],
      "stateMutability": "view",
      "type": "function"
    }
  ],
  "bytecode": "0x608060405234801561001057600080fd5b50604051611ac8380380611ac8833981810160405281019061003291906101bb565b336000806101000a81548173ffffffffffffffffffffffffffffffffffffffff021916908373ffffffffffffffffffffffffffffffffffffffff16021790555082600160006101000a81548173ffffffffffffffffffffffffffffffffffffffff021916908373ffffffffffffffffffffffffffffffffffffffff16021790555081600260006101000a81548173ffffffffffffffffffffffffffffffffffffffff021916908373ffffffffffffffffffffffffffffffffffffffff16021790555080600360006101000a81548173ffffffffffffffffffffffffffffffffffffffff021916908373ffffffffffffffffffffffffffffffffffffffff1602179055506000600660006101000a81548160ff02191690831515021790555050505061020e565b600080fd5b600073ffffffffffffffffffffffffffffffffffffffff82169050919050565b60006101888261015d565b9050919050565b6101988161017d565b81146101a357600080fd5b50565b6000815190506101b58161018f565b92915050565b6000806000606084860312156101d4576101d3610158565b5b60006101e2868287016101a6565b93505060206101f3868287016101a6565b9250506040610204868287016101a6565b9150509250925092565b6118ab8061021d6000396000f3fe608060405234801561001057600080fd5b50600436106100a95760003560e01c8063aab46b7f11610071578063aab46b7f14610144578063b4a3a16214610162578063b65ee3bc14610180578063c1fc006a1461019e578063e6610bc8146101bc578063f7d3d4f3146101da576100a9565b80631aae9ff3146100ae5780632fd0d870146100cc57806376d9be08146100ea5780637de418d5146101085780638e7ea5b214610126575b600080fd5b6100b66101e4565b6040516100c39190610c36565b60405180910390f35b6100d46101f7565b6040516100e19190610c6a565b60405180910390f35b6100f26102c0565b6040516100ff9190610e6a565b60405180910390f35b61011061058f565b60405161011d9190610c6a565b60405180910390f35b61012e610595565b60405161013b9190610f10565b60405180910390f35b61014c610771565b6040516101599190610f73565b60405180910390f35b61016a610795565b6040516101779190610fed565b60405180910390f35b6101886107bb565b6040516101959190610c6a565b60405180910390f35b6101a66107c1565b6040516101b39190611029565b60405180910390f35b6101c46107e7565b6040516101d19190611065565b60405180910390f35b6101e261080d565b005b600660009054906101000a900460ff1681565b600080600360009054906101000a900473ffffffffffffffffffffffffffffffffffffffff1673ffffffffffffffffffffffffffffffffffffffff1663793cf2186040518163ffffffff1660e01b8152600401602060405180830381865afa158015610267573d6000803e3d6000fd5b505050506040513d601f19601f8201168201806040525081019061028b91906110c0565b90506000810361029f5760009150506102bd565b8060646004546102af919061111c565b6102b9919061118d565b9150505b90565b60606000600260009054906101000a900473ffffffffffffffffffffffffffffffffffffffff1673ffffffffffffffffffffffffffffffffffffffff16635323b8046040518163ffffffff1660e01b8152600401600060405180830381865afa158015610331573d6000803e3d6000fd5b505050506040513d6000823e3d601f19601f8201168201806040525081019061035a9190611306565b90506000815167ffffffffffffffff811115610379576103786111c3565b5b6040519080825280602002602001820160405280156103b257816020015b61039f610bec565b8152602001906001900390816103975790505b50905060005b82518110156105865760008382815181106103d6576103d561134f565b5b602002602001015190506000600260009054906101000a900473ffffffffffffffffffffffffffffffffffffffff1673ffffffffffffffffffffffffffffffffffffffff166335b8e820836040518263ffffffff1660e01b815260040161043d9190610c6a565b600060405180830381865afa15801561045a573d6000803e3d6000fd5b505050506040513d6000823e3d601f19601f82011682018060405250810190610483919061156a565b90506000600160009054906101000a900473ffffffffffffffffffffffffffffffffffffffff1673ffffffffffffffffffffffffffffffffffffffff1663b2c2f2e8846040518263ffffffff1660e01b81526004016104e29190610c6a565b602060405180830381865afa1580156104ff573d6000803e3d6000fd5b505050506040513d601f19601f8201168201806040525081019061052391906110c0565b90506040518060a001604052808481526020018360200151815260200183604001518152602001836060015181526020018281525085858151811061056b5761056a61134f565b5b602002602001018190525050505080806001019150506103b8565b50809250505090565b60045481565b61059d610bec565b600660009054906101000a900460ff166105ec576040517f08c379a00000000000000000000000000000000000000000000000000000000081526004016105e390611610565b60405180910390fd5b6000600260009054906101000a900473ffffffffffffffffffffffffffffffffffffffff1673ffffffffffffffffffffffffffffffffffffffff166335b8e8206005546040518263ffffffff1660e01b815260040161064b9190610c6a565b600060405180830381865afa158015610668573d6000803e3d6000fd5b505050506040513d6000823e3d601f19601f82011682018060405250810190610691919061156a565b90506000600160009054906101000a900473ffffffffffffffffffffffffffffffffffffffff1673ffffffffffffffffffffffffffffffffffffffff1663b2c2f2e86005546040518263ffffffff1660e01b81526004016106f29190610c6a565b602060405180830381865afa15801561070f573d6000803e3d6000fd5b505050506040513d601f19601f8201168201806040525081019061073391906110c0565b90506040518060a001604052806005548152602001836020015181526020018360400151815260200183606001518152602001828152509250505090565b60008054906101000a900473ffffffffffffffffffffffffffffffffffffffff1681565b600260009054906101000a900473ffffffffffffffffffffffffffffffffffffffff1681565b60055481565b600160009054906101000a900473ffffffffffffffffffffffffffffffffffffffff1681565b600360009054906101000a900473ffffffffffffffffffffffffffffffffffffffff1681565b60008054906101000a900473ffffffffffffffffffffffffffffffffffffffff1673ffffffffffffffffffffffffffffffffffffffff163373ffffffffffffffffffffffffffffffffffffffff161461089b576040517f08c379a0000000000000000000000000000000000000000000000000000000008152600401610892906116a2565b60405180910390fd5b6003808111156108ae576108ad6116c2565b5b600160009054906101000a900473ffffffffffffffffffffffffffffffffffffffff1673ffffffffffffffffffffffffffffffffffffffff1663c19d93fb6040518163ffffffff1660e01b8152600401602060405180830381865afa15801561091b573d6000803e3d6000fd5b505050506040513d601f19601f8201168201806040525081019061093f9190611716565b6003811115610951576109506116c2565b5b14610991576040517f08c379a0000000000000000000000000000000000000000000000000000000008152600401610988906117b5565b60405180910390fd5b600660009054906101000a900460ff16156109e1576040517f08c379a00000000000000000000000000000000000000000000000000000000081526004016109d890611821565b60405180910390fd5b60008060006004819055506000600260009054906101000a900473ffffffffffffffffffffffffffffffffffffffff1673ffffffffffffffffffffffffffffffffffffffff16635323b8046040518163ffffffff1660e01b8152600401600060405180830381865afa158015610a5b573d6000803e3d6000fd5b505050506040513d6000823e3d601f19601f82011682018060405250810190610a849190611306565b905060005b8151811015610b88576000828281518110610aa757610aa661134f565b5b602002602001015190506000600160009054906101000a900473ffffffffffffffffffffffffffffffffffffffff1673ffffffffffffffffffffffffffffffffffffffff1663b2c2f2e8836040518263ffffffff1660e01b8152600401610b0e9190610c6a565b602060405180830381865afa158015610b2b573d6000803e3d6000fd5b505050506040513d601f19601f82011682018060405250810190610b4f91906110c0565b90508060046000828254610b639190611841565b9250508190555085811115610b79578095508194505b50508080600101915050610a89565b50816005819055506001600660006101000a81548160ff0219169083151502179055506005547fee5a2462291e9ee9885408b1526abfa3ba1703fc262a787055eb8061750084e8600454604051610bdf9190610c6a565b60405180910390a2505050565b6040518060a0016040528060008152602001606081526020016060815260200160608152602001600081525090565b60008115159050919050565b610c3081610c1b565b82525050565b6000602082019050610c4b6000830184610c27565b92915050565b6000819050919050565b610c6481610c51565b82525050565b6000602082019050610c7f6000830184610c5b565b92915050565b600081519050919050565b600082825260208201905092915050565b6000819050602082019050919050565b610cba81610c51565b82525050565b600081519050919050565b600082825260208201905092915050565b60005b83811015610cfa578082015181840152602081019050610cdf565b60008484015250505050565b6000601f19601f8301169050919050565b6000610d2282610cc0565b610d2c8185610ccb565b9350610d3c818560208601610cdc565b610d4581610d06565b840191505092915050565b600060a083016000830151610d686000860182610cb1565b5060208301518482036020860152610d808282610d17565b91505060408301518482036040860152610d9a8282610d17565b91505060608301518482036060860152610db48282610d17565b9150506080830151610dc96080860182610cb1565b508091505092915050565b6000610de08383610d50565b905092915050565b6000602082019050919050565b6000610e0082610c85565b610e0a8185610c90565b935083602082028501610e1c85610ca1565b8060005b85811015610e585784840389528151610e398582610dd4565b9450610e4483610de8565b925060208a01995050600181019050610e20565b50829750879550505050505092915050565b60006020820190508181036000830152610e848184610df5565b905092915050565b600060a083016000830151610ea46000860182610cb1565b5060208301518482036020860152610ebc8282610d17565b91505060408301518482036040860152610ed68282610d17565b91505060608301518482036060860152610ef08282610d17565b9150506080830151610f056080860182610cb1565b508091505092915050565b60006020820190508181036000830152610f2a8184610e8c565b905092915050565b600073ffffffffffffffffffffffffffffffffffffffff82169050919050565b6000610f5d82610f32565b9050919050565b610f6d81610f52565b82525050565b6000602082019050610f886000830184610f64565b92915050565b6000819050919050565b6000610fb3610fae610fa984610f32565b610f8e565b610f32565b9050919050565b6000610fc582610f98565b9050919050565b6000610fd782610fba565b9050919050565b610fe781610fcc565b82525050565b60006020820190506110026000830184610fde565b92915050565b600061101382610fba565b9050919050565b61102381611008565b82525050565b600060208201905061103e600083018461101a565b92915050565b600061104f82610fba565b9050919050565b61105f81611044565b82525050565b600060208201905061107a6000830184611056565b92915050565b6000604051905090565b600080fd5b600080fd5b61109d81610c51565b81146110a857600080fd5b50565b6000815190506110ba81611094565b92915050565b6000602082840312156110d6576110d561108a565b5b60006110e4848285016110ab565b91505092915050565b7f4e487b7100000000000000000000000000000000000000000000000000000000600052601160045260246000fd5b600061112782610c51565b915061113283610c51565b925082820261114081610c51565b91508282048414831517611157576111566110ed565b5b5092915050565b7f4e487b7100000000000000000000000000000000000000000000000000000000600052601260045260246000fd5b600061119882610c51565b91506111a383610c51565b9250826111b3576111b261115e565b5b828204905092915050565b600080fd5b7f4e487b7100000000000000000000000000000000000000000000000000000000600052604160045260246000fd5b6111fb82610d06565b810181811067ffffffffffffffff8211171561121a576112196111c3565b5b80604052505050565b600061122d611080565b905061123982826111f2565b919050565b600067ffffffffffffffff821115611259576112586111c3565b5b602082029050602081019050919050565b600080fd5b600061128261127d8461123e565b611223565b905080838252602082019050602084028301858111156112a5576112a461126a565b5b835b818110156112ce57806112ba88826110ab565b8452602084019350506020810190506112a7565b5050509392505050565b600082601f8301126112ed576112ec6111be565b5b81516112fd84826020860161126f565b91505092915050565b60006020828403121561131c5761131b61108a565b5b600082015167ffffffffffffffff81111561133a5761133961108f565b5b611346848285016112d8565b91505092915050565b7f4e487b7100000000000000000000000000000000000000000000000000000000600052603260045260246000fd5b600080fd5b600080fd5b600080fd5b600067ffffffffffffffff8211156113a8576113a76111c3565b5b6113b182610d06565b9050602081019050919050565b60006113d16113cc8461138d565b611223565b9050828152602081018484840111156113ed576113ec611388565b5b6113f8848285610cdc565b509392505050565b600082601f830112611415576114146111be565b5b81516114258482602086016113be565b91505092915050565b61143781610c1b565b811461144257600080fd5b50565b6000815190506114548161142e565b92915050565b600060c082840312156114705761146f61137e565b5b61147a60c0611223565b9050600061148a848285016110ab565b600083015250602082015167ffffffffffffffff8111156114ae576114ad611383565b5b6114ba84828501611400565b602083015250604082015167ffffffffffffffff8111156114de576114dd611383565b5b6114ea84828501611400565b604083015250606082015167ffffffffffffffff81111561150e5761150d611383565b5b61151a84828501611400565b606083015250608082015167ffffffffffffffff81111561153e5761153d611383565b5b61154a84828501611400565b60808301525060a061155e84828501611445565b60a08301525092915050565b6000602082840312156115805761157f61108a565b5b600082015167ffffffffffffffff81111561159e5761159d61108f565b5b6115aa8482850161145a565b91505092915050565b600082825260208201905092915050565b7f526573756c7473206e6f742066696e616c697a65642079657400000000000000600082015250565b60006115fa6019836115b3565b9150611605826115c4565b602082019050919050565b60006020820190508181036000830152611629816115ed565b9050919050565b7f4f6e6c7920656c656374696f6e20636f6d6d697373696f6e2063616e2070657260008201527f666f726d207468697320616374696f6e00000000000000000000000000000000602082015250565b600061168c6030836115b3565b915061169782611630565b604082019050919050565b600060208201905081810360008301526116bb8161167f565b9050919050565b7f4e487b7100000000000000000000000000000000000000000000000000000000600052602160045260246000fd5b600481106116fe57600080fd5b50565b600081519050611710816116f1565b92915050565b60006020828403121561172c5761172b61108a565b5b600061173a84828501611701565b91505092915050565b7f456c656374696f6e206d75737420626520656e646564206265666f726520666960008201527f6e616c697a696e6720726573756c747300000000000000000000000000000000602082015250565b600061179f6030836115b3565b91506117aa82611743565b604082019050919050565b600060208201905081810360008301526117ce81611792565b9050919050565b7f526573756c747320616c72656164792066696e616c697a656400000000000000600082015250565b600061180b6019836115b3565b9150611816826117d5565b602082019050919050565b6000602082019050818103600083015261183a816117fe565b9050919050565b600061184c82610c51565b915061185783610c51565b925082820190508082111561186f5761186e6110ed565b5b9291505056fea26469706673582212201c90653e01148699c7b57cdac480e98293646c63d345bc991f0f695bd57f6d6764736f6c634300081c0033",
  "linkReferences": {},
  "deployedLinkReferences": {}
}