{
  "_format": "hh-sol-artifact-1",
  "contractName": "ElectionFactory",
  "sourceName": "contracts/ElectionFactory.sol",
  "abi": [
    {
      "inputs": [],
      "stateMutability": "nonpayable",
      "type": "constructor"
    },
    {
      "anonymous": false,
      "inputs": [
        {
          "indexed": false,
          "internalType": "string",
          "name": "electionName",
          "type": "string"
        },
        {
          "indexed": false,
          "internalType": "address",
          "name": "voterRegistration",
          "type": "address"
        },
        {
          "indexed": false,
          "internalType": "address",
          "name": "candidateRegistration",
          "type": "address"
        },
        {
          "indexed": false,
          "internalType": "address",
          "name": "voting",
          "type": "address"
        },
        {
          "indexed": false,
          "internalType": "address",
          "name": "electionResults",
          "type": "address"
        },
        {
          "indexed": false,
          "internalType": "address",
          "name": "electionVerification",
          "type": "address"
        }
      ],
      "name": "ElectionSystemDeployed",
      "type": "event"
    },
    {
      "inputs": [
        {
          "internalType": "uint256",
          "name": "",
          "type": "uint256"
        }
      ],
      "name": "deployedElections",
      "outputs": [
        {
          "internalType": "string",
          "name": "electionName",
          "type": "string"
        },
        {
          "internalType": "address",
          "name": "voterRegistration",
          "type": "address"
        },
        {
          "internalType": "address",
          "name": "candidateRegistration",
          "type": "address"
        },
        {
          "internalType": "address",
          "name": "voting",
          "type": "address"
        },
        {
          "internalType": "address",
          "name": "electionResults",
          "type": "address"
        },
        {
          "internalType": "address",
          "name": "electionVerification",
          "type": "address"
        },
        {
          "internalType": "uint256",
          "name": "creationTime",
          "type": "uint256"
        }
      ],
      "stateMutability": "view",
      "type": "function"
    },
    {
      "inputs": [],
      "name": "electionCommission",
      "outputs": [
        {
          "internalType": "address",
          "name": "",
          "type": "address"
        }
      ],
      "stateMutability": "view",
      "type": "function"
    },
    {
      "inputs": [],
      "name": "getDeployedElectionsCount",
      "outputs": [
        {
          "internalType": "uint256",
          "name": "",
          "type": "uint256"
        }
      ],
      "stateMutability": "view",
      "type": "function"
    },
    {
      "inputs": [
        {
          "internalType": "uint256",
          "name": "_index",
          "type": "uint256"
        }
      ],
      "name": "getElectionSystem",
      "outputs": [
        {
          "components": [
            {
              "internalType": "string",
              "name": "electionName",
              "type": "string"
            },
            {
              "internalType": "address",
              "name": "voterRegistration",
              "type": "address"
            },
            {
              "internalType": "address",
              "name": "candidateRegistration",
              "type": "address"
            },
            {
              "internalType": "address",
              "name": "voting",
              "type": "address"
            },
            {
              "internalType": "address",
              "name": "electionResults",
              "type": "address"
            },
            {
              "internalType": "address",
              "name": "electionVerification",
              "type": "address"
            },
            {
              "internalType": "uint256",
              "name": "creationTime",
              "type": "uint256"
            }
          ],
          "internalType": "struct ElectionFactory.ElectionSystem",
          "name": "",
          "type": "tuple"
        }
      ],
      "stateMutability": "view",
      "type": "function"
    },
    {
      "inputs": [
        {
          "internalType": "string",
          "name": "_electionName",
          "type": "string"
        },
        {
          "internalType": "address",
          "name": "_voterRegistration",
          "type": "address"
        },
        {
          "internalType": "address",
          "name": "_candidateRegistration",
          "type": "address"
        },
        {
          "internalType": "address",
          "name": "_voting",
          "type": "address"
        },
        {
          "internalType": "address",
          "name": "_electionResults",
          "type": "address"
        },
        {
          "internalType": "address",
          "name": "_electionVerification",
          "type": "address"
        }
      ],
      "name": "registerElectionSystem",
      "outputs": [],
      "stateMutability": "nonpayable",
      "type": "function"
    }
  ],
  "bytecode": "0x6080604052348015600f57600080fd5b50336000806101000a81548173ffffffffffffffffffffffffffffffffffffffff021916908373ffffffffffffffffffffffffffffffffffffffff1602179055506113418061005f6000396000f3fe608060405234801561001057600080fd5b50600436106100575760003560e01c8063686226331461005c578063a3bc806d1461007a578063aab46b7f146100aa578063af20859d146100c8578063f18b4f8e146100e4575b600080fd5b61006461011a565b604051610071919061097e565b60405180910390f35b610094600480360381019061008f91906109d9565b610127565b6040516100a19190610b82565b60405180910390f35b6100b26103f4565b6040516100bf9190610bb3565b60405180910390f35b6100e260048036038101906100dd9190610d2f565b610418565b005b6100fe60048036038101906100f991906109d9565b610740565b6040516101119796959493929190610e22565b60405180910390f35b6000600180549050905090565b61012f6108ba565b6001805490508210610176576040517f08c379a000000000000000000000000000000000000000000000000000000000815260040161016d90610ee4565b60405180910390fd5b6001828154811061018a57610189610f04565b5b90600052602060002090600702016040518060e00160405290816000820180546101b390610f62565b80601f01602080910402602001604051908101604052809291908181526020018280546101df90610f62565b801561022c5780601f106102015761010080835404028352916020019161022c565b820191906000526020600020905b81548152906001019060200180831161020f57829003601f168201915b505050505081526020016001820160009054906101000a900473ffffffffffffffffffffffffffffffffffffffff1673ffffffffffffffffffffffffffffffffffffffff1673ffffffffffffffffffffffffffffffffffffffff1681526020016002820160009054906101000a900473ffffffffffffffffffffffffffffffffffffffff1673ffffffffffffffffffffffffffffffffffffffff1673ffffffffffffffffffffffffffffffffffffffff1681526020016003820160009054906101000a900473ffffffffffffffffffffffffffffffffffffffff1673ffffffffffffffffffffffffffffffffffffffff1673ffffffffffffffffffffffffffffffffffffffff1681526020016004820160009054906101000a900473ffffffffffffffffffffffffffffffffffffffff1673ffffffffffffffffffffffffffffffffffffffff1673ffffffffffffffffffffffffffffffffffffffff1681526020016005820160009054906101000a900473ffffffffffffffffffffffffffffffffffffffff1673ffffffffffffffffffffffffffffffffffffffff1673ffffffffffffffffffffffffffffffffffffffff1681526020016006820154815250509050919050565b60008054906101000a900473ffffffffffffffffffffffffffffffffffffffff1681565b60008054906101000a900473ffffffffffffffffffffffffffffffffffffffff1673ffffffffffffffffffffffffffffffffffffffff163373ffffffffffffffffffffffffffffffffffffffff16146104a6576040517f08c379a000000000000000000000000000000000000000000000000000000000815260040161049d90611005565b60405180910390fd5b60016040518060e001604052808881526020018773ffffffffffffffffffffffffffffffffffffffff1681526020018673ffffffffffffffffffffffffffffffffffffffff1681526020018573ffffffffffffffffffffffffffffffffffffffff1681526020018473ffffffffffffffffffffffffffffffffffffffff1681526020018373ffffffffffffffffffffffffffffffffffffffff168152602001428152509080600181540180825580915050600190039060005260206000209060070201600090919091909150600082015181600001908161058791906111d1565b5060208201518160010160006101000a81548173ffffffffffffffffffffffffffffffffffffffff021916908373ffffffffffffffffffffffffffffffffffffffff16021790555060408201518160020160006101000a81548173ffffffffffffffffffffffffffffffffffffffff021916908373ffffffffffffffffffffffffffffffffffffffff16021790555060608201518160030160006101000a81548173ffffffffffffffffffffffffffffffffffffffff021916908373ffffffffffffffffffffffffffffffffffffffff16021790555060808201518160040160006101000a81548173ffffffffffffffffffffffffffffffffffffffff021916908373ffffffffffffffffffffffffffffffffffffffff16021790555060a08201518160050160006101000a81548173ffffffffffffffffffffffffffffffffffffffff021916908373ffffffffffffffffffffffffffffffffffffffff16021790555060c0820151816006015550507f15c3d620a507dc67334986b75bde170f79e0aebe431a84be396e7f154f49fd76868686868686604051610730969594939291906112a3565b60405180910390a1505050505050565b6001818154811061075057600080fd5b906000526020600020906007020160009150905080600001805461077390610f62565b80601f016020809104026020016040519081016040528092919081815260200182805461079f90610f62565b80156107ec5780601f106107c1576101008083540402835291602001916107ec565b820191906000526020600020905b8154815290600101906020018083116107cf57829003601f168201915b5050505050908060010160009054906101000a900473ffffffffffffffffffffffffffffffffffffffff16908060020160009054906101000a900473ffffffffffffffffffffffffffffffffffffffff16908060030160009054906101000a900473ffffffffffffffffffffffffffffffffffffffff16908060040160009054906101000a900473ffffffffffffffffffffffffffffffffffffffff16908060050160009054906101000a900473ffffffffffffffffffffffffffffffffffffffff16908060060154905087565b6040518060e0016040528060608152602001600073ffffffffffffffffffffffffffffffffffffffff168152602001600073ffffffffffffffffffffffffffffffffffffffff168152602001600073ffffffffffffffffffffffffffffffffffffffff168152602001600073ffffffffffffffffffffffffffffffffffffffff168152602001600073ffffffffffffffffffffffffffffffffffffffff168152602001600081525090565b6000819050919050565b61097881610965565b82525050565b6000602082019050610993600083018461096f565b92915050565b6000604051905090565b600080fd5b600080fd5b6109b681610965565b81146109c157600080fd5b50565b6000813590506109d3816109ad565b92915050565b6000602082840312156109ef576109ee6109a3565b5b60006109fd848285016109c4565b91505092915050565b600081519050919050565b600082825260208201905092915050565b60005b83811015610a40578082015181840152602081019050610a25565b60008484015250505050565b6000601f19601f8301169050919050565b6000610a6882610a06565b610a728185610a11565b9350610a82818560208601610a22565b610a8b81610a4c565b840191505092915050565b600073ffffffffffffffffffffffffffffffffffffffff82169050919050565b6000610ac182610a96565b9050919050565b610ad181610ab6565b82525050565b610ae081610965565b82525050565b600060e0830160008301518482036000860152610b038282610a5d565b9150506020830151610b186020860182610ac8565b506040830151610b2b6040860182610ac8565b506060830151610b3e6060860182610ac8565b506080830151610b516080860182610ac8565b5060a0830151610b6460a0860182610ac8565b5060c0830151610b7760c0860182610ad7565b508091505092915050565b60006020820190508181036000830152610b9c8184610ae6565b905092915050565b610bad81610ab6565b82525050565b6000602082019050610bc86000830184610ba4565b92915050565b600080fd5b600080fd5b7f4e487b7100000000000000000000000000000000000000000000000000000000600052604160045260246000fd5b610c1082610a4c565b810181811067ffffffffffffffff82111715610c2f57610c2e610bd8565b5b80604052505050565b6000610c42610999565b9050610c4e8282610c07565b919050565b600067ffffffffffffffff821115610c6e57610c6d610bd8565b5b610c7782610a4c565b9050602081019050919050565b82818337600083830152505050565b6000610ca6610ca184610c53565b610c38565b905082815260208101848484011115610cc257610cc1610bd3565b5b610ccd848285610c84565b509392505050565b600082601f830112610cea57610ce9610bce565b5b8135610cfa848260208601610c93565b91505092915050565b610d0c81610ab6565b8114610d1757600080fd5b50565b600081359050610d2981610d03565b92915050565b60008060008060008060c08789031215610d4c57610d4b6109a3565b5b600087013567ffffffffffffffff811115610d6a57610d696109a8565b5b610d7689828a01610cd5565b9650506020610d8789828a01610d1a565b9550506040610d9889828a01610d1a565b9450506060610da989828a01610d1a565b9350506080610dba89828a01610d1a565b92505060a0610dcb89828a01610d1a565b9150509295509295509295565b600082825260208201905092915050565b6000610df482610a06565b610dfe8185610dd8565b9350610e0e818560208601610a22565b610e1781610a4c565b840191505092915050565b600060e0820190508181036000830152610e3c818a610de9565b9050610e4b6020830189610ba4565b610e586040830188610ba4565b610e656060830187610ba4565b610e726080830186610ba4565b610e7f60a0830185610ba4565b610e8c60c083018461096f565b98975050505050505050565b7f496e646578206f7574206f6620626f756e647300000000000000000000000000600082015250565b6000610ece601383610dd8565b9150610ed982610e98565b602082019050919050565b60006020820190508181036000830152610efd81610ec1565b9050919050565b7f4e487b7100000000000000000000000000000000000000000000000000000000600052603260045260246000fd5b7f4e487b7100000000000000000000000000000000000000000000000000000000600052602260045260246000fd5b60006002820490506001821680610f7a57607f821691505b602082108103610f8d57610f8c610f33565b5b50919050565b7f4f6e6c7920656c656374696f6e20636f6d6d697373696f6e2063616e2072656760008201527f697374657220656c656374696f6e730000000000000000000000000000000000602082015250565b6000610fef602f83610dd8565b9150610ffa82610f93565b604082019050919050565b6000602082019050818103600083015261101e81610fe2565b9050919050565b60008190508160005260206000209050919050565b60006020601f8301049050919050565b600082821b905092915050565b6000600883026110877fffffffffffffffffffffffffffffffffffffffffffffffffffffffffffffffff8261104a565b611091868361104a565b95508019841693508086168417925050509392505050565b6000819050919050565b60006110ce6110c96110c484610965565b6110a9565b610965565b9050919050565b6000819050919050565b6110e8836110b3565b6110fc6110f4826110d5565b848454611057565b825550505050565b600090565b611111611104565b61111c8184846110df565b505050565b5b8181101561114057611135600082611109565b600181019050611122565b5050565b601f8211156111855761115681611025565b61115f8461103a565b8101602085101561116e578190505b61118261117a8561103a565b830182611121565b50505b505050565b600082821c905092915050565b60006111a86000198460080261118a565b1980831691505092915050565b60006111c18383611197565b9150826002028217905092915050565b6111da82610a06565b67ffffffffffffffff8111156111f3576111f2610bd8565b5b6111fd8254610f62565b611208828285611144565b600060209050601f83116001811461123b5760008415611229578287015190505b61123385826111b5565b86555061129b565b601f19841661124986611025565b60005b828110156112715784890151825560018201915060208501945060208101905061124c565b8683101561128e578489015161128a601f891682611197565b8355505b6001600288020188555050505b505050505050565b600060c08201905081810360008301526112bd8189610de9565b90506112cc6020830188610ba4565b6112d96040830187610ba4565b6112e66060830186610ba4565b6112f36080830185610ba4565b61130060a0830184610ba4565b97965050505050505056fea2646970667358221220e4b3dbbcebb982c3c366568975169c7d9957aa80fd2bda295a11cb74365546bc64736f6c634300081c0033",
  "linkReferences": {},
  "deployedLinkReferences": {}
}