{
  "_format": "hh-sol-artifact-1",
  "contractName": "VoterRegistration",
  "sourceName": "contracts/VoterRegistration.sol",
  "abi": [
    {
      "inputs": [],
      "stateMutability": "nonpayable",
      "type": "constructor"
    },
    {
      "anonymous": false,
      "inputs": [
        {
          "indexed": true,
          "internalType": "address",
          "name": "voterAddress",
          "type": "address"
        },
        {
          "indexed": false,
          "internalType": "string",
          "name": "nationalID",
          "type": "string"
        }
      ],
      "name": "VoterRegistered",
      "type": "event"
    },
    {
      "anonymous": false,
      "inputs": [
        {
          "indexed": true,
          "internalType": "address",
          "name": "voterAddress",
          "type": "address"
        },
        {
          "indexed": false,
          "internalType": "bool",
          "name": "hasVoted",
          "type": "bool"
        }
      ],
      "name": "VoterStatusUpdated",
      "type": "event"
    },
    {
      "inputs": [],
      "name": "electionCommission",
      "outputs": [
        {
          "internalType": "address",
          "name": "",
          "type": "address"
        }
      ],
      "stateMutability": "view",
      "type": "function"
    },
    {
      "inputs": [],
      "name": "getTotalVoters",
      "outputs": [
        {
          "internalType": "uint256",
          "name": "",
          "type": "uint256"
        }
      ],
      "stateMutability": "view",
      "type": "function"
    },
    {
      "inputs": [
        {
          "internalType": "address",
          "name": "_voterAddress",
          "type": "address"
        }
      ],
      "name": "getVoterNationalID",
      "outputs": [
        {
          "internalType": "string",
          "name": "",
          "type": "string"
        }
      ],
      "stateMutability": "view",
      "type": "function"
    },
    {
      "inputs": [
        {
          "internalType": "address",
          "name": "_voterAddress",
          "type": "address"
        }
      ],
      "name": "hasVoted",
      "outputs": [
        {
          "internalType": "bool",
          "name": "",
          "type": "bool"
        }
      ],
      "stateMutability": "view",
      "type": "function"
    },
    {
      "inputs": [
        {
          "internalType": "string",
          "name": "_nationalID",
          "type": "string"
        }
      ],
      "name": "isRegisteredNationalID",
      "outputs": [
        {
          "internalType": "bool",
          "name": "",
          "type": "bool"
        }
      ],
      "stateMutability": "view",
      "type": "function"
    },
    {
      "inputs": [
        {
          "internalType": "address",
          "name": "_voterAddress",
          "type": "address"
        }
      ],
      "name": "isRegisteredVoter",
      "outputs": [
        {
          "internalType": "bool",
          "name": "",
          "type": "bool"
        }
      ],
      "stateMutability": "view",
      "type": "function"
    },
    {
      "inputs": [
        {
          "internalType": "address",
          "name": "_voterAddress",
          "type": "address"
        }
      ],
      "name": "markVoted",
      "outputs": [],
      "stateMutability": "nonpayable",
      "type": "function"
    },
    {
      "inputs": [
        {
          "internalType": "string",
          "name": "",
          "type": "string"
        }
      ],
      "name": "nationalIDToAddress",
      "outputs": [
        {
          "internalType": "address",
          "name": "",
          "type": "address"
        }
      ],
      "stateMutability": "view",
      "type": "function"
    },
    {
      "inputs": [
        {
          "internalType": "address",
          "name": "_voterAddress",
          "type": "address"
        },
        {
          "internalType": "string",
          "name": "_nationalID",
          "type": "string"
        },
        {
          "internalType": "string",
          "name": "_name",
          "type": "string"
        }
      ],
      "name": "registerVoter",
      "outputs": [],
      "stateMutability": "nonpayable",
      "type": "function"
    },
    {
      "inputs": [
        {
          "internalType": "uint256",
          "name": "",
          "type": "uint256"
        }
      ],
      "name": "registeredVoterAddresses",
      "outputs": [
        {
          "internalType": "address",
          "name": "",
          "type": "address"
        }
      ],
      "stateMutability": "view",
      "type": "function"
    },
    {
      "inputs": [
        {
          "internalType": "string",
          "name": "_nationalID",
          "type": "string"
        },
        {
          "internalType": "string",
          "name": "_name",
          "type": "string"
        }
      ],
      "name": "selfRegister",
      "outputs": [],
      "stateMutability": "nonpayable",
      "type": "function"
    },
    {
      "inputs": [],
      "name": "voterCount",
      "outputs": [
        {
          "internalType": "uint256",
          "name": "",
          "type": "uint256"
        }
      ],
      "stateMutability": "view",
      "type": "function"
    },
    {
      "inputs": [
        {
          "internalType": "address",
          "name": "",
          "type": "address"
        }
      ],
      "name": "voters",
      "outputs": [
        {
          "internalType": "bool",
          "name": "isRegistered",
          "type": "bool"
        },
        {
          "internalType": "bool",
          "name": "hasVoted",
          "type": "bool"
        },
        {
          "internalType": "string",
          "name": "nationalID",
          "type": "string"
        },
        {
          "internalType": "string",
          "name": "name",
          "type": "string"
        }
      ],
      "stateMutability": "view",
      "type": "function"
    }
  ],
  "bytecode": "0x6080604052348015600f57600080fd5b50336000806101000a81548173ffffffffffffffffffffffffffffffffffffffff021916908373ffffffffffffffffffffffffffffffffffffffff1602179055506000600481905550611c98806100676000396000f3fe608060405234801561001057600080fd5b50600436106100cf5760003560e01c8063a3ec138d1161008c578063aab46b7f11610066578063aab46b7f1461023b578063b0c85c0314610259578063bb8fab8e14610289578063da36cffe146102a5576100cf565b8063a3ec138d146101bc578063a873bb00146101ef578063a8fd0cfa1461021f576100cf565b806309eef43e146100d45780631ba9de5e1461010457806333f04dcf1461012057806342169e481461015057806355c7a3581461016e578063793cf2181461019e575b600080fd5b6100ee60048036038101906100e9919061116c565b6102d5565b6040516100fb91906111b4565b60405180910390f35b61011e60048036038101906101199190611315565b61032e565b005b61013a6004803603810190610135919061116c565b6106b2565b604051610147919061140c565b60405180910390f35b610158610815565b6040516101659190611447565b60405180910390f35b61018860048036038101906101839190611462565b61081b565b60405161019591906114ba565b60405180910390f35b6101a6610864565b6040516101b39190611447565b60405180910390f35b6101d660048036038101906101d1919061116c565b61086e565b6040516101e694939291906114d5565b60405180910390f35b61020960048036038101906102049190611554565b6109c8565b60405161021691906114ba565b60405180910390f35b6102396004803603810190610234919061116c565b610a07565b005b610243610bd2565b60405161025091906114ba565b60405180910390f35b610273600480360381019061026e9190611462565b610bf6565b60405161028091906111b4565b60405180910390f35b6102a3600480360381019061029e9190611581565b610c6d565b005b6102bf60048036038101906102ba919061116c565b611080565b6040516102cc91906111b4565b60405180910390f35b6000600160008373ffffffffffffffffffffffffffffffffffffffff1673ffffffffffffffffffffffffffffffffffffffff16815260200190815260200160002060000160019054906101000a900460ff169050919050565b600160003373ffffffffffffffffffffffffffffffffffffffff1673ffffffffffffffffffffffffffffffffffffffff16815260200190815260200160002060000160009054906101000a900460ff16156103be576040517f08c379a00000000000000000000000000000000000000000000000000000000081526004016103b590611658565b60405180910390fd5b6103c7826110d9565b610406576040517f08c379a00000000000000000000000000000000000000000000000000000000081526004016103fd906116c4565b60405180910390fd5b600073ffffffffffffffffffffffffffffffffffffffff1660028360405161042e9190611720565b908152602001604051809103902060009054906101000a900473ffffffffffffffffffffffffffffffffffffffff1673ffffffffffffffffffffffffffffffffffffffff16146104b3576040517f08c379a00000000000000000000000000000000000000000000000000000000081526004016104aa90611783565b60405180910390fd5b600460008154809291906104c6906117d2565b9190505550604051806080016040528060011515815260200160001515815260200183815260200182815250600160003373ffffffffffffffffffffffffffffffffffffffff1673ffffffffffffffffffffffffffffffffffffffff16815260200190815260200160002060008201518160000160006101000a81548160ff02191690831515021790555060208201518160000160016101000a81548160ff02191690831515021790555060408201518160010190816105869190611a26565b50606082015181600201908161059c9190611a26565b50905050336002836040516105b19190611720565b908152602001604051809103902060006101000a81548173ffffffffffffffffffffffffffffffffffffffff021916908373ffffffffffffffffffffffffffffffffffffffff1602179055506003339080600181540180825580915050600190039060005260206000200160009091909190916101000a81548173ffffffffffffffffffffffffffffffffffffffff021916908373ffffffffffffffffffffffffffffffffffffffff1602179055503373ffffffffffffffffffffffffffffffffffffffff167fffeb7702be7dcd8fee170d954b70afb9a7c78f7f5cff232d037e7b9d8243356a836040516106a6919061140c565b60405180910390a25050565b6060600160008373ffffffffffffffffffffffffffffffffffffffff1673ffffffffffffffffffffffffffffffffffffffff16815260200190815260200160002060000160009054906101000a900460ff16610743576040517f08c379a000000000000000000000000000000000000000000000000000000000815260040161073a90611b44565b60405180910390fd5b600160008373ffffffffffffffffffffffffffffffffffffffff1673ffffffffffffffffffffffffffffffffffffffff168152602001908152602001600020600101805461079090611849565b80601f01602080910402602001604051908101604052809291908181526020018280546107bc90611849565b80156108095780601f106107de57610100808354040283529160200191610809565b820191906000526020600020905b8154815290600101906020018083116107ec57829003601f168201915b50505050509050919050565b60045481565b6002818051602081018201805184825260208301602085012081835280955050505050506000915054906101000a900473ffffffffffffffffffffffffffffffffffffffff1681565b6000600454905090565b60016020528060005260406000206000915090508060000160009054906101000a900460ff16908060000160019054906101000a900460ff16908060010180546108b790611849565b80601f01602080910402602001604051908101604052809291908181526020018280546108e390611849565b80156109305780601f1061090557610100808354040283529160200191610930565b820191906000526020600020905b81548152906001019060200180831161091357829003601f168201915b50505050509080600201805461094590611849565b80601f016020809104026020016040519081016040528092919081815260200182805461097190611849565b80156109be5780601f10610993576101008083540402835291602001916109be565b820191906000526020600020905b8154815290600101906020018083116109a157829003601f168201915b5050505050905084565b600381815481106109d857600080fd5b906000526020600020016000915054906101000a900473ffffffffffffffffffffffffffffffffffffffff1681565b600160008273ffffffffffffffffffffffffffffffffffffffff1673ffffffffffffffffffffffffffffffffffffffff16815260200190815260200160002060000160009054906101000a900460ff16610a96576040517f08c379a0000000000000000000000000000000000000000000000000000000008152600401610a8d90611b44565b60405180910390fd5b600160008273ffffffffffffffffffffffffffffffffffffffff1673ffffffffffffffffffffffffffffffffffffffff16815260200190815260200160002060000160019054906101000a900460ff1615610b26576040517f08c379a0000000000000000000000000000000000000000000000000000000008152600401610b1d90611bb0565b60405180910390fd5b60018060008373ffffffffffffffffffffffffffffffffffffffff1673ffffffffffffffffffffffffffffffffffffffff16815260200190815260200160002060000160016101000a81548160ff0219169083151502179055508073ffffffffffffffffffffffffffffffffffffffff167f930092ace8157b2101bc333d8c3951d9a4cf5cb98ec4890e25b6b5ae155f080b6001604051610bc791906111b4565b60405180910390a250565b60008054906101000a900473ffffffffffffffffffffffffffffffffffffffff1681565b60008073ffffffffffffffffffffffffffffffffffffffff16600283604051610c1f9190611720565b908152602001604051809103902060009054906101000a900473ffffffffffffffffffffffffffffffffffffffff1673ffffffffffffffffffffffffffffffffffffffff1614159050919050565b60008054906101000a900473ffffffffffffffffffffffffffffffffffffffff1673ffffffffffffffffffffffffffffffffffffffff163373ffffffffffffffffffffffffffffffffffffffff1614610cfb576040517f08c379a0000000000000000000000000000000000000000000000000000000008152600401610cf290611c42565b60405180910390fd5b600160008473ffffffffffffffffffffffffffffffffffffffff1673ffffffffffffffffffffffffffffffffffffffff16815260200190815260200160002060000160009054906101000a900460ff1615610d8b576040517f08c379a0000000000000000000000000000000000000000000000000000000008152600401610d8290611658565b60405180910390fd5b610d94826110d9565b610dd3576040517f08c379a0000000000000000000000000000000000000000000000000000000008152600401610dca906116c4565b60405180910390fd5b600073ffffffffffffffffffffffffffffffffffffffff16600283604051610dfb9190611720565b908152602001604051809103902060009054906101000a900473ffffffffffffffffffffffffffffffffffffffff1673ffffffffffffffffffffffffffffffffffffffff1614610e80576040517f08c379a0000000000000000000000000000000000000000000000000000000008152600401610e7790611783565b60405180910390fd5b60046000815480929190610e93906117d2565b9190505550604051806080016040528060011515815260200160001515815260200183815260200182815250600160008573ffffffffffffffffffffffffffffffffffffffff1673ffffffffffffffffffffffffffffffffffffffff16815260200190815260200160002060008201518160000160006101000a81548160ff02191690831515021790555060208201518160000160016101000a81548160ff0219169083151502179055506040820151816001019081610f539190611a26565b506060820151816002019081610f699190611a26565b5090505082600283604051610f7e9190611720565b908152602001604051809103902060006101000a81548173ffffffffffffffffffffffffffffffffffffffff021916908373ffffffffffffffffffffffffffffffffffffffff1602179055506003839080600181540180825580915050600190039060005260206000200160009091909190916101000a81548173ffffffffffffffffffffffffffffffffffffffff021916908373ffffffffffffffffffffffffffffffffffffffff1602179055508273ffffffffffffffffffffffffffffffffffffffff167fffeb7702be7dcd8fee170d954b70afb9a7c78f7f5cff232d037e7b9d8243356a83604051611073919061140c565b60405180910390a2505050565b6000600160008373ffffffffffffffffffffffffffffffffffffffff1673ffffffffffffffffffffffffffffffffffffffff16815260200190815260200160002060000160009054906101000a900460ff169050919050565b600080829050600081511180156110f257506014815111155b915050919050565b6000604051905090565b600080fd5b600080fd5b600073ffffffffffffffffffffffffffffffffffffffff82169050919050565b60006111398261110e565b9050919050565b6111498161112e565b811461115457600080fd5b50565b60008135905061116681611140565b92915050565b60006020828403121561118257611181611104565b5b600061119084828501611157565b91505092915050565b60008115159050919050565b6111ae81611199565b82525050565b60006020820190506111c960008301846111a5565b92915050565b600080fd5b600080fd5b6000601f19601f8301169050919050565b7f4e487b7100000000000000000000000000000000000000000000000000000000600052604160045260246000fd5b611222826111d9565b810181811067ffffffffffffffff82111715611241576112406111ea565b5b80604052505050565b60006112546110fa565b90506112608282611219565b919050565b600067ffffffffffffffff8211156112805761127f6111ea565b5b611289826111d9565b9050602081019050919050565b82818337600083830152505050565b60006112b86112b384611265565b61124a565b9050828152602081018484840111156112d4576112d36111d4565b5b6112df848285611296565b509392505050565b600082601f8301126112fc576112fb6111cf565b5b813561130c8482602086016112a5565b91505092915050565b6000806040838503121561132c5761132b611104565b5b600083013567ffffffffffffffff81111561134a57611349611109565b5b611356858286016112e7565b925050602083013567ffffffffffffffff81111561137757611376611109565b5b611383858286016112e7565b9150509250929050565b600081519050919050565b600082825260208201905092915050565b60005b838110156113c75780820151818401526020810190506113ac565b60008484015250505050565b60006113de8261138d565b6113e88185611398565b93506113f88185602086016113a9565b611401816111d9565b840191505092915050565b6000602082019050818103600083015261142681846113d3565b905092915050565b6000819050919050565b6114418161142e565b82525050565b600060208201905061145c6000830184611438565b92915050565b60006020828403121561147857611477611104565b5b600082013567ffffffffffffffff81111561149657611495611109565b5b6114a2848285016112e7565b91505092915050565b6114b48161112e565b82525050565b60006020820190506114cf60008301846114ab565b92915050565b60006080820190506114ea60008301876111a5565b6114f760208301866111a5565b818103604083015261150981856113d3565b9050818103606083015261151d81846113d3565b905095945050505050565b6115318161142e565b811461153c57600080fd5b50565b60008135905061154e81611528565b92915050565b60006020828403121561156a57611569611104565b5b60006115788482850161153f565b91505092915050565b60008060006060848603121561159a57611599611104565b5b60006115a886828701611157565b935050602084013567ffffffffffffffff8111156115c9576115c8611109565b5b6115d5868287016112e7565b925050604084013567ffffffffffffffff8111156115f6576115f5611109565b5b611602868287016112e7565b9150509250925092565b7f566f74657220616c726561647920726567697374657265640000000000000000600082015250565b6000611642601883611398565b915061164d8261160c565b602082019050919050565b6000602082019050818103600083015261167181611635565b9050919050565b7f496e76616c6964206e6174696f6e616c20494420666f726d6174000000000000600082015250565b60006116ae601a83611398565b91506116b982611678565b602082019050919050565b600060208201905081810360008301526116dd816116a1565b9050919050565b600081905092915050565b60006116fa8261138d565b61170481856116e4565b93506117148185602086016113a9565b80840191505092915050565b600061172c82846116ef565b915081905092915050565b7f4e6174696f6e616c20494420616c726561647920726567697374657265640000600082015250565b600061176d601e83611398565b915061177882611737565b602082019050919050565b6000602082019050818103600083015261179c81611760565b9050919050565b7f4e487b7100000000000000000000000000000000000000000000000000000000600052601160045260246000fd5b60006117dd8261142e565b91507fffffffffffffffffffffffffffffffffffffffffffffffffffffffffffffffff820361180f5761180e6117a3565b5b600182019050919050565b7f4e487b7100000000000000000000000000000000000000000000000000000000600052602260045260246000fd5b6000600282049050600182168061186157607f821691505b6020821081036118745761187361181a565b5b50919050565b60008190508160005260206000209050919050565b60006020601f8301049050919050565b600082821b905092915050565b6000600883026118dc7fffffffffffffffffffffffffffffffffffffffffffffffffffffffffffffffff8261189f565b6118e6868361189f565b95508019841693508086168417925050509392505050565b6000819050919050565b600061192361191e6119198461142e565b6118fe565b61142e565b9050919050565b6000819050919050565b61193d83611908565b6119516119498261192a565b8484546118ac565b825550505050565b600090565b611966611959565b611971818484611934565b505050565b5b818110156119955761198a60008261195e565b600181019050611977565b5050565b601f8211156119da576119ab8161187a565b6119b48461188f565b810160208510156119c3578190505b6119d76119cf8561188f565b830182611976565b50505b505050565b600082821c905092915050565b60006119fd600019846008026119df565b1980831691505092915050565b6000611a1683836119ec565b9150826002028217905092915050565b611a2f8261138d565b67ffffffffffffffff811115611a4857611a476111ea565b5b611a528254611849565b611a5d828285611999565b600060209050601f831160018114611a905760008415611a7e578287015190505b611a888582611a0a565b865550611af0565b601f198416611a9e8661187a565b60005b82811015611ac657848901518255600182019150602085019450602081019050611aa1565b86831015611ae35784890151611adf601f8916826119ec565b8355505b6001600288020188555050505b505050505050565b7f566f746572206e6f742072656769737465726564000000000000000000000000600082015250565b6000611b2e601483611398565b9150611b3982611af8565b602082019050919050565b60006020820190508181036000830152611b5d81611b21565b9050919050565b7f566f74657220616c726561647920766f74656400000000000000000000000000600082015250565b6000611b9a601383611398565b9150611ba582611b64565b602082019050919050565b60006020820190508181036000830152611bc981611b8d565b9050919050565b7f4f6e6c7920656c656374696f6e20636f6d6d697373696f6e2063616e2070657260008201527f666f726d207468697320616374696f6e00000000000000000000000000000000602082015250565b6000611c2c603083611398565b9150611c3782611bd0565b604082019050919050565b60006020820190508181036000830152611c5b81611c1f565b905091905056fea2646970667358221220f00484cdafdca3059ddc7a272eb164e4a49098f4c72e8d68e2a9c8ef0713ef1964736f6c634300081c0033",
  "linkReferences": {},
  "deployedLinkReferences": {}
}