{
  "_format": "hh-sol-artifact-1",
  "contractName": "Voting",
  "sourceName": "contracts/Voting.sol",
  "abi": [
    {
      "inputs": [
        {
          "internalType": "address",
          "name": "_voterContractAddress",
          "type": "address"
        },
        {
          "internalType": "address",
          "name": "_candidateContractAddress",
          "type": "address"
        },
        {
          "internalType": "string",
          "name": "_electionName",
          "type": "string"
        }
      ],
      "stateMutability": "nonpayable",
      "type": "constructor"
    },
    {
      "anonymous": false,
      "inputs": [
        {
          "indexed": false,
          "internalType": "enum Voting.ElectionState",
          "name": "newState",
          "type": "uint8"
        }
      ],
      "name": "ElectionStateChanged",
      "type": "event"
    },
    {
      "anonymous": false,
      "inputs": [
        {
          "indexed": false,
          "internalType": "address",
          "name": "verificationContract",
          "type": "address"
        }
      ],
      "name": "VerificationContractSet",
      "type": "event"
    },
    {
      "anonymous": false,
      "inputs": [
        {
          "indexed": true,
          "internalType": "address",
          "name": "voter",
          "type": "address"
        },
        {
          "indexed": true,
          "internalType": "uint256",
          "name": "candidateID",
          "type": "uint256"
        },
        {
          "indexed": false,
          "internalType": "string",
          "name": "voterNationalID",
          "type": "string"
        }
      ],
      "name": "VoteCast",
      "type": "event"
    },
    {
      "inputs": [],
      "name": "candidateContract",
      "outputs": [
        {
          "internalType": "contract CandidateRegistration",
          "name": "",
          "type": "address"
        }
      ],
      "stateMutability": "view",
      "type": "function"
    },
    {
      "inputs": [
        {
          "internalType": "uint256",
          "name": "_candidateID",
          "type": "uint256"
        }
      ],
      "name": "castVote",
      "outputs": [],
      "stateMutability": "nonpayable",
      "type": "function"
    },
    {
      "inputs": [
        {
          "internalType": "string",
          "name": "_nationalID",
          "type": "string"
        },
        {
          "internalType": "uint256",
          "name": "_candidateID",
          "type": "uint256"
        }
      ],
      "name": "castVoteByNationalID",
      "outputs": [],
      "stateMutability": "nonpayable",
      "type": "function"
    },
    {
      "inputs": [],
      "name": "electionCommission",
      "outputs": [
        {
          "internalType": "address",
          "name": "",
          "type": "address"
        }
      ],
      "stateMutability": "view",
      "type": "function"
    },
    {
      "inputs": [],
      "name": "electionName",
      "outputs": [
        {
          "internalType": "string",
          "name": "",
          "type": "string"
        }
      ],
      "stateMutability": "view",
      "type": "function"
    },
    {
      "inputs": [],
      "name": "endElection",
      "outputs": [],
      "stateMutability": "nonpayable",
      "type": "function"
    },
    {
      "inputs": [],
      "name": "endTime",
      "outputs": [
        {
          "internalType": "uint256",
          "name": "",
          "type": "uint256"
        }
      ],
      "stateMutability": "view",
      "type": "function"
    },
    {
      "inputs": [],
      "name": "getRemainingTime",
      "outputs": [
        {
          "internalType": "uint256",
          "name": "",
          "type": "uint256"
        }
      ],
      "stateMutability": "view",
      "type": "function"
    },
    {
      "inputs": [
        {
          "internalType": "string",
          "name": "_nationalID",
          "type": "string"
        }
      ],
      "name": "getVoteByNationalID",
      "outputs": [
        {
          "internalType": "uint256",
          "name": "",
          "type": "uint256"
        }
      ],
      "stateMutability": "view",
      "type": "function"
    },
    {
      "inputs": [
        {
          "internalType": "uint256",
          "name": "_candidateID",
          "type": "uint256"
        }
      ],
      "name": "getVoteCount",
      "outputs": [
        {
          "internalType": "uint256",
          "name": "",
          "type": "uint256"
        }
      ],
      "stateMutability": "view",
      "type": "function"
    },
    {
      "inputs": [
        {
          "internalType": "address",
          "name": "_verificationContract",
          "type": "address"
        }
      ],
      "name": "setVerificationContract",
      "outputs": [],
      "stateMutability": "nonpayable",
      "type": "function"
    },
    {
      "inputs": [],
      "name": "startRegistration",
      "outputs": [],
      "stateMutability": "nonpayable",
      "type": "function"
    },
    {
      "inputs": [],
      "name": "startTime",
      "outputs": [
        {
          "internalType": "uint256",
          "name": "",
          "type": "uint256"
        }
      ],
      "stateMutability": "view",
      "type": "function"
    },
    {
      "inputs": [
        {
          "internalType": "uint256",
          "name": "_durationInMinutes",
          "type": "uint256"
        }
      ],
      "name": "startVoting",
      "outputs": [],
      "stateMutability": "nonpayable",
      "type": "function"
    },
    {
      "inputs": [],
      "name": "state",
      "outputs": [
        {
          "internalType": "enum Voting.ElectionState",
          "name": "",
          "type": "uint8"
        }
      ],
      "stateMutability": "view",
      "type": "function"
    },
    {
      "inputs": [],
      "name": "verificationContract",
      "outputs": [
        {
          "internalType": "address",
          "name": "",
          "type": "address"
        }
      ],
      "stateMutability": "view",
      "type": "function"
    },
    {
      "inputs": [],
      "name": "voterContract",
      "outputs": [
        {
          "internalType": "contract VoterRegistration",
          "name": "",
          "type": "address"
        }
      ],
      "stateMutability": "view",
      "type": "function"
    },
    {
      "inputs": [
        {
          "internalType": "uint256",
          "name": "",
          "type": "uint256"
        }
      ],
      "name": "votesReceived",
      "outputs": [
        {
          "internalType": "uint256",
          "name": "",
          "type": "uint256"
        }
      ],
      "stateMutability": "view",
      "type": "function"
    }
  ],
  "bytecode": "0x608060405234801561001057600080fd5b50604051612b1b380380612b1b8339818101604052810190610032919061030a565b336000806101000a81548173ffffffffffffffffffffffffffffffffffffffff021916908373ffffffffffffffffffffffffffffffffffffffff16021790555082600160006101000a81548173ffffffffffffffffffffffffffffffffffffffff021916908373ffffffffffffffffffffffffffffffffffffffff16021790555081600260006101000a81548173ffffffffffffffffffffffffffffffffffffffff021916908373ffffffffffffffffffffffffffffffffffffffff1602179055508060049081610103919061059a565b506000600360146101000a81548160ff0219169083600381111561012a5761012961066c565b5b021790555050505061069b565b6000604051905090565b600080fd5b600080fd5b600073ffffffffffffffffffffffffffffffffffffffff82169050919050565b60006101768261014b565b9050919050565b6101868161016b565b811461019157600080fd5b50565b6000815190506101a38161017d565b92915050565b600080fd5b600080fd5b6000601f19601f8301169050919050565b7f4e487b7100000000000000000000000000000000000000000000000000000000600052604160045260246000fd5b6101fc826101b3565b810181811067ffffffffffffffff8211171561021b5761021a6101c4565b5b80604052505050565b600061022e610137565b905061023a82826101f3565b919050565b600067ffffffffffffffff82111561025a576102596101c4565b5b610263826101b3565b9050602081019050919050565b60005b8381101561028e578082015181840152602081019050610273565b60008484015250505050565b60006102ad6102a88461023f565b610224565b9050828152602081018484840111156102c9576102c86101ae565b5b6102d4848285610270565b509392505050565b600082601f8301126102f1576102f06101a9565b5b815161030184826020860161029a565b91505092915050565b60008060006060848603121561032357610322610141565b5b600061033186828701610194565b935050602061034286828701610194565b925050604084015167ffffffffffffffff81111561036357610362610146565b5b61036f868287016102dc565b9150509250925092565b600081519050919050565b7f4e487b7100000000000000000000000000000000000000000000000000000000600052602260045260246000fd5b600060028204905060018216806103cb57607f821691505b6020821081036103de576103dd610384565b5b50919050565b60008190508160005260206000209050919050565b60006020601f8301049050919050565b600082821b905092915050565b6000600883026104467fffffffffffffffffffffffffffffffffffffffffffffffffffffffffffffffff82610409565b6104508683610409565b95508019841693508086168417925050509392505050565b6000819050919050565b6000819050919050565b600061049761049261048d84610468565b610472565b610468565b9050919050565b6000819050919050565b6104b18361047c565b6104c56104bd8261049e565b848454610416565b825550505050565b600090565b6104da6104cd565b6104e58184846104a8565b505050565b5b81811015610509576104fe6000826104d2565b6001810190506104eb565b5050565b601f82111561054e5761051f816103e4565b610528846103f9565b81016020851015610537578190505b61054b610543856103f9565b8301826104ea565b50505b505050565b600082821c905092915050565b600061057160001984600802610553565b1980831691505092915050565b600061058a8383610560565b9150826002028217905092915050565b6105a382610379565b67ffffffffffffffff8111156105bc576105bb6101c4565b5b6105c682546103b3565b6105d182828561050d565b600060209050601f83116001811461060457600084156105f2578287015190505b6105fc858261057e565b865550610664565b601f198416610612866103e4565b60005b8281101561063a57848901518255600182019150602085019450602081019050610615565b868310156106575784890151610653601f891682610560565b8355505b6001600288020188555050505b505050505050565b7f4e487b7100000000000000000000000000000000000000000000000000000000600052602160045260246000fd5b612471806106aa6000396000f3fe608060405234801561001057600080fd5b50600436106101165760003560e01c806385e8e7a7116100a2578063c19d93fb11610071578063c19d93fb14610297578063e6610bc8146102b5578063efb98bcf146102d3578063f3084a63146102f1578063fb48d6be1461032157610116565b806385e8e7a71461020d578063aab46b7f1461022b578063b2c2f2e814610249578063b4a3a1621461027957610116565b806359f78468116100e957806359f784681461017b5780635c31bcd514610185578063743cabe6146101a157806378e97925146101d15780637e222661146101ef57610116565b806310b866951461011b5780633197cbb6146101255780633d2f5bda146101435780633eb76b9c1461015f575b600080fd5b61012361033d565b005b61012d6104a8565b60405161013a919061176c565b60405180910390f35b61015d600480360381019061015891906117c7565b6104ae565b005b610179600480360381019061017491906117c7565b610641565b005b610183610b61565b005b61019f600480360381019061019a919061193a565b610d10565b005b6101bb60048036038101906101b69190611996565b61124e565b6040516101c8919061176c565b60405180910390f35b6101d961135d565b6040516101e6919061176c565b60405180910390f35b6101f7611363565b6040516102049190611a20565b60405180910390f35b610215611389565b6040516102229190611aba565b60405180910390f35b610233611417565b6040516102409190611a20565b60405180910390f35b610263600480360381019061025e91906117c7565b61143b565b604051610270919061176c565b60405180910390f35b610281611533565b60405161028e9190611b3b565b60405180910390f35b61029f611559565b6040516102ac9190611bcd565b60405180910390f35b6102bd61156c565b6040516102ca9190611c09565b60405180910390f35b6102db611592565b6040516102e8919061176c565b60405180910390f35b61030b600480360381019061030691906117c7565b611632565b604051610318919061176c565b60405180910390f35b61033b60048036038101906103369190611c50565b61164a565b005b60008054906101000a900473ffffffffffffffffffffffffffffffffffffffff1673ffffffffffffffffffffffffffffffffffffffff163373ffffffffffffffffffffffffffffffffffffffff16146103cb576040517f08c379a00000000000000000000000000000000000000000000000000000000081526004016103c290611cef565b60405180910390fd5b60008060038111156103e0576103df611b56565b5b600360149054906101000a900460ff16600381111561040257610401611b56565b5b14610442576040517f08c379a000000000000000000000000000000000000000000000000000000000815260040161043990611d81565b60405180910390fd5b6001600360146101000a81548160ff0219169083600381111561046857610467611b56565b5b02179055507f82aa0cc22cbb103bd5f28a40c65b9e63f2df333bbb70c6c9128eb83d7cb1041d600160405161049d9190611bcd565b60405180910390a150565b60065481565b60008054906101000a900473ffffffffffffffffffffffffffffffffffffffff1673ffffffffffffffffffffffffffffffffffffffff163373ffffffffffffffffffffffffffffffffffffffff161461053c576040517f08c379a000000000000000000000000000000000000000000000000000000000815260040161053390611cef565b60405180910390fd5b600180600381111561055157610550611b56565b5b600360149054906101000a900460ff16600381111561057357610572611b56565b5b146105b3576040517f08c379a00000000000000000000000000000000000000000000000000000000081526004016105aa90611d81565b60405180910390fd5b6002600360146101000a81548160ff021916908360038111156105d9576105d8611b56565b5b021790555042600581905550603c826105f29190611dd0565b6005546105ff9190611e12565b6006819055507f82aa0cc22cbb103bd5f28a40c65b9e63f2df333bbb70c6c9128eb83d7cb1041d60026040516106359190611bcd565b60405180910390a15050565b600280600381111561065657610655611b56565b5b600360149054906101000a900460ff16600381111561067857610677611b56565b5b146106b8576040517f08c379a00000000000000000000000000000000000000000000000000000000081526004016106af90611d81565b60405180910390fd5b6006544211156106fd576040517f08c379a00000000000000000000000000000000000000000000000000000000081526004016106f490611e92565b60405180910390fd5b600160009054906101000a900473ffffffffffffffffffffffffffffffffffffffff1673ffffffffffffffffffffffffffffffffffffffff1663da36cffe336040518263ffffffff1660e01b81526004016107589190611a20565b602060405180830381865afa158015610775573d6000803e3d6000fd5b505050506040513d601f19601f820116820180604052508101906107999190611eea565b6107d8576040517f08c379a00000000000000000000000000000000000000000000000000000000081526004016107cf90611f63565b60405180910390fd5b600160009054906101000a900473ffffffffffffffffffffffffffffffffffffffff1673ffffffffffffffffffffffffffffffffffffffff166309eef43e336040518263ffffffff1660e01b81526004016108339190611a20565b602060405180830381865afa158015610850573d6000803e3d6000fd5b505050506040513d601f19601f820116820180604052508101906108749190611eea565b156108b4576040517f08c379a00000000000000000000000000000000000000000000000000000000081526004016108ab90611fcf565b60405180910390fd5b600260009054906101000a900473ffffffffffffffffffffffffffffffffffffffff1673ffffffffffffffffffffffffffffffffffffffff1663bf98db68836040518263ffffffff1660e01b815260040161090f919061176c565b602060405180830381865afa15801561092c573d6000803e3d6000fd5b505050506040513d601f19601f820116820180604052508101906109509190611eea565b61098f576040517f08c379a00000000000000000000000000000000000000000000000000000000081526004016109869061203b565b60405180910390fd5b6000600160009054906101000a900473ffffffffffffffffffffffffffffffffffffffff1673ffffffffffffffffffffffffffffffffffffffff166333f04dcf336040518263ffffffff1660e01b81526004016109ec9190611a20565b600060405180830381865afa158015610a09573d6000803e3d6000fd5b505050506040513d6000823e3d601f19601f82011682018060405250810190610a3291906120cb565b9050600760008481526020019081526020016000206000815480929190610a5890612114565b919050555082600882604051610a6e9190612198565b908152602001604051809103902081905550600160009054906101000a900473ffffffffffffffffffffffffffffffffffffffff1673ffffffffffffffffffffffffffffffffffffffff1663a8fd0cfa336040518263ffffffff1660e01b8152600401610adb9190611a20565b600060405180830381600087803b158015610af557600080fd5b505af1158015610b09573d6000803e3d6000fd5b50505050823373ffffffffffffffffffffffffffffffffffffffff167f41aeb55eef25a94e94aeac300a628610ffa8099eb2bf991b3ae640d42233467d83604051610b549190611aba565b60405180910390a3505050565b60008054906101000a900473ffffffffffffffffffffffffffffffffffffffff1673ffffffffffffffffffffffffffffffffffffffff163373ffffffffffffffffffffffffffffffffffffffff1614610bef576040517f08c379a0000000000000000000000000000000000000000000000000000000008152600401610be690611cef565b60405180910390fd5b6002806003811115610c0457610c03611b56565b5b600360149054906101000a900460ff166003811115610c2657610c25611b56565b5b14610c66576040517f08c379a0000000000000000000000000000000000000000000000000000000008152600401610c5d90611d81565b60405180910390fd5b600654421015610cab576040517f08c379a0000000000000000000000000000000000000000000000000000000008152600401610ca2906121fb565b60405180910390fd5b60038060146101000a81548160ff02191690836003811115610cd057610ccf611b56565b5b02179055507f82aa0cc22cbb103bd5f28a40c65b9e63f2df333bbb70c6c9128eb83d7cb1041d6003604051610d059190611bcd565b60405180910390a150565b60008054906101000a900473ffffffffffffffffffffffffffffffffffffffff1673ffffffffffffffffffffffffffffffffffffffff163373ffffffffffffffffffffffffffffffffffffffff1614610d9e576040517f08c379a0000000000000000000000000000000000000000000000000000000008152600401610d9590611cef565b60405180910390fd5b6002806003811115610db357610db2611b56565b5b600360149054906101000a900460ff166003811115610dd557610dd4611b56565b5b14610e15576040517f08c379a0000000000000000000000000000000000000000000000000000000008152600401610e0c90611d81565b60405180910390fd5b600654421115610e5a576040517f08c379a0000000000000000000000000000000000000000000000000000000008152600401610e5190611e92565b60405180910390fd5b6000600160009054906101000a900473ffffffffffffffffffffffffffffffffffffffff1673ffffffffffffffffffffffffffffffffffffffff166355c7a358856040518263ffffffff1660e01b8152600401610eb79190611aba565b602060405180830381865afa158015610ed4573d6000803e3d6000fd5b505050506040513d601f19601f82011682018060405250810190610ef89190612230565b9050600073ffffffffffffffffffffffffffffffffffffffff168173ffffffffffffffffffffffffffffffffffffffff1603610f69576040517f08c379a0000000000000000000000000000000000000000000000000000000008152600401610f60906122cf565b60405180910390fd5b600160009054906101000a900473ffffffffffffffffffffffffffffffffffffffff1673ffffffffffffffffffffffffffffffffffffffff166309eef43e826040518263ffffffff1660e01b8152600401610fc49190611a20565b602060405180830381865afa158015610fe1573d6000803e3d6000fd5b505050506040513d601f19601f820116820180604052508101906110059190611eea565b15611045576040517f08c379a000000000000000000000000000000000000000000000000000000000815260040161103c90611fcf565b60405180910390fd5b600260009054906101000a900473ffffffffffffffffffffffffffffffffffffffff1673ffffffffffffffffffffffffffffffffffffffff1663bf98db68846040518263ffffffff1660e01b81526004016110a0919061176c565b602060405180830381865afa1580156110bd573d6000803e3d6000fd5b505050506040513d601f19601f820116820180604052508101906110e19190611eea565b611120576040517f08c379a00000000000000000000000000000000000000000000000000000000081526004016111179061203b565b60405180910390fd5b60076000848152602001908152602001600020600081548092919061114490612114565b91905055508260088560405161115a9190612198565b908152602001604051809103902081905550600160009054906101000a900473ffffffffffffffffffffffffffffffffffffffff1673ffffffffffffffffffffffffffffffffffffffff1663a8fd0cfa826040518263ffffffff1660e01b81526004016111c79190611a20565b600060405180830381600087803b1580156111e157600080fd5b505af11580156111f5573d6000803e3d6000fd5b50505050828173ffffffffffffffffffffffffffffffffffffffff167f41aeb55eef25a94e94aeac300a628610ffa8099eb2bf991b3ae640d42233467d866040516112409190611aba565b60405180910390a350505050565b60008060009054906101000a900473ffffffffffffffffffffffffffffffffffffffff1673ffffffffffffffffffffffffffffffffffffffff163373ffffffffffffffffffffffffffffffffffffffff1614806112f85750600360009054906101000a900473ffffffffffffffffffffffffffffffffffffffff1673ffffffffffffffffffffffffffffffffffffffff163373ffffffffffffffffffffffffffffffffffffffff16145b611337576040517f08c379a000000000000000000000000000000000000000000000000000000000815260040161132e90612387565b60405180910390fd5b6008826040516113479190612198565b9081526020016040518091039020549050919050565b60055481565b600360009054906101000a900473ffffffffffffffffffffffffffffffffffffffff1681565b60048054611396906123d6565b80601f01602080910402602001604051908101604052809291908181526020018280546113c2906123d6565b801561140f5780601f106113e45761010080835404028352916020019161140f565b820191906000526020600020905b8154815290600101906020018083116113f257829003601f168201915b505050505081565b60008054906101000a900473ffffffffffffffffffffffffffffffffffffffff1681565b6000600260009054906101000a900473ffffffffffffffffffffffffffffffffffffffff1673ffffffffffffffffffffffffffffffffffffffff1663bf98db68836040518263ffffffff1660e01b8152600401611498919061176c565b602060405180830381865afa1580156114b5573d6000803e3d6000fd5b505050506040513d601f19601f820116820180604052508101906114d99190611eea565b611518576040517f08c379a000000000000000000000000000000000000000000000000000000000815260040161150f9061203b565b60405180910390fd5b60076000838152602001908152602001600020549050919050565b600260009054906101000a900473ffffffffffffffffffffffffffffffffffffffff1681565b600360149054906101000a900460ff1681565b600160009054906101000a900473ffffffffffffffffffffffffffffffffffffffff1681565b600060028060038111156115a9576115a8611b56565b5b600360149054906101000a900460ff1660038111156115cb576115ca611b56565b5b1461160b576040517f08c379a000000000000000000000000000000000000000000000000000000000815260040161160290611d81565b60405180910390fd5b600654421061161d576000915061162e565b4260065461162b9190612407565b91505b5090565b60076020528060005260406000206000915090505481565b60008054906101000a900473ffffffffffffffffffffffffffffffffffffffff1673ffffffffffffffffffffffffffffffffffffffff163373ffffffffffffffffffffffffffffffffffffffff16146116d8576040517f08c379a00000000000000000000000000000000000000000000000000000000081526004016116cf90611cef565b60405180910390fd5b80600360006101000a81548173ffffffffffffffffffffffffffffffffffffffff021916908373ffffffffffffffffffffffffffffffffffffffff1602179055507fcf28f0596d765cb31a13e5edc200ab5b5b89ad072726fd214adf805a5bca9130816040516117489190611a20565b60405180910390a150565b6000819050919050565b61176681611753565b82525050565b6000602082019050611781600083018461175d565b92915050565b6000604051905090565b600080fd5b600080fd5b6117a481611753565b81146117af57600080fd5b50565b6000813590506117c18161179b565b92915050565b6000602082840312156117dd576117dc611791565b5b60006117eb848285016117b2565b91505092915050565b600080fd5b600080fd5b6000601f19601f8301169050919050565b7f4e487b7100000000000000000000000000000000000000000000000000000000600052604160045260246000fd5b611847826117fe565b810181811067ffffffffffffffff821117156118665761186561180f565b5b80604052505050565b6000611879611787565b9050611885828261183e565b919050565b600067ffffffffffffffff8211156118a5576118a461180f565b5b6118ae826117fe565b9050602081019050919050565b82818337600083830152505050565b60006118dd6118d88461188a565b61186f565b9050828152602081018484840111156118f9576118f86117f9565b5b6119048482856118bb565b509392505050565b600082601f830112611921576119206117f4565b5b81356119318482602086016118ca565b91505092915050565b6000806040838503121561195157611950611791565b5b600083013567ffffffffffffffff81111561196f5761196e611796565b5b61197b8582860161190c565b925050602061198c858286016117b2565b9150509250929050565b6000602082840312156119ac576119ab611791565b5b600082013567ffffffffffffffff8111156119ca576119c9611796565b5b6119d68482850161190c565b91505092915050565b600073ffffffffffffffffffffffffffffffffffffffff82169050919050565b6000611a0a826119df565b9050919050565b611a1a816119ff565b82525050565b6000602082019050611a356000830184611a11565b92915050565b600081519050919050565b600082825260208201905092915050565b60005b83811015611a75578082015181840152602081019050611a5a565b60008484015250505050565b6000611a8c82611a3b565b611a968185611a46565b9350611aa6818560208601611a57565b611aaf816117fe565b840191505092915050565b60006020820190508181036000830152611ad48184611a81565b905092915050565b6000819050919050565b6000611b01611afc611af7846119df565b611adc565b6119df565b9050919050565b6000611b1382611ae6565b9050919050565b6000611b2582611b08565b9050919050565b611b3581611b1a565b82525050565b6000602082019050611b506000830184611b2c565b92915050565b7f4e487b7100000000000000000000000000000000000000000000000000000000600052602160045260246000fd5b60048110611b9657611b95611b56565b5b50565b6000819050611ba782611b85565b919050565b6000611bb782611b99565b9050919050565b611bc781611bac565b82525050565b6000602082019050611be26000830184611bbe565b92915050565b6000611bf382611b08565b9050919050565b611c0381611be8565b82525050565b6000602082019050611c1e6000830184611bfa565b92915050565b611c2d816119ff565b8114611c3857600080fd5b50565b600081359050611c4a81611c24565b92915050565b600060208284031215611c6657611c65611791565b5b6000611c7484828501611c3b565b91505092915050565b7f4f6e6c7920656c656374696f6e20636f6d6d697373696f6e2063616e2070657260008201527f666f726d207468697320616374696f6e00000000000000000000000000000000602082015250565b6000611cd9603083611a46565b9150611ce482611c7d565b604082019050919050565b60006020820190508181036000830152611d0881611ccc565b9050919050565b7f496e76616c696420656c656374696f6e20737461746520666f7220746869732060008201527f616374696f6e0000000000000000000000000000000000000000000000000000602082015250565b6000611d6b602683611a46565b9150611d7682611d0f565b604082019050919050565b60006020820190508181036000830152611d9a81611d5e565b9050919050565b7f4e487b7100000000000000000000000000000000000000000000000000000000600052601160045260246000fd5b6000611ddb82611753565b9150611de683611753565b9250828202611df481611753565b91508282048414831517611e0b57611e0a611da1565b5b5092915050565b6000611e1d82611753565b9150611e2883611753565b9250828201905080821115611e4057611e3f611da1565b5b92915050565b7f566f74696e6720706572696f642068617320656e646564000000000000000000600082015250565b6000611e7c601783611a46565b9150611e8782611e46565b602082019050919050565b60006020820190508181036000830152611eab81611e6f565b9050919050565b60008115159050919050565b611ec781611eb2565b8114611ed257600080fd5b50565b600081519050611ee481611ebe565b92915050565b600060208284031215611f0057611eff611791565b5b6000611f0e84828501611ed5565b91505092915050565b7f566f746572206e6f742072656769737465726564000000000000000000000000600082015250565b6000611f4d601483611a46565b9150611f5882611f17565b602082019050919050565b60006020820190508181036000830152611f7c81611f40565b9050919050565b7f566f7465722068617320616c726561647920766f746564000000000000000000600082015250565b6000611fb9601783611a46565b9150611fc482611f83565b602082019050919050565b60006020820190508181036000830152611fe881611fac565b9050919050565b7f496e76616c69642063616e646964617465000000000000000000000000000000600082015250565b6000612025601183611a46565b915061203082611fef565b602082019050919050565b6000602082019050818103600083015261205481612018565b9050919050565b600061206e6120698461188a565b61186f565b90508281526020810184848401111561208a576120896117f9565b5b612095848285611a57565b509392505050565b600082601f8301126120b2576120b16117f4565b5b81516120c284826020860161205b565b91505092915050565b6000602082840312156120e1576120e0611791565b5b600082015167ffffffffffffffff8111156120ff576120fe611796565b5b61210b8482850161209d565b91505092915050565b600061211f82611753565b91507fffffffffffffffffffffffffffffffffffffffffffffffffffffffffffffffff820361215157612150611da1565b5b600182019050919050565b600081905092915050565b600061217282611a3b565b61217c818561215c565b935061218c818560208601611a57565b80840191505092915050565b60006121a48284612167565b915081905092915050565b7f566f74696e6720706572696f64206e6f7420656e646564207965740000000000600082015250565b60006121e5601b83611a46565b91506121f0826121af565b602082019050919050565b60006020820190508181036000830152612214816121d8565b9050919050565b60008151905061222a81611c24565b92915050565b60006020828403121561224657612245611791565b5b60006122548482850161221b565b91505092915050565b7f566f74657220776974682074686973206e6174696f6e616c204944206e6f742060008201527f7265676973746572656400000000000000000000000000000000000000000000602082015250565b60006122b9602a83611a46565b91506122c48261225d565b604082019050919050565b600060208201905081810360008301526122e8816122ac565b9050919050565b7f4f6e6c7920656c656374696f6e20636f6d6d697373696f6e206f72207665726960008201527f6669636174696f6e20636f6e74726163742063616e20706572666f726d20746860208201527f697320616374696f6e0000000000000000000000000000000000000000000000604082015250565b6000612371604983611a46565b915061237c826122ef565b606082019050919050565b600060208201905081810360008301526123a081612364565b9050919050565b7f4e487b7100000000000000000000000000000000000000000000000000000000600052602260045260246000fd5b600060028204905060018216806123ee57607f821691505b602082108103612401576124006123a7565b5b50919050565b600061241282611753565b915061241d83611753565b925082820390508181111561243557612434611da1565b5b9291505056fea264697066735822122045fe6f3a566dea0c5a08df2f8b56fe37881b75e00a4566e6de7c21cb616ab29164736f6c634300081c0033",
  "linkReferences": {},
  "deployedLinkReferences": {}
}