{
  "_format": "hh-sol-artifact-1",
  "contractName": "VotingToken",
  "sourceName": "contracts/VotingToken.sol",
  "abi": [
    {
      "inputs": [
        {
          "internalType": "string",
          "name": "name",
          "type": "string"
        },
        {
          "internalType": "string",
          "name": "symbol",
          "type": "string"
        }
      ],
      "stateMutability": "nonpayable",
      "type": "constructor"
    },
    {
      "inputs": [
        {
          "internalType": "address",
          "name": "spender",
          "type": "address"
        },
        {
          "internalType": "uint256",
          "name": "allowance",
          "type": "uint256"
        },
        {
          "internalType": "uint256",
          "name": "needed",
          "type": "uint256"
        }
      ],
      "name": "ERC20InsufficientAllowance",
      "type": "error"
    },
    {
      "inputs": [
        {
          "internalType": "address",
          "name": "sender",
          "type": "address"
        },
        {
          "internalType": "uint256",
          "name": "balance",
          "type": "uint256"
        },
        {
          "internalType": "uint256",
          "name": "needed",
          "type": "uint256"
        }
      ],
      "name": "ERC20InsufficientBalance",
      "type": "error"
    },
    {
      "inputs": [
        {
          "internalType": "address",
          "name": "approver",
          "type": "address"
        }
      ],
      "name": "ERC20InvalidApprover",
      "type": "error"
    },
    {
      "inputs": [
        {
          "internalType": "address",
          "name": "receiver",
          "type": "address"
        }
      ],
      "name": "ERC20InvalidReceiver",
      "type": "error"
    },
    {
      "inputs": [
        {
          "internalType": "address",
          "name": "sender",
          "type": "address"
        }
      ],
      "name": "ERC20InvalidSender",
      "type": "error"
    },
    {
      "inputs": [
        {
          "internalType": "address",
          "name": "spender",
          "type": "address"
        }
      ],
      "name": "ERC20InvalidSpender",
      "type": "error"
    },
    {
      "inputs": [
        {
          "internalType": "address",
          "name": "owner",
          "type": "address"
        }
      ],
      "name": "OwnableInvalidOwner",
      "type": "error"
    },
    {
      "inputs": [
        {
          "internalType": "address",
          "name": "account",
          "type": "address"
        }
      ],
      "name": "OwnableUnauthorizedAccount",
      "type": "error"
    },
    {
      "inputs": [],
      "name": "ReentrancyGuardReentrantCall",
      "type": "error"
    },
    {
      "anonymous": false,
      "inputs": [
        {
          "indexed": true,
          "internalType": "address",
          "name": "owner",
          "type": "address"
        },
        {
          "indexed": true,
          "internalType": "address",
          "name": "spender",
          "type": "address"
        },
        {
          "indexed": false,
          "internalType": "uint256",
          "name": "value",
          "type": "uint256"
        }
      ],
      "name": "Approval",
      "type": "event"
    },
    {
      "anonymous": false,
      "inputs": [
        {
          "indexed": true,
          "internalType": "address",
          "name": "previousOwner",
          "type": "address"
        },
        {
          "indexed": true,
          "internalType": "address",
          "name": "newOwner",
          "type": "address"
        }
      ],
      "name": "OwnershipTransferred",
      "type": "event"
    },
    {
      "anonymous": false,
      "inputs": [
        {
          "indexed": true,
          "internalType": "address",
          "name": "voter",
          "type": "address"
        },
        {
          "indexed": false,
          "internalType": "uint256",
          "name": "amount",
          "type": "uint256"
        },
        {
          "indexed": false,
          "internalType": "uint256",
          "name": "candidateId",
          "type": "uint256"
        }
      ],
      "name": "TokenBurned",
      "type": "event"
    },
    {
      "anonymous": false,
      "inputs": [
        {
          "indexed": true,
          "internalType": "address",
          "name": "voter",
          "type": "address"
        },
        {
          "indexed": false,
          "internalType": "uint256",
          "name": "amount",
          "type": "uint256"
        },
        {
          "indexed": false,
          "internalType": "string",
          "name": "nationalId",
          "type": "string"
        }
      ],
      "name": "TokenIssued",
      "type": "event"
    },
    {
      "anonymous": false,
      "inputs": [
        {
          "indexed": true,
          "internalType": "address",
          "name": "from",
          "type": "address"
        },
        {
          "indexed": true,
          "internalType": "address",
          "name": "to",
          "type": "address"
        },
        {
          "indexed": false,
          "internalType": "uint256",
          "name": "value",
          "type": "uint256"
        }
      ],
      "name": "Transfer",
      "type": "event"
    },
    {
      "inputs": [],
      "name": "LEGAL_DISCLAIMER",
      "outputs": [
        {
          "internalType": "string",
          "name": "",
          "type": "string"
        }
      ],
      "stateMutability": "view",
      "type": "function"
    },
    {
      "inputs": [],
      "name": "REGULATORY_COMPLIANCE",
      "outputs": [
        {
          "internalType": "string",
          "name": "",
          "type": "string"
        }
      ],
      "stateMutability": "view",
      "type": "function"
    },
    {
      "inputs": [],
      "name": "TERMS_OF_USE",
      "outputs": [
        {
          "internalType": "string",
          "name": "",
          "type": "string"
        }
      ],
      "stateMutability": "view",
      "type": "function"
    },
    {
      "inputs": [
        {
          "internalType": "address",
          "name": "owner",
          "type": "address"
        },
        {
          "internalType": "address",
          "name": "spender",
          "type": "address"
        }
      ],
      "name": "allowance",
      "outputs": [
        {
          "internalType": "uint256",
          "name": "",
          "type": "uint256"
        }
      ],
      "stateMutability": "view",
      "type": "function"
    },
    {
      "inputs": [
        {
          "internalType": "address",
          "name": "spender",
          "type": "address"
        },
        {
          "internalType": "uint256",
          "name": "value",
          "type": "uint256"
        }
      ],
      "name": "approve",
      "outputs": [
        {
          "internalType": "bool",
          "name": "",
          "type": "bool"
        }
      ],
      "stateMutability": "nonpayable",
      "type": "function"
    },
    {
      "inputs": [
        {
          "internalType": "address",
          "name": "account",
          "type": "address"
        }
      ],
      "name": "balanceOf",
      "outputs": [
        {
          "internalType": "uint256",
          "name": "",
          "type": "uint256"
        }
      ],
      "stateMutability": "view",
      "type": "function"
    },
    {
      "inputs": [
        {
          "internalType": "address",
          "name": "_voter",
          "type": "address"
        },
        {
          "internalType": "uint256",
          "name": "_candidateId",
          "type": "uint256"
        }
      ],
      "name": "burnVotingToken",
      "outputs": [],
      "stateMutability": "nonpayable",
      "type": "function"
    },
    {
      "inputs": [],
      "name": "decimals",
      "outputs": [
        {
          "internalType": "uint8",
          "name": "",
          "type": "uint8"
        }
      ],
      "stateMutability": "view",
      "type": "function"
    },
    {
      "inputs": [],
      "name": "getLegalTerms",
      "outputs": [
        {
          "internalType": "string",
          "name": "",
          "type": "string"
        }
      ],
      "stateMutability": "pure",
      "type": "function"
    },
    {
      "inputs": [
        {
          "internalType": "address",
          "name": "_voter",
          "type": "address"
        },
        {
          "internalType": "string",
          "name": "_nationalId",
          "type": "string"
        }
      ],
      "name": "issueVotingToken",
      "outputs": [],
      "stateMutability": "nonpayable",
      "type": "function"
    },
    {
      "inputs": [],
      "name": "name",
      "outputs": [
        {
          "internalType": "string",
          "name": "",
          "type": "string"
        }
      ],
      "stateMutability": "view",
      "type": "function"
    },
    {
      "inputs": [],
      "name": "owner",
      "outputs": [
        {
          "internalType": "address",
          "name": "",
          "type": "address"
        }
      ],
      "stateMutability": "view",
      "type": "function"
    },
    {
      "inputs": [],
      "name": "renounceOwnership",
      "outputs": [],
      "stateMutability": "nonpayable",
      "type": "function"
    },
    {
      "inputs": [
        {
          "internalType": "bool",
          "name": "_allowed",
          "type": "bool"
        }
      ],
      "name": "setTransfersAllowed",
      "outputs": [],
      "stateMutability": "nonpayable",
      "type": "function"
    },
    {
      "inputs": [
        {
          "internalType": "address",
          "name": "_voterRegistrationContract",
          "type": "address"
        }
      ],
      "name": "setVoterRegistrationContract",
      "outputs": [],
      "stateMutability": "nonpayable",
      "type": "function"
    },
    {
      "inputs": [
        {
          "internalType": "address",
          "name": "_votingContract",
          "type": "address"
        }
      ],
      "name": "setVotingContract",
      "outputs": [],
      "stateMutability": "nonpayable",
      "type": "function"
    },
    {
      "inputs": [],
      "name": "symbol",
      "outputs": [
        {
          "internalType": "string",
          "name": "",
          "type": "string"
        }
      ],
      "stateMutability": "view",
      "type": "function"
    },
    {
      "inputs": [],
      "name": "totalSupply",
      "outputs": [
        {
          "internalType": "uint256",
          "name": "",
          "type": "uint256"
        }
      ],
      "stateMutability": "view",
      "type": "function"
    },
    {
      "inputs": [
        {
          "internalType": "address",
          "name": "to",
          "type": "address"
        },
        {
          "internalType": "uint256",
          "name": "value",
          "type": "uint256"
        }
      ],
      "name": "transfer",
      "outputs": [
        {
          "internalType": "bool",
          "name": "",
          "type": "bool"
        }
      ],
      "stateMutability": "nonpayable",
      "type": "function"
    },
    {
      "inputs": [
        {
          "internalType": "address",
          "name": "from",
          "type": "address"
        },
        {
          "internalType": "address",
          "name": "to",
          "type": "address"
        },
        {
          "internalType": "uint256",
          "name": "value",
          "type": "uint256"
        }
      ],
      "name": "transferFrom",
      "outputs": [
        {
          "internalType": "bool",
          "name": "",
          "type": "bool"
        }
      ],
      "stateMutability": "nonpayable",
      "type": "function"
    },
    {
      "inputs": [
        {
          "internalType": "address",
          "name": "newOwner",
          "type": "address"
        }
      ],
      "name": "transferOwnership",
      "outputs": [],
      "stateMutability": "nonpayable",
      "type": "function"
    },
    {
      "inputs": [],
      "name": "transfersAllowed",
      "outputs": [
        {
          "internalType": "bool",
          "name": "",
          "type": "bool"
        }
      ],
      "stateMutability": "view",
      "type": "function"
    },
    {
      "inputs": [],
      "name": "voterRegistrationContract",
      "outputs": [
        {
          "internalType": "address",
          "name": "",
          "type": "address"
        }
      ],
      "stateMutability": "view",
      "type": "function"
    },
    {
      "inputs": [],
      "name": "votingContract",
      "outputs": [
        {
          "internalType": "address",
          "name": "",
          "type": "address"
        }
      ],
      "stateMutability": "view",
      "type": "function"
    }
  ],
  "bytecode": "0x60806040523480156200001157600080fd5b50604051620029443803806200294483398181016040528101906200003791906200036b565b33828281600390816200004b91906200063b565b5080600490816200005d91906200063b565b505050600073ffffffffffffffffffffffffffffffffffffffff168173ffffffffffffffffffffffffffffffffffffffff1603620000d55760006040517f1e4fbdf7000000000000000000000000000000000000000000000000000000008152600401620000cc919062000767565b60405180910390fd5b620000e6816200011260201b60201c565b5060016006819055506000600860146101000a81548160ff021916908315150217905550505062000784565b6000600560009054906101000a900473ffffffffffffffffffffffffffffffffffffffff16905081600560006101000a81548173ffffffffffffffffffffffffffffffffffffffff021916908373ffffffffffffffffffffffffffffffffffffffff1602179055508173ffffffffffffffffffffffffffffffffffffffff168173ffffffffffffffffffffffffffffffffffffffff167f8be0079c531659141344cd1fd0a4f28419497f9722a3daafe3b4186f6b6457e060405160405180910390a35050565b6000604051905090565b600080fd5b600080fd5b600080fd5b600080fd5b6000601f19601f8301169050919050565b7f4e487b7100000000000000000000000000000000000000000000000000000000600052604160045260246000fd5b6200024182620001f6565b810181811067ffffffffffffffff8211171562000263576200026262000207565b5b80604052505050565b600062000278620001d8565b905062000286828262000236565b919050565b600067ffffffffffffffff821115620002a957620002a862000207565b5b620002b482620001f6565b9050602081019050919050565b60005b83811015620002e1578082015181840152602081019050620002c4565b60008484015250505050565b600062000304620002fe846200028b565b6200026c565b905082815260208101848484011115620003235762000322620001f1565b5b62000330848285620002c1565b509392505050565b600082601f83011262000350576200034f620001ec565b5b815162000362848260208601620002ed565b91505092915050565b60008060408385031215620003855762000384620001e2565b5b600083015167ffffffffffffffff811115620003a657620003a5620001e7565b5b620003b48582860162000338565b925050602083015167ffffffffffffffff811115620003d857620003d7620001e7565b5b620003e68582860162000338565b9150509250929050565b600081519050919050565b7f4e487b7100000000000000000000000000000000000000000000000000000000600052602260045260246000fd5b600060028204905060018216806200044357607f821691505b602082108103620004595762000458620003fb565b5b50919050565b60008190508160005260206000209050919050565b60006020601f8301049050919050565b600082821b905092915050565b600060088302620004c37fffffffffffffffffffffffffffffffffffffffffffffffffffffffffffffffff8262000484565b620004cf868362000484565b95508019841693508086168417925050509392505050565b6000819050919050565b6000819050919050565b60006200051c620005166200051084620004e7565b620004f1565b620004e7565b9050919050565b6000819050919050565b6200053883620004fb565b62000550620005478262000523565b84845462000491565b825550505050565b600090565b6200056762000558565b620005748184846200052d565b505050565b5b818110156200059c57620005906000826200055d565b6001810190506200057a565b5050565b601f821115620005eb57620005b5816200045f565b620005c08462000474565b81016020851015620005d0578190505b620005e8620005df8562000474565b83018262000579565b50505b505050565b600082821c905092915050565b60006200061060001984600802620005f0565b1980831691505092915050565b60006200062b8383620005fd565b9150826002028217905092915050565b6200064682620003f0565b67ffffffffffffffff81111562000662576200066162000207565b5b6200066e82546200042a565b6200067b828285620005a0565b600060209050601f831160018114620006b357600084156200069e578287015190505b620006aa85826200061d565b8655506200071a565b601f198416620006c3866200045f565b60005b82811015620006ed57848901518255600182019150602085019450602081019050620006c6565b868310156200070d578489015162000709601f891682620005fd565b8355505b6001600288020188555050505b505050505050565b600073ffffffffffffffffffffffffffffffffffffffff82169050919050565b60006200074f8262000722565b9050919050565b620007618162000742565b82525050565b60006020820190506200077e600083018462000756565b92915050565b6121b080620007946000396000f3fe608060405234801561001057600080fd5b50600436106101585760003560e01c806395d89b41116100c3578063b41759561161007c578063b4175956146103a7578063c1fc006a146103c5578063c8fcb28c146103e3578063dd62ed3e146103ff578063f2fde38b1461042f578063f3cd1c281461044b57610158565b806395d89b41146102e5578063a069c1ac14610303578063a27b5c761461031f578063a9059cbb1461033b578063ab6278961461036b578063b0660c3d1461038957610158565b80636c3d9169116101155780636c3d9169146102355780636d300eda1461025157806370a082311461026f57806370bf98881461029f578063715018a6146102bd5780638da5cb5b146102c757610158565b806306fdde031461015d578063095ea7b31461017b57806318160ddd146101ab57806323b872dd146101c9578063313ce567146101f957806340675a2214610217575b600080fd5b610165610467565b6040516101729190611620565b60405180910390f35b610195600480360381019061019091906116ea565b6104f9565b6040516101a29190611745565b60405180910390f35b6101b361051c565b6040516101c0919061176f565b60405180910390f35b6101e360048036038101906101de919061178a565b610526565b6040516101f09190611745565b60405180910390f35b610201610555565b60405161020e91906117f9565b60405180910390f35b61021f61055e565b60405161022c9190611620565b60405180910390f35b61024f600480360381019061024a91906116ea565b61057a565b005b6102596106b6565b6040516102669190611620565b60405180910390f35b61028960048036038101906102849190611814565b6106d2565b604051610296919061176f565b60405180910390f35b6102a76106e4565b6040516102b49190611620565b60405180910390f35b6102c5610757565b005b6102cf61076b565b6040516102dc9190611850565b60405180910390f35b6102ed610795565b6040516102fa9190611620565b60405180910390f35b61031d60048036038101906103189190611814565b610827565b005b61033960048036038101906103349190611814565b610873565b005b610355600480360381019061035091906116ea565b6108bf565b6040516103629190611745565b60405180910390f35b6103736108e2565b6040516103809190611620565b60405180910390f35b6103916108fe565b60405161039e9190611745565b60405180910390f35b6103af610911565b6040516103bc9190611850565b60405180910390f35b6103cd610937565b6040516103da9190611850565b60405180910390f35b6103fd60048036038101906103f891906119a0565b61095d565b005b610419600480360381019061041491906119fc565b610a99565b604051610426919061176f565b60405180910390f35b61044960048036038101906104449190611814565b610b20565b005b61046560048036038101906104609190611a68565b610ba6565b005b60606003805461047690611ac4565b80601f01602080910402602001604051908101604052809291908181526020018280546104a290611ac4565b80156104ef5780601f106104c4576101008083540402835291602001916104ef565b820191906000526020600020905b8154815290600101906020018083116104d257829003601f168201915b5050505050905090565b600080610504610bcb565b9050610511818585610bd3565b600191505092915050565b6000600254905090565b600080610531610bcb565b905061053e858285610be5565b610549858585610c7a565b60019150509392505050565b60006012905090565b6040518060800160405280604581526020016121366045913981565b610582610d6e565b600760009054906101000a900473ffffffffffffffffffffffffffffffffffffffff1673ffffffffffffffffffffffffffffffffffffffff163373ffffffffffffffffffffffffffffffffffffffff1614610612576040517f08c379a000000000000000000000000000000000000000000000000000000000815260040161060990611b67565b60405180910390fd5b61063b8261061e610555565b600a61062a9190611ce9565b60016106369190611d34565b610db4565b8173ffffffffffffffffffffffffffffffffffffffff167fde3ca466246b0da455138dbea78dacd91d3c40dc98d5846ff0193bf67c24b0e761067b610555565b600a6106879190611ce9565b60016106939190611d34565b836040516106a2929190611d76565b60405180910390a26106b2610e36565b5050565b6040518060600160405280604081526020016120f66040913981565b60006106dd82610e40565b9050919050565b6060604051806080016040528060458152602001612136604591396040518060800160405280605c815260200161209a605c91396040518060600160405280604081526020016120f66040913960405160200161074393929190611e27565b604051602081830303815290604052905090565b61075f610e88565b6107696000610f0f565b565b6000600560009054906101000a900473ffffffffffffffffffffffffffffffffffffffff16905090565b6060600480546107a490611ac4565b80601f01602080910402602001604051908101604052809291908181526020018280546107d090611ac4565b801561081d5780601f106107f25761010080835404028352916020019161081d565b820191906000526020600020905b81548152906001019060200180831161080057829003601f168201915b5050505050905090565b61082f610e88565b80600760006101000a81548173ffffffffffffffffffffffffffffffffffffffff021916908373ffffffffffffffffffffffffffffffffffffffff16021790555050565b61087b610e88565b80600860006101000a81548173ffffffffffffffffffffffffffffffffffffffff021916908373ffffffffffffffffffffffffffffffffffffffff16021790555050565b6000806108ca610bcb565b90506108d7818585610c7a565b600191505092915050565b6040518060800160405280605c815260200161209a605c913981565b600860149054906101000a900460ff1681565b600860009054906101000a900473ffffffffffffffffffffffffffffffffffffffff1681565b600760009054906101000a900473ffffffffffffffffffffffffffffffffffffffff1681565b610965610d6e565b600860009054906101000a900473ffffffffffffffffffffffffffffffffffffffff1673ffffffffffffffffffffffffffffffffffffffff163373ffffffffffffffffffffffffffffffffffffffff16146109f5576040517f08c379a00000000000000000000000000000000000000000000000000000000081526004016109ec90611ee0565b60405180910390fd5b610a1e82610a01610555565b600a610a0d9190611ce9565b6001610a199190611d34565b610fd5565b8173ffffffffffffffffffffffffffffffffffffffff167f771d9d4404ea6e40430aef3ef12d7af98bcd46a24c8a3c41225fb79b591d478c610a5e610555565b600a610a6a9190611ce9565b6001610a769190611d34565b83604051610a85929190611f00565b60405180910390a2610a95610e36565b5050565b6000600160008473ffffffffffffffffffffffffffffffffffffffff1673ffffffffffffffffffffffffffffffffffffffff16815260200190815260200160002060008373ffffffffffffffffffffffffffffffffffffffff1673ffffffffffffffffffffffffffffffffffffffff16815260200190815260200160002054905092915050565b610b28610e88565b600073ffffffffffffffffffffffffffffffffffffffff168173ffffffffffffffffffffffffffffffffffffffff1603610b9a5760006040517f1e4fbdf7000000000000000000000000000000000000000000000000000000008152600401610b919190611850565b60405180910390fd5b610ba381610f0f565b50565b610bae610e88565b80600860146101000a81548160ff02191690831515021790555050565b600033905090565b610be08383836001611057565b505050565b6000610bf18484610a99565b90507fffffffffffffffffffffffffffffffffffffffffffffffffffffffffffffffff811015610c745781811015610c64578281836040517ffb8f41b2000000000000000000000000000000000000000000000000000000008152600401610c5b93929190611f30565b60405180910390fd5b610c7384848484036000611057565b5b50505050565b600073ffffffffffffffffffffffffffffffffffffffff168373ffffffffffffffffffffffffffffffffffffffff1603610cec5760006040517f96c6fd1e000000000000000000000000000000000000000000000000000000008152600401610ce39190611850565b60405180910390fd5b600073ffffffffffffffffffffffffffffffffffffffff168273ffffffffffffffffffffffffffffffffffffffff1603610d5e5760006040517fec442f05000000000000000000000000000000000000000000000000000000008152600401610d559190611850565b60405180910390fd5b610d6983838361122e565b505050565b600260065403610daa576040517f3ee5aeb500000000000000000000000000000000000000000000000000000000815260040160405180910390fd5b6002600681905550565b600073ffffffffffffffffffffffffffffffffffffffff168273ffffffffffffffffffffffffffffffffffffffff1603610e265760006040517f96c6fd1e000000000000000000000000000000000000000000000000000000008152600401610e1d9190611850565b60405180910390fd5b610e328260008361122e565b5050565b6001600681905550565b60008060008373ffffffffffffffffffffffffffffffffffffffff1673ffffffffffffffffffffffffffffffffffffffff168152602001908152602001600020549050919050565b610e90610bcb565b73ffffffffffffffffffffffffffffffffffffffff16610eae61076b565b73ffffffffffffffffffffffffffffffffffffffff1614610f0d57610ed1610bcb565b6040517f118cdaa7000000000000000000000000000000000000000000000000000000008152600401610f049190611850565b60405180910390fd5b565b6000600560009054906101000a900473ffffffffffffffffffffffffffffffffffffffff16905081600560006101000a81548173ffffffffffffffffffffffffffffffffffffffff021916908373ffffffffffffffffffffffffffffffffffffffff1602179055508173ffffffffffffffffffffffffffffffffffffffff168173ffffffffffffffffffffffffffffffffffffffff167f8be0079c531659141344cd1fd0a4f28419497f9722a3daafe3b4186f6b6457e060405160405180910390a35050565b600073ffffffffffffffffffffffffffffffffffffffff168273ffffffffffffffffffffffffffffffffffffffff16036110475760006040517fec442f0500000000000000000000000000000000000000000000000000000000815260040161103e9190611850565b60405180910390fd5b6110536000838361122e565b5050565b600073ffffffffffffffffffffffffffffffffffffffff168473ffffffffffffffffffffffffffffffffffffffff16036110c95760006040517fe602df050000000000000000000000000000000000000000000000000000000081526004016110c09190611850565b60405180910390fd5b600073ffffffffffffffffffffffffffffffffffffffff168373ffffffffffffffffffffffffffffffffffffffff160361113b5760006040517f94280d620000000000000000000000000000000000000000000000000000000081526004016111329190611850565b60405180910390fd5b81600160008673ffffffffffffffffffffffffffffffffffffffff1673ffffffffffffffffffffffffffffffffffffffff16815260200190815260200160002060008573ffffffffffffffffffffffffffffffffffffffff1673ffffffffffffffffffffffffffffffffffffffff168152602001908152602001600020819055508015611228578273ffffffffffffffffffffffffffffffffffffffff168473ffffffffffffffffffffffffffffffffffffffff167f8c5be1e5ebec7d5bd14f71427d1e84f3dd0314c0f7b2291e5b200ac8c7c3b9258460405161121f919061176f565b60405180910390a35b50505050565b600073ffffffffffffffffffffffffffffffffffffffff168373ffffffffffffffffffffffffffffffffffffffff16141580156112985750600073ffffffffffffffffffffffffffffffffffffffff168273ffffffffffffffffffffffffffffffffffffffff1614155b1561135b57600860149054906101000a900460ff166112ec576040517f08c379a00000000000000000000000000000000000000000000000000000000081526004016112e390611fd9565b60405180910390fd5b3373ffffffffffffffffffffffffffffffffffffffff168373ffffffffffffffffffffffffffffffffffffffff161461135a576040517f08c379a000000000000000000000000000000000000000000000000000000000815260040161135190612045565b60405180910390fd5b5b61136683838361136b565b505050565b600073ffffffffffffffffffffffffffffffffffffffff168373ffffffffffffffffffffffffffffffffffffffff16036113bd5780600260008282546113b19190612065565b92505081905550611490565b60008060008573ffffffffffffffffffffffffffffffffffffffff1673ffffffffffffffffffffffffffffffffffffffff16815260200190815260200160002054905081811015611449578381836040517fe450d38c00000000000000000000000000000000000000000000000000000000815260040161144093929190611f30565b60405180910390fd5b8181036000808673ffffffffffffffffffffffffffffffffffffffff1673ffffffffffffffffffffffffffffffffffffffff16815260200190815260200160002081905550505b600073ffffffffffffffffffffffffffffffffffffffff168273ffffffffffffffffffffffffffffffffffffffff16036114d95780600260008282540392505081905550611526565b806000808473ffffffffffffffffffffffffffffffffffffffff1673ffffffffffffffffffffffffffffffffffffffff168152602001908152602001600020600082825401925050819055505b8173ffffffffffffffffffffffffffffffffffffffff168373ffffffffffffffffffffffffffffffffffffffff167fddf252ad1be2c89b69c2b068fc378daa952ba7f163c4a11628f55a4df523b3ef83604051611583919061176f565b60405180910390a3505050565b600081519050919050565b600082825260208201905092915050565b60005b838110156115ca5780820151818401526020810190506115af565b60008484015250505050565b6000601f19601f8301169050919050565b60006115f282611590565b6115fc818561159b565b935061160c8185602086016115ac565b611615816115d6565b840191505092915050565b6000602082019050818103600083015261163a81846115e7565b905092915050565b6000604051905090565b600080fd5b600080fd5b600073ffffffffffffffffffffffffffffffffffffffff82169050919050565b600061168182611656565b9050919050565b61169181611676565b811461169c57600080fd5b50565b6000813590506116ae81611688565b92915050565b6000819050919050565b6116c7816116b4565b81146116d257600080fd5b50565b6000813590506116e4816116be565b92915050565b600080604083850312156117015761170061164c565b5b600061170f8582860161169f565b9250506020611720858286016116d5565b9150509250929050565b60008115159050919050565b61173f8161172a565b82525050565b600060208201905061175a6000830184611736565b92915050565b611769816116b4565b82525050565b60006020820190506117846000830184611760565b92915050565b6000806000606084860312156117a3576117a261164c565b5b60006117b18682870161169f565b93505060206117c28682870161169f565b92505060406117d3868287016116d5565b9150509250925092565b600060ff82169050919050565b6117f3816117dd565b82525050565b600060208201905061180e60008301846117ea565b92915050565b60006020828403121561182a5761182961164c565b5b60006118388482850161169f565b91505092915050565b61184a81611676565b82525050565b60006020820190506118656000830184611841565b92915050565b600080fd5b600080fd5b7f4e487b7100000000000000000000000000000000000000000000000000000000600052604160045260246000fd5b6118ad826115d6565b810181811067ffffffffffffffff821117156118cc576118cb611875565b5b80604052505050565b60006118df611642565b90506118eb82826118a4565b919050565b600067ffffffffffffffff82111561190b5761190a611875565b5b611914826115d6565b9050602081019050919050565b82818337600083830152505050565b600061194361193e846118f0565b6118d5565b90508281526020810184848401111561195f5761195e611870565b5b61196a848285611921565b509392505050565b600082601f8301126119875761198661186b565b5b8135611997848260208601611930565b91505092915050565b600080604083850312156119b7576119b661164c565b5b60006119c58582860161169f565b925050602083013567ffffffffffffffff8111156119e6576119e5611651565b5b6119f285828601611972565b9150509250929050565b60008060408385031215611a1357611a1261164c565b5b6000611a218582860161169f565b9250506020611a328582860161169f565b9150509250929050565b611a458161172a565b8114611a5057600080fd5b50565b600081359050611a6281611a3c565b92915050565b600060208284031215611a7e57611a7d61164c565b5b6000611a8c84828501611a53565b91505092915050565b7f4e487b7100000000000000000000000000000000000000000000000000000000600052602260045260246000fd5b60006002820490506001821680611adc57607f821691505b602082108103611aef57611aee611a95565b5b50919050565b7f4f6e6c7920766f74696e6720636f6e74726163742063616e206275726e20746f60008201527f6b656e7300000000000000000000000000000000000000000000000000000000602082015250565b6000611b5160248361159b565b9150611b5c82611af5565b604082019050919050565b60006020820190508181036000830152611b8081611b44565b9050919050565b7f4e487b7100000000000000000000000000000000000000000000000000000000600052601160045260246000fd5b60008160011c9050919050565b6000808291508390505b6001851115611c0d57808604811115611be957611be8611b87565b5b6001851615611bf85780820291505b8081029050611c0685611bb6565b9450611bcd565b94509492505050565b600082611c265760019050611ce2565b81611c345760009050611ce2565b8160018114611c4a5760028114611c5457611c83565b6001915050611ce2565b60ff841115611c6657611c65611b87565b5b8360020a915084821115611c7d57611c7c611b87565b5b50611ce2565b5060208310610133831016604e8410600b8410161715611cb85782820a905083811115611cb357611cb2611b87565b5b611ce2565b611cc58484846001611bc3565b92509050818404811115611cdc57611cdb611b87565b5b81810290505b9392505050565b6000611cf4826116b4565b9150611cff836117dd565b9250611d2c7fffffffffffffffffffffffffffffffffffffffffffffffffffffffffffffffff8484611c16565b905092915050565b6000611d3f826116b4565b9150611d4a836116b4565b9250828202611d58816116b4565b91508282048414831517611d6f57611d6e611b87565b5b5092915050565b6000604082019050611d8b6000830185611760565b611d986020830184611760565b9392505050565b600081905092915050565b6000611db582611590565b611dbf8185611d9f565b9350611dcf8185602086016115ac565b80840191505092915050565b7f3b20000000000000000000000000000000000000000000000000000000000000600082015250565b6000611e11600283611d9f565b9150611e1c82611ddb565b600282019050919050565b6000611e338286611daa565b9150611e3e82611e04565b9150611e4a8285611daa565b9150611e5582611e04565b9150611e618284611daa565b9150819050949350505050565b7f4f6e6c7920766f74657220726567697374726174696f6e20636f6e747261637460008201527f2063616e20697373756520746f6b656e73000000000000000000000000000000602082015250565b6000611eca60318361159b565b9150611ed582611e6e565b604082019050919050565b60006020820190508181036000830152611ef981611ebd565b9050919050565b6000604082019050611f156000830185611760565b8181036020830152611f2781846115e7565b90509392505050565b6000606082019050611f456000830186611841565b611f526020830185611760565b611f5f6040830184611760565b949350505050565b7f546f6b656e207472616e7366657273206172652063757272656e746c7920646960008201527f7361626c65640000000000000000000000000000000000000000000000000000602082015250565b6000611fc360268361159b565b9150611fce82611f67565b604082019050919050565b60006020820190508181036000830152611ff281611fb6565b9050919050565b7f4f6e6c7920746f6b656e20686f6c6465722063616e207472616e736665720000600082015250565b600061202f601e8361159b565b915061203a82611ff9565b602082019050919050565b6000602082019050818103600083015261205e81612022565b9050919050565b6000612070826116b4565b915061207b836116b4565b925082820190508082111561209357612092611b87565b5b9291505056fe4279207573696e67207468697320746f6b656e2c20796f7520616772656520746f2061626964652062792074686520656c656374696f6e2072756c657320646566696e656420696e2074686520566f74696e6720636f6e74726163745468697320746f6b656e2069732064657369676e656420746f20636f6d706c792077697468206469676974616c20766f74696e6720726567756c6174696f6e735468697320746f6b656e20726570726573656e747320766f74696e6720726967687473206f6e6c7920616e6420686f6c6473206e6f2066696e616e6369616c2076616c7565a2646970667358221220ead141cc2b20de3a3686ebcd1ce9689560c2d19110e730bc5ccceb3cfa718bf564736f6c63430008140033",
  "linkReferences": {},
  "deployedLinkReferences": {}
}