{
  "_format": "hh-sol-artifact-1",
  "contractName": "ElectionVerification",
  "sourceName": "contracts/ElectionVerification.sol",
  "abi": [
    {
      "inputs": [
        {
          "internalType": "address",
          "name": "_votingAddress",
          "type": "address"
        },
        {
          "internalType": "address",
          "name": "_resultsAddress",
          "type": "address"
        },
        {
          "internalType": "address",
          "name": "_voterAddress",
          "type": "address"
        },
        {
          "internalType": "address",
          "name": "_candidateAddress",
          "type": "address"
        }
      ],
      "stateMutability": "nonpayable",
      "type": "constructor"
    },
    {
      "anonymous": false,
      "inputs": [
        {
          "indexed": true,
          "internalType": "address",
          "name": "auditorAddress",
          "type": "address"
        },
        {
          "indexed": false,
          "internalType": "string",
          "name": "organization",
          "type": "string"
        }
      ],
      "name": "AuditorApproved",
      "type": "event"
    },
    {
      "anonymous": false,
      "inputs": [
        {
          "indexed": true,
          "internalType": "address",
          "name": "auditor",
          "type": "address"
        },
        {
          "indexed": false,
          "internalType": "bool",
          "name": "passed",
          "type": "bool"
        }
      ],
      "name": "VerificationCompleted",
      "type": "event"
    },
    {
      "inputs": [
        {
          "internalType": "address",
          "name": "_auditorAddress",
          "type": "address"
        },
        {
          "internalType": "string",
          "name": "_organization",
          "type": "string"
        }
      ],
      "name": "approveAuditor",
      "outputs": [],
      "stateMutability": "nonpayable",
      "type": "function"
    },
    {
      "inputs": [
        {
          "internalType": "address",
          "name": "",
          "type": "address"
        }
      ],
      "name": "auditors",
      "outputs": [
        {
          "internalType": "address",
          "name": "auditorAddress",
          "type": "address"
        },
        {
          "internalType": "string",
          "name": "organization",
          "type": "string"
        },
        {
          "internalType": "bool",
          "name": "isApproved",
          "type": "bool"
        }
      ],
      "stateMutability": "view",
      "type": "function"
    },
    {
      "inputs": [],
      "name": "candidateContract",
      "outputs": [
        {
          "internalType": "contract CandidateRegistration",
          "name": "",
          "type": "address"
        }
      ],
      "stateMutability": "view",
      "type": "function"
    },
    {
      "inputs": [
        {
          "internalType": "string",
          "name": "_nationalID",
          "type": "string"
        }
      ],
      "name": "checkVoteByNationalID",
      "outputs": [
        {
          "internalType": "uint256",
          "name": "",
          "type": "uint256"
        }
      ],
      "stateMutability": "view",
      "type": "function"
    },
    {
      "inputs": [],
      "name": "electionCommission",
      "outputs": [
        {
          "internalType": "address",
          "name": "",
          "type": "address"
        }
      ],
      "stateMutability": "view",
      "type": "function"
    },
    {
      "inputs": [],
      "name": "getAllVerificationRecords",
      "outputs": [
        {
          "components": [
            {
              "internalType": "address",
              "name": "auditor",
              "type": "address"
            },
            {
              "internalType": "uint256",
              "name": "timestamp",
              "type": "uint256"
            },
            {
              "internalType": "string",
              "name": "comments",
              "type": "string"
            },
            {
              "internalType": "bool",
              "name": "verificationPassed",
              "type": "bool"
            }
          ],
          "internalType": "struct ElectionVerification.VerificationRecord[]",
          "name": "",
          "type": "tuple[]"
        }
      ],
      "stateMutability": "view",
      "type": "function"
    },
    {
      "inputs": [],
      "name": "getVerificationCount",
      "outputs": [
        {
          "internalType": "uint256",
          "name": "",
          "type": "uint256"
        }
      ],
      "stateMutability": "view",
      "type": "function"
    },
    {
      "inputs": [
        {
          "internalType": "uint256",
          "name": "_index",
          "type": "uint256"
        }
      ],
      "name": "getVerificationRecord",
      "outputs": [
        {
          "components": [
            {
              "internalType": "address",
              "name": "auditor",
              "type": "address"
            },
            {
              "internalType": "uint256",
              "name": "timestamp",
              "type": "uint256"
            },
            {
              "internalType": "string",
              "name": "comments",
              "type": "string"
            },
            {
              "internalType": "bool",
              "name": "verificationPassed",
              "type": "bool"
            }
          ],
          "internalType": "struct ElectionVerification.VerificationRecord",
          "name": "",
          "type": "tuple"
        }
      ],
      "stateMutability": "view",
      "type": "function"
    },
    {
      "inputs": [],
      "name": "resultsContract",
      "outputs": [
        {
          "internalType": "contract ElectionResults",
          "name": "",
          "type": "address"
        }
      ],
      "stateMutability": "view",
      "type": "function"
    },
    {
      "inputs": [
        {
          "internalType": "string",
          "name": "_comments",
          "type": "string"
        },
        {
          "internalType": "bool",
          "name": "_verificationPassed",
          "type": "bool"
        }
      ],
      "name": "submitVerification",
      "outputs": [],
      "stateMutability": "nonpayable",
      "type": "function"
    },
    {
      "inputs": [
        {
          "internalType": "uint256",
          "name": "",
          "type": "uint256"
        }
      ],
      "name": "verificationRecords",
      "outputs": [
        {
          "internalType": "address",
          "name": "auditor",
          "type": "address"
        },
        {
          "internalType": "uint256",
          "name": "timestamp",
          "type": "uint256"
        },
        {
          "internalType": "string",
          "name": "comments",
          "type": "string"
        },
        {
          "internalType": "bool",
          "name": "verificationPassed",
          "type": "bool"
        }
      ],
      "stateMutability": "view",
      "type": "function"
    },
    {
      "inputs": [],
      "name": "verifyVoteCounts",
      "outputs": [
        {
          "internalType": "bool",
          "name": "",
          "type": "bool"
        }
      ],
      "stateMutability": "view",
      "type": "function"
    },
    {
      "inputs": [],
      "name": "voterContract",
      "outputs": [
        {
          "internalType": "contract VoterRegistration",
          "name": "",
          "type": "address"
        }
      ],
      "stateMutability": "view",
      "type": "function"
    },
    {
      "inputs": [],
      "name": "votingContract",
      "outputs": [
        {
          "internalType": "contract Voting",
          "name": "",
          "type": "address"
        }
      ],
      "stateMutability": "view",
      "type": "function"
    }
  ],
  "bytecode": "0x60806040523480156200001157600080fd5b506040516200234c3803806200234c8339818101604052810190620000379190620001ef565b336000806101000a81548173ffffffffffffffffffffffffffffffffffffffff021916908373ffffffffffffffffffffffffffffffffffffffff16021790555083600160006101000a81548173ffffffffffffffffffffffffffffffffffffffff021916908373ffffffffffffffffffffffffffffffffffffffff16021790555082600260006101000a81548173ffffffffffffffffffffffffffffffffffffffff021916908373ffffffffffffffffffffffffffffffffffffffff16021790555081600360006101000a81548173ffffffffffffffffffffffffffffffffffffffff021916908373ffffffffffffffffffffffffffffffffffffffff16021790555080600460006101000a81548173ffffffffffffffffffffffffffffffffffffffff021916908373ffffffffffffffffffffffffffffffffffffffff1602179055505050505062000261565b600080fd5b600073ffffffffffffffffffffffffffffffffffffffff82169050919050565b6000620001b7826200018a565b9050919050565b620001c981620001aa565b8114620001d557600080fd5b50565b600081519050620001e981620001be565b92915050565b600080600080608085870312156200020c576200020b62000185565b5b60006200021c87828801620001d8565b94505060206200022f87828801620001d8565b93505060406200024287828801620001d8565b92505060606200025587828801620001d8565b91505092959194509250565b6120db80620002716000396000f3fe608060405234801561001057600080fd5b50600436106100ea5760003560e01c80637e11cfdc1161008c578063b4a3a16211610066578063b4a3a1621461024f578063bfc87a841461026d578063c1fc006a146102a0578063e6610bc8146102be576100ea565b80637e11cfdc146101e5578063aab46b7f14610215578063adc191f114610233576100ea565b8063630d7d6a116100c8578063630d7d6a1461016f5780637ace3e791461018d5780637bce8e4e146101ab5780637e03238e146101c7576100ea565b80631f05b374146100ef5780632e98002b1461010d57806347f9aa9f1461013d575b600080fd5b6100f76102dc565b6040516101049190611140565b60405180910390f35b6101276004803603810190610122919061119b565b6102e9565b6040516101349190611326565b60405180910390f35b61015760048036038101906101529190611374565b610479565b60405161016693929190611409565b60405180910390f35b610177610558565b604051610184919061156c565b60405180910390f35b6101956106c4565b6040516101a291906115ed565b60405180910390f35b6101c560048036038101906101c09190611769565b6106ea565b005b6101cf6108b8565b6040516101dc91906117c5565b60405180910390f35b6101ff60048036038101906101fa91906117e0565b610b5f565b60405161020c9190611140565b60405180910390f35b61021d610d89565b60405161022a9190611829565b60405180910390f35b61024d60048036038101906102489190611844565b610dad565b005b610257610f80565b60405161026491906118c1565b60405180910390f35b6102876004803603810190610282919061119b565b610fa6565b60405161029794939291906118dc565b60405180910390f35b6102a861109b565b6040516102b59190611949565b60405180910390f35b6102c66110c1565b6040516102d39190611985565b60405180910390f35b6000600680549050905090565b6102f16110e7565b6006805490508210610338576040517f08c379a000000000000000000000000000000000000000000000000000000000815260040161032f906119ec565b60405180910390fd5b6006828154811061034c5761034b611a0c565b5b90600052602060002090600402016040518060800160405290816000820160009054906101000a900473ffffffffffffffffffffffffffffffffffffffff1673ffffffffffffffffffffffffffffffffffffffff1673ffffffffffffffffffffffffffffffffffffffff168152602001600182015481526020016002820180546103d590611a6a565b80601f016020809104026020016040519081016040528092919081815260200182805461040190611a6a565b801561044e5780601f106104235761010080835404028352916020019161044e565b820191906000526020600020905b81548152906001019060200180831161043157829003601f168201915b505050505081526020016003820160009054906101000a900460ff1615151515815250509050919050565b60056020528060005260406000206000915090508060000160009054906101000a900473ffffffffffffffffffffffffffffffffffffffff16908060010180546104c290611a6a565b80601f01602080910402602001604051908101604052809291908181526020018280546104ee90611a6a565b801561053b5780601f106105105761010080835404028352916020019161053b565b820191906000526020600020905b81548152906001019060200180831161051e57829003601f168201915b5050505050908060020160009054906101000a900460ff16905083565b60606006805480602002602001604051908101604052809291908181526020016000905b828210156106bb57838290600052602060002090600402016040518060800160405290816000820160009054906101000a900473ffffffffffffffffffffffffffffffffffffffff1673ffffffffffffffffffffffffffffffffffffffff1673ffffffffffffffffffffffffffffffffffffffff1681526020016001820154815260200160028201805461060f90611a6a565b80601f016020809104026020016040519081016040528092919081815260200182805461063b90611a6a565b80156106885780601f1061065d57610100808354040283529160200191610688565b820191906000526020600020905b81548152906001019060200180831161066b57829003601f168201915b505050505081526020016003820160009054906101000a900460ff1615151515815250508152602001906001019061057c565b50505050905090565b600260009054906101000a900473ffffffffffffffffffffffffffffffffffffffff1681565b600560003373ffffffffffffffffffffffffffffffffffffffff1673ffffffffffffffffffffffffffffffffffffffff16815260200190815260200160002060020160009054906101000a900460ff16610779576040517f08c379a000000000000000000000000000000000000000000000000000000000815260040161077090611b0d565b60405180910390fd5b600660405180608001604052803373ffffffffffffffffffffffffffffffffffffffff168152602001428152602001848152602001831515815250908060018154018082558091505060019003906000526020600020906004020160009091909190915060008201518160000160006101000a81548173ffffffffffffffffffffffffffffffffffffffff021916908373ffffffffffffffffffffffffffffffffffffffff1602179055506020820151816001015560408201518160020190816108439190611ccf565b5060608201518160030160006101000a81548160ff02191690831515021790555050503373ffffffffffffffffffffffffffffffffffffffff167fd1d482b5c22565a9f99b7cf53436104f195185943cd2a18f7294234cfeda41ef826040516108ac91906117c5565b60405180910390a25050565b600080600260009054906101000a900473ffffffffffffffffffffffffffffffffffffffff1673ffffffffffffffffffffffffffffffffffffffff16637de418d56040518163ffffffff1660e01b8152600401602060405180830381865afa158015610928573d6000803e3d6000fd5b505050506040513d601f19601f8201168201806040525081019061094c9190611db6565b9050600080600360009054906101000a900473ffffffffffffffffffffffffffffffffffffffff1673ffffffffffffffffffffffffffffffffffffffff1663793cf2186040518163ffffffff1660e01b8152600401602060405180830381865afa1580156109be573d6000803e3d6000fd5b505050506040513d601f19601f820116820180604052508101906109e29190611db6565b905060005b81811015610b53576000600360009054906101000a900473ffffffffffffffffffffffffffffffffffffffff1673ffffffffffffffffffffffffffffffffffffffff1663a873bb00836040518263ffffffff1660e01b8152600401610a4c9190611140565b602060405180830381865afa158015610a69573d6000803e3d6000fd5b505050506040513d601f19601f82011682018060405250810190610a8d9190611df8565b9050600360009054906101000a900473ffffffffffffffffffffffffffffffffffffffff1673ffffffffffffffffffffffffffffffffffffffff166309eef43e826040518263ffffffff1660e01b8152600401610aea9190611829565b602060405180830381865afa158015610b07573d6000803e3d6000fd5b505050506040513d601f19601f82011682018060405250810190610b2b9190611e3a565b15610b3f578380610b3b90611e96565b9450505b508080610b4b90611e96565b9150506109e7565b50818314935050505090565b6000600560003373ffffffffffffffffffffffffffffffffffffffff1673ffffffffffffffffffffffffffffffffffffffff16815260200190815260200160002060020160009054906101000a900460ff16610bf0576040517f08c379a0000000000000000000000000000000000000000000000000000000008152600401610be790611b0d565b60405180910390fd5b600380811115610c0357610c02611ede565b5b600160009054906101000a900473ffffffffffffffffffffffffffffffffffffffff1673ffffffffffffffffffffffffffffffffffffffff1663c19d93fb6040518163ffffffff1660e01b8152600401602060405180830381865afa158015610c70573d6000803e3d6000fd5b505050506040513d601f19601f82011682018060405250810190610c949190611f32565b6003811115610ca657610ca5611ede565b5b14610ce6576040517f08c379a0000000000000000000000000000000000000000000000000000000008152600401610cdd90611fd1565b60405180910390fd5b600160009054906101000a900473ffffffffffffffffffffffffffffffffffffffff1673ffffffffffffffffffffffffffffffffffffffff1663743cabe6836040518263ffffffff1660e01b8152600401610d419190611ff1565b602060405180830381865afa158015610d5e573d6000803e3d6000fd5b505050506040513d601f19601f82011682018060405250810190610d829190611db6565b9050919050565b60008054906101000a900473ffffffffffffffffffffffffffffffffffffffff1681565b60008054906101000a900473ffffffffffffffffffffffffffffffffffffffff1673ffffffffffffffffffffffffffffffffffffffff163373ffffffffffffffffffffffffffffffffffffffff1614610e3b576040517f08c379a0000000000000000000000000000000000000000000000000000000008152600401610e3290612085565b60405180910390fd5b60405180606001604052808373ffffffffffffffffffffffffffffffffffffffff16815260200182815260200160011515815250600560008473ffffffffffffffffffffffffffffffffffffffff1673ffffffffffffffffffffffffffffffffffffffff16815260200190815260200160002060008201518160000160006101000a81548173ffffffffffffffffffffffffffffffffffffffff021916908373ffffffffffffffffffffffffffffffffffffffff1602179055506020820151816001019081610f0a9190611ccf565b5060408201518160020160006101000a81548160ff0219169083151502179055509050508173ffffffffffffffffffffffffffffffffffffffff167fc8a4d575eab5df51c0aa35a94bb70abe389bc5f6aa7cbe1edd419133091cf3fa82604051610f749190611ff1565b60405180910390a25050565b600460009054906101000a900473ffffffffffffffffffffffffffffffffffffffff1681565b60068181548110610fb657600080fd5b90600052602060002090600402016000915090508060000160009054906101000a900473ffffffffffffffffffffffffffffffffffffffff169080600101549080600201805461100590611a6a565b80601f016020809104026020016040519081016040528092919081815260200182805461103190611a6a565b801561107e5780601f106110535761010080835404028352916020019161107e565b820191906000526020600020905b81548152906001019060200180831161106157829003601f168201915b5050505050908060030160009054906101000a900460ff16905084565b600160009054906101000a900473ffffffffffffffffffffffffffffffffffffffff1681565b600360009054906101000a900473ffffffffffffffffffffffffffffffffffffffff1681565b6040518060800160405280600073ffffffffffffffffffffffffffffffffffffffff16815260200160008152602001606081526020016000151581525090565b6000819050919050565b61113a81611127565b82525050565b60006020820190506111556000830184611131565b92915050565b6000604051905090565b600080fd5b600080fd5b61117881611127565b811461118357600080fd5b50565b6000813590506111958161116f565b92915050565b6000602082840312156111b1576111b0611165565b5b60006111bf84828501611186565b91505092915050565b600073ffffffffffffffffffffffffffffffffffffffff82169050919050565b60006111f3826111c8565b9050919050565b611203816111e8565b82525050565b61121281611127565b82525050565b600081519050919050565b600082825260208201905092915050565b60005b83811015611252578082015181840152602081019050611237565b60008484015250505050565b6000601f19601f8301169050919050565b600061127a82611218565b6112848185611223565b9350611294818560208601611234565b61129d8161125e565b840191505092915050565b60008115159050919050565b6112bd816112a8565b82525050565b60006080830160008301516112db60008601826111fa565b5060208301516112ee6020860182611209565b5060408301518482036040860152611306828261126f565b915050606083015161131b60608601826112b4565b508091505092915050565b6000602082019050818103600083015261134081846112c3565b905092915050565b611351816111e8565b811461135c57600080fd5b50565b60008135905061136e81611348565b92915050565b60006020828403121561138a57611389611165565b5b60006113988482850161135f565b91505092915050565b6113aa816111e8565b82525050565b600082825260208201905092915050565b60006113cc82611218565b6113d681856113b0565b93506113e6818560208601611234565b6113ef8161125e565b840191505092915050565b611403816112a8565b82525050565b600060608201905061141e60008301866113a1565b818103602083015261143081856113c1565b905061143f60408301846113fa565b949350505050565b600081519050919050565b600082825260208201905092915050565b6000819050602082019050919050565b600060808301600083015161148b60008601826111fa565b50602083015161149e6020860182611209565b50604083015184820360408601526114b6828261126f565b91505060608301516114cb60608601826112b4565b508091505092915050565b60006114e28383611473565b905092915050565b6000602082019050919050565b600061150282611447565b61150c8185611452565b93508360208202850161151e85611463565b8060005b8581101561155a578484038952815161153b85826114d6565b9450611546836114ea565b925060208a01995050600181019050611522565b50829750879550505050505092915050565b6000602082019050818103600083015261158681846114f7565b905092915050565b6000819050919050565b60006115b36115ae6115a9846111c8565b61158e565b6111c8565b9050919050565b60006115c582611598565b9050919050565b60006115d7826115ba565b9050919050565b6115e7816115cc565b82525050565b600060208201905061160260008301846115de565b92915050565b600080fd5b600080fd5b7f4e487b7100000000000000000000000000000000000000000000000000000000600052604160045260246000fd5b61164a8261125e565b810181811067ffffffffffffffff8211171561166957611668611612565b5b80604052505050565b600061167c61115b565b90506116888282611641565b919050565b600067ffffffffffffffff8211156116a8576116a7611612565b5b6116b18261125e565b9050602081019050919050565b82818337600083830152505050565b60006116e06116db8461168d565b611672565b9050828152602081018484840111156116fc576116fb61160d565b5b6117078482856116be565b509392505050565b600082601f83011261172457611723611608565b5b81356117348482602086016116cd565b91505092915050565b611746816112a8565b811461175157600080fd5b50565b6000813590506117638161173d565b92915050565b600080604083850312156117805761177f611165565b5b600083013567ffffffffffffffff81111561179e5761179d61116a565b5b6117aa8582860161170f565b92505060206117bb85828601611754565b9150509250929050565b60006020820190506117da60008301846113fa565b92915050565b6000602082840312156117f6576117f5611165565b5b600082013567ffffffffffffffff8111156118145761181361116a565b5b6118208482850161170f565b91505092915050565b600060208201905061183e60008301846113a1565b92915050565b6000806040838503121561185b5761185a611165565b5b60006118698582860161135f565b925050602083013567ffffffffffffffff81111561188a5761188961116a565b5b6118968582860161170f565b9150509250929050565b60006118ab826115ba565b9050919050565b6118bb816118a0565b82525050565b60006020820190506118d660008301846118b2565b92915050565b60006080820190506118f160008301876113a1565b6118fe6020830186611131565b818103604083015261191081856113c1565b905061191f60608301846113fa565b95945050505050565b6000611933826115ba565b9050919050565b61194381611928565b82525050565b600060208201905061195e600083018461193a565b92915050565b600061196f826115ba565b9050919050565b61197f81611964565b82525050565b600060208201905061199a6000830184611976565b92915050565b7f496e646578206f7574206f6620626f756e647300000000000000000000000000600082015250565b60006119d66013836113b0565b91506119e1826119a0565b602082019050919050565b60006020820190508181036000830152611a05816119c9565b9050919050565b7f4e487b7100000000000000000000000000000000000000000000000000000000600052603260045260246000fd5b7f4e487b7100000000000000000000000000000000000000000000000000000000600052602260045260246000fd5b60006002820490506001821680611a8257607f821691505b602082108103611a9557611a94611a3b565b5b50919050565b7f4f6e6c7920617070726f7665642061756469746f72732063616e20706572666f60008201527f726d207468697320616374696f6e000000000000000000000000000000000000602082015250565b6000611af7602e836113b0565b9150611b0282611a9b565b604082019050919050565b60006020820190508181036000830152611b2681611aea565b9050919050565b60008190508160005260206000209050919050565b60006020601f8301049050919050565b600082821b905092915050565b600060088302611b8f7fffffffffffffffffffffffffffffffffffffffffffffffffffffffffffffffff82611b52565b611b998683611b52565b95508019841693508086168417925050509392505050565b6000611bcc611bc7611bc284611127565b61158e565b611127565b9050919050565b6000819050919050565b611be683611bb1565b611bfa611bf282611bd3565b848454611b5f565b825550505050565b600090565b611c0f611c02565b611c1a818484611bdd565b505050565b5b81811015611c3e57611c33600082611c07565b600181019050611c20565b5050565b601f821115611c8357611c5481611b2d565b611c5d84611b42565b81016020851015611c6c578190505b611c80611c7885611b42565b830182611c1f565b50505b505050565b600082821c905092915050565b6000611ca660001984600802611c88565b1980831691505092915050565b6000611cbf8383611c95565b9150826002028217905092915050565b611cd882611218565b67ffffffffffffffff811115611cf157611cf0611612565b5b611cfb8254611a6a565b611d06828285611c42565b600060209050601f831160018114611d395760008415611d27578287015190505b611d318582611cb3565b865550611d99565b601f198416611d4786611b2d565b60005b82811015611d6f57848901518255600182019150602085019450602081019050611d4a565b86831015611d8c5784890151611d88601f891682611c95565b8355505b6001600288020188555050505b505050505050565b600081519050611db08161116f565b92915050565b600060208284031215611dcc57611dcb611165565b5b6000611dda84828501611da1565b91505092915050565b600081519050611df281611348565b92915050565b600060208284031215611e0e57611e0d611165565b5b6000611e1c84828501611de3565b91505092915050565b600081519050611e348161173d565b92915050565b600060208284031215611e5057611e4f611165565b5b6000611e5e84828501611e25565b91505092915050565b7f4e487b7100000000000000000000000000000000000000000000000000000000600052601160045260246000fd5b6000611ea182611127565b91507fffffffffffffffffffffffffffffffffffffffffffffffffffffffffffffffff8203611ed357611ed2611e67565b5b600182019050919050565b7f4e487b7100000000000000000000000000000000000000000000000000000000600052602160045260246000fd5b60048110611f1a57600080fd5b50565b600081519050611f2c81611f0d565b92915050565b600060208284031215611f4857611f47611165565b5b6000611f5684828501611f1d565b91505092915050565b7f456c656374696f6e206d75737420626520656e64656420666f7220766f74652060008201527f766572696669636174696f6e0000000000000000000000000000000000000000602082015250565b6000611fbb602c836113b0565b9150611fc682611f5f565b604082019050919050565b60006020820190508181036000830152611fea81611fae565b9050919050565b6000602082019050818103600083015261200b81846113c1565b905092915050565b7f4f6e6c7920656c656374696f6e20636f6d6d697373696f6e2063616e2070657260008201527f666f726d207468697320616374696f6e00000000000000000000000000000000602082015250565b600061206f6030836113b0565b915061207a82612013565b604082019050919050565b6000602082019050818103600083015261209e81612062565b905091905056fea264697066735822122049e0e5b247f0701be0985f032f4e306da4013189590d524a3bf8a322777ef0c764736f6c63430008140033",
  "linkReferences": {},
  "deployedLinkReferences": {}
}