{
  "_format": "hh-sol-artifact-1",
  "contractName": "CandidateRegistration",
  "sourceName": "contracts/CandidateRegistration.sol",
  "abi": [
    {
      "inputs": [],
      "stateMutability": "nonpayable",
      "type": "constructor"
    },
    {
      "anonymous": false,
      "inputs": [
        {
          "indexed": true,
          "internalType": "uint256",
          "name": "candidateID",
          "type": "uint256"
        },
        {
          "indexed": false,
          "internalType": "string",
          "name": "name",
          "type": "string"
        },
        {
          "indexed": false,
          "internalType": "string",
          "name": "party",
          "type": "string"
        }
      ],
      "name": "CandidateRegistered",
      "type": "event"
    },
    {
      "inputs": [],
      "name": "candidateCount",
      "outputs": [
        {
          "internalType": "uint256",
          "name": "",
          "type": "uint256"
        }
      ],
      "stateMutability": "view",
      "type": "function"
    },
    {
      "inputs": [
        {
          "internalType": "uint256",
          "name": "",
          "type": "uint256"
        }
      ],
      "name": "candidateIDs",
      "outputs": [
        {
          "internalType": "uint256",
          "name": "",
          "type": "uint256"
        }
      ],
      "stateMutability": "view",
      "type": "function"
    },
    {
      "inputs": [
        {
          "internalType": "uint256",
          "name": "",
          "type": "uint256"
        }
      ],
      "name": "candidates",
      "outputs": [
        {
          "internalType": "uint256",
          "name": "candidateID",
          "type": "uint256"
        },
        {
          "internalType": "string",
          "name": "nationalID",
          "type": "string"
        },
        {
          "internalType": "string",
          "name": "name",
          "type": "string"
        },
        {
          "internalType": "string",
          "name": "party",
          "type": "string"
        },
        {
          "internalType": "string",
          "name": "manifesto",
          "type": "string"
        },
        {
          "internalType": "bool",
          "name": "isRegistered",
          "type": "bool"
        }
      ],
      "stateMutability": "view",
      "type": "function"
    },
    {
      "inputs": [],
      "name": "electionCommission",
      "outputs": [
        {
          "internalType": "address",
          "name": "",
          "type": "address"
        }
      ],
      "stateMutability": "view",
      "type": "function"
    },
    {
      "inputs": [],
      "name": "getAllCandidateIDs",
      "outputs": [
        {
          "internalType": "uint256[]",
          "name": "",
          "type": "uint256[]"
        }
      ],
      "stateMutability": "view",
      "type": "function"
    },
    {
      "inputs": [
        {
          "internalType": "uint256",
          "name": "_candidateID",
          "type": "uint256"
        }
      ],
      "name": "getCandidate",
      "outputs": [
        {
          "components": [
            {
              "internalType": "uint256",
              "name": "candidateID",
              "type": "uint256"
            },
            {
              "internalType": "string",
              "name": "nationalID",
              "type": "string"
            },
            {
              "internalType": "string",
              "name": "name",
              "type": "string"
            },
            {
              "internalType": "string",
              "name": "party",
              "type": "string"
            },
            {
              "internalType": "string",
              "name": "manifesto",
              "type": "string"
            },
            {
              "internalType": "bool",
              "name": "isRegistered",
              "type": "bool"
            }
          ],
          "internalType": "struct CandidateRegistration.Candidate",
          "name": "",
          "type": "tuple"
        }
      ],
      "stateMutability": "view",
      "type": "function"
    },
    {
      "inputs": [
        {
          "internalType": "string",
          "name": "_nationalID",
          "type": "string"
        }
      ],
      "name": "getCandidateIDByNationalID",
      "outputs": [
        {
          "internalType": "uint256",
          "name": "",
          "type": "uint256"
        }
      ],
      "stateMutability": "view",
      "type": "function"
    },
    {
      "inputs": [],
      "name": "getTotalCandidates",
      "outputs": [
        {
          "internalType": "uint256",
          "name": "",
          "type": "uint256"
        }
      ],
      "stateMutability": "view",
      "type": "function"
    },
    {
      "inputs": [
        {
          "internalType": "string",
          "name": "_nationalID",
          "type": "string"
        }
      ],
      "name": "isRegisteredCandidateNationalID",
      "outputs": [
        {
          "internalType": "bool",
          "name": "",
          "type": "bool"
        }
      ],
      "stateMutability": "view",
      "type": "function"
    },
    {
      "inputs": [
        {
          "internalType": "uint256",
          "name": "_candidateID",
          "type": "uint256"
        }
      ],
      "name": "isValidCandidate",
      "outputs": [
        {
          "internalType": "bool",
          "name": "",
          "type": "bool"
        }
      ],
      "stateMutability": "view",
      "type": "function"
    },
    {
      "inputs": [
        {
          "internalType": "string",
          "name": "",
          "type": "string"
        }
      ],
      "name": "nationalIDToCandidateID",
      "outputs": [
        {
          "internalType": "uint256",
          "name": "",
          "type": "uint256"
        }
      ],
      "stateMutability": "view",
      "type": "function"
    },
    {
      "inputs": [
        {
          "internalType": "string",
          "name": "_nationalID",
          "type": "string"
        },
        {
          "internalType": "string",
          "name": "_name",
          "type": "string"
        },
        {
          "internalType": "string",
          "name": "_party",
          "type": "string"
        },
        {
          "internalType": "string",
          "name": "_manifesto",
          "type": "string"
        }
      ],
      "name": "registerCandidate",
      "outputs": [],
      "stateMutability": "nonpayable",
      "type": "function"
    },
    {
      "inputs": [
        {
          "internalType": "string",
          "name": "_nationalID",
          "type": "string"
        },
        {
          "internalType": "string",
          "name": "_name",
          "type": "string"
        },
        {
          "internalType": "string",
          "name": "_party",
          "type": "string"
        },
        {
          "internalType": "string",
          "name": "_manifesto",
          "type": "string"
        }
      ],
      "name": "selfRegisterAsCandidate",
      "outputs": [],
      "stateMutability": "nonpayable",
      "type": "function"
    }
  ],
  "bytecode": "0x608060405234801561001057600080fd5b50336000806101000a81548173ffffffffffffffffffffffffffffffffffffffff021916908373ffffffffffffffffffffffffffffffffffffffff1602179055506000600481905550611c3b806100686000396000f3fe608060405234801561001057600080fd5b50600436106100cf5760003560e01c80637aff6f911161008c578063a9a981a311610066578063a9a981a314610251578063aab46b7f1461026f578063bf98db681461028d578063dcc5a773146102bd576100cf565b80637aff6f91146101d5578063875b7bd6146101f15780638957f2ab14610221576100cf565b80630deb56ab146100d4578063152180d1146100f25780633477ee2e1461012257806335b8e820146101575780635323b8041461018757806370a56eed146101a5575b600080fd5b6100dc6102d9565b6040516100e99190610f23565b60405180910390f35b61010c60048036038101906101079190611098565b6102e3565b6040516101199190610f23565b60405180910390f35b61013c6004803603810190610137919061110d565b610311565b60405161014e969594939291906111d4565b60405180910390f35b610171600480360381019061016c919061110d565b61057a565b60405161017e9190611357565b60405180910390f35b61018f610877565b60405161019c9190611428565b60405180910390f35b6101bf60048036038101906101ba919061110d565b6108cf565b6040516101cc9190610f23565b60405180910390f35b6101ef60048036038101906101ea919061144a565b6108f3565b005b61020b60048036038101906102069190611098565b610ba0565b6040516102189190610f23565b60405180910390f35b61023b60048036038101906102369190611098565b610c10565b6040516102489190611521565b60405180910390f35b610259610c3b565b6040516102669190610f23565b60405180910390f35b610277610c41565b604051610284919061157d565b60405180910390f35b6102a760048036038101906102a2919061110d565b610c65565b6040516102b49190611521565b60405180910390f35b6102d760048036038101906102d2919061144a565b610c92565b005b6000600454905090565b6002818051602081018201805184825260208301602085012081835280955050505050506000915090505481565b600160205280600052604060002060009150905080600001549080600101805461033a906115c7565b80601f0160208091040260200160405190810160405280929190818152602001828054610366906115c7565b80156103b35780601f10610388576101008083540402835291602001916103b3565b820191906000526020600020905b81548152906001019060200180831161039657829003601f168201915b5050505050908060020180546103c8906115c7565b80601f01602080910402602001604051908101604052809291908181526020018280546103f4906115c7565b80156104415780601f1061041657610100808354040283529160200191610441565b820191906000526020600020905b81548152906001019060200180831161042457829003601f168201915b505050505090806003018054610456906115c7565b80601f0160208091040260200160405190810160405280929190818152602001828054610482906115c7565b80156104cf5780601f106104a4576101008083540402835291602001916104cf565b820191906000526020600020905b8154815290600101906020018083116104b257829003601f168201915b5050505050908060040180546104e4906115c7565b80601f0160208091040260200160405190810160405280929190818152602001828054610510906115c7565b801561055d5780601f106105325761010080835404028352916020019161055d565b820191906000526020600020905b81548152906001019060200180831161054057829003601f168201915b5050505050908060050160009054906101000a900460ff16905086565b610582610ed2565b6001600083815260200190815260200160002060050160009054906101000a900460ff166105e5576040517f08c379a00000000000000000000000000000000000000000000000000000000081526004016105dc90611644565b60405180910390fd5b600160008381526020019081526020016000206040518060c00160405290816000820154815260200160018201805461061d906115c7565b80601f0160208091040260200160405190810160405280929190818152602001828054610649906115c7565b80156106965780601f1061066b57610100808354040283529160200191610696565b820191906000526020600020905b81548152906001019060200180831161067957829003601f168201915b505050505081526020016002820180546106af906115c7565b80601f01602080910402602001604051908101604052809291908181526020018280546106db906115c7565b80156107285780601f106106fd57610100808354040283529160200191610728565b820191906000526020600020905b81548152906001019060200180831161070b57829003601f168201915b50505050508152602001600382018054610741906115c7565b80601f016020809104026020016040519081016040528092919081815260200182805461076d906115c7565b80156107ba5780601f1061078f576101008083540402835291602001916107ba565b820191906000526020600020905b81548152906001019060200180831161079d57829003601f168201915b505050505081526020016004820180546107d3906115c7565b80601f01602080910402602001604051908101604052809291908181526020018280546107ff906115c7565b801561084c5780601f106108215761010080835404028352916020019161084c565b820191906000526020600020905b81548152906001019060200180831161082f57829003601f168201915b505050505081526020016005820160009054906101000a900460ff1615151515815250509050919050565b606060038054806020026020016040519081016040528092919081815260200182805480156108c557602002820191906000526020600020905b8154815260200190600101908083116108b1575b5050505050905090565b600381815481106108df57600080fd5b906000526020600020016000915090505481565b60008054906101000a900473ffffffffffffffffffffffffffffffffffffffff1673ffffffffffffffffffffffffffffffffffffffff163373ffffffffffffffffffffffffffffffffffffffff1614610981576040517f08c379a0000000000000000000000000000000000000000000000000000000008152600401610978906116d6565b60405180910390fd5b61098a84610eb1565b6109c9576040517f08c379a00000000000000000000000000000000000000000000000000000000081526004016109c090611742565b60405180910390fd5b60006002856040516109db919061179e565b90815260200160405180910390205414610a2a576040517f08c379a0000000000000000000000000000000000000000000000000000000008152600401610a2190611827565b60405180910390fd5b60046000815480929190610a3d90611876565b91905055506040518060c00160405280600454815260200185815260200184815260200183815260200182815260200160011515815250600160006004548152602001908152602001600020600082015181600001556020820151816001019081610aa89190611a6a565b506040820151816002019081610abe9190611a6a565b506060820151816003019081610ad49190611a6a565b506080820151816004019081610aea9190611a6a565b5060a08201518160050160006101000a81548160ff021916908315150217905550905050600454600285604051610b21919061179e565b908152602001604051809103902081905550600360045490806001815401808255809150506001900390600052602060002001600090919091909150556004547f0ec1a365aeeec255796bf50d7a2a8f24d0d5f5c6ada0167b6c647428d91645828484604051610b92929190611b3c565b60405180910390a250505050565b600080600283604051610bb3919061179e565b908152602001604051809103902054905060008103610c07576040517f08c379a0000000000000000000000000000000000000000000000000000000008152600401610bfe90611be5565b60405180910390fd5b80915050919050565b600080600283604051610c23919061179e565b90815260200160405180910390205414159050919050565b60045481565b60008054906101000a900473ffffffffffffffffffffffffffffffffffffffff1681565b60006001600083815260200190815260200160002060050160009054906101000a900460ff169050919050565b610c9b84610eb1565b610cda576040517f08c379a0000000000000000000000000000000000000000000000000000000008152600401610cd190611742565b60405180910390fd5b6000600285604051610cec919061179e565b90815260200160405180910390205414610d3b576040517f08c379a0000000000000000000000000000000000000000000000000000000008152600401610d3290611827565b60405180910390fd5b60046000815480929190610d4e90611876565b91905055506040518060c00160405280600454815260200185815260200184815260200183815260200182815260200160011515815250600160006004548152602001908152602001600020600082015181600001556020820151816001019081610db99190611a6a565b506040820151816002019081610dcf9190611a6a565b506060820151816003019081610de59190611a6a565b506080820151816004019081610dfb9190611a6a565b5060a08201518160050160006101000a81548160ff021916908315150217905550905050600454600285604051610e32919061179e565b908152602001604051809103902081905550600360045490806001815401808255809150506001900390600052602060002001600090919091909150556004547f0ec1a365aeeec255796bf50d7a2a8f24d0d5f5c6ada0167b6c647428d91645828484604051610ea3929190611b3c565b60405180910390a250505050565b60008082905060008151118015610eca57506014815111155b915050919050565b6040518060c0016040528060008152602001606081526020016060815260200160608152602001606081526020016000151581525090565b6000819050919050565b610f1d81610f0a565b82525050565b6000602082019050610f386000830184610f14565b92915050565b6000604051905090565b600080fd5b600080fd5b600080fd5b600080fd5b6000601f19601f8301169050919050565b7f4e487b7100000000000000000000000000000000000000000000000000000000600052604160045260246000fd5b610fa582610f5c565b810181811067ffffffffffffffff82111715610fc457610fc3610f6d565b5b80604052505050565b6000610fd7610f3e565b9050610fe38282610f9c565b919050565b600067ffffffffffffffff82111561100357611002610f6d565b5b61100c82610f5c565b9050602081019050919050565b82818337600083830152505050565b600061103b61103684610fe8565b610fcd565b90508281526020810184848401111561105757611056610f57565b5b611062848285611019565b509392505050565b600082601f83011261107f5761107e610f52565b5b813561108f848260208601611028565b91505092915050565b6000602082840312156110ae576110ad610f48565b5b600082013567ffffffffffffffff8111156110cc576110cb610f4d565b5b6110d88482850161106a565b91505092915050565b6110ea81610f0a565b81146110f557600080fd5b50565b600081359050611107816110e1565b92915050565b60006020828403121561112357611122610f48565b5b6000611131848285016110f8565b91505092915050565b600081519050919050565b600082825260208201905092915050565b60005b83811015611174578082015181840152602081019050611159565b60008484015250505050565b600061118b8261113a565b6111958185611145565b93506111a5818560208601611156565b6111ae81610f5c565b840191505092915050565b60008115159050919050565b6111ce816111b9565b82525050565b600060c0820190506111e96000830189610f14565b81810360208301526111fb8188611180565b9050818103604083015261120f8187611180565b905081810360608301526112238186611180565b905081810360808301526112378185611180565b905061124660a08301846111c5565b979650505050505050565b61125a81610f0a565b82525050565b600082825260208201905092915050565b600061127c8261113a565b6112868185611260565b9350611296818560208601611156565b61129f81610f5c565b840191505092915050565b6112b3816111b9565b82525050565b600060c0830160008301516112d16000860182611251565b50602083015184820360208601526112e98282611271565b915050604083015184820360408601526113038282611271565b9150506060830151848203606086015261131d8282611271565b915050608083015184820360808601526113378282611271565b91505060a083015161134c60a08601826112aa565b508091505092915050565b6000602082019050818103600083015261137181846112b9565b905092915050565b600081519050919050565b600082825260208201905092915050565b6000819050602082019050919050565b60006113b18383611251565b60208301905092915050565b6000602082019050919050565b60006113d582611379565b6113df8185611384565b93506113ea83611395565b8060005b8381101561141b57815161140288826113a5565b975061140d836113bd565b9250506001810190506113ee565b5085935050505092915050565b6000602082019050818103600083015261144281846113ca565b905092915050565b6000806000806080858703121561146457611463610f48565b5b600085013567ffffffffffffffff81111561148257611481610f4d565b5b61148e8782880161106a565b945050602085013567ffffffffffffffff8111156114af576114ae610f4d565b5b6114bb8782880161106a565b935050604085013567ffffffffffffffff8111156114dc576114db610f4d565b5b6114e88782880161106a565b925050606085013567ffffffffffffffff81111561150957611508610f4d565b5b6115158782880161106a565b91505092959194509250565b600060208201905061153660008301846111c5565b92915050565b600073ffffffffffffffffffffffffffffffffffffffff82169050919050565b60006115678261153c565b9050919050565b6115778161155c565b82525050565b6000602082019050611592600083018461156e565b92915050565b7f4e487b7100000000000000000000000000000000000000000000000000000000600052602260045260246000fd5b600060028204905060018216806115df57607f821691505b6020821081036115f2576115f1611598565b5b50919050565b7f43616e646964617465206e6f7420726567697374657265640000000000000000600082015250565b600061162e601883611145565b9150611639826115f8565b602082019050919050565b6000602082019050818103600083015261165d81611621565b9050919050565b7f4f6e6c7920656c656374696f6e20636f6d6d697373696f6e2063616e2070657260008201527f666f726d207468697320616374696f6e00000000000000000000000000000000602082015250565b60006116c0603083611145565b91506116cb82611664565b604082019050919050565b600060208201905081810360008301526116ef816116b3565b9050919050565b7f496e76616c6964206e6174696f6e616c20494420666f726d6174000000000000600082015250565b600061172c601a83611145565b9150611737826116f6565b602082019050919050565b6000602082019050818103600083015261175b8161171f565b9050919050565b600081905092915050565b60006117788261113a565b6117828185611762565b9350611792818560208601611156565b80840191505092915050565b60006117aa828461176d565b915081905092915050565b7f43616e64696461746520776974682074686973206e6174696f6e616c2049442060008201527f616c726561647920726567697374657265640000000000000000000000000000602082015250565b6000611811603283611145565b915061181c826117b5565b604082019050919050565b6000602082019050818103600083015261184081611804565b9050919050565b7f4e487b7100000000000000000000000000000000000000000000000000000000600052601160045260246000fd5b600061188182610f0a565b91507fffffffffffffffffffffffffffffffffffffffffffffffffffffffffffffffff82036118b3576118b2611847565b5b600182019050919050565b60008190508160005260206000209050919050565b60006020601f8301049050919050565b600082821b905092915050565b6000600883026119207fffffffffffffffffffffffffffffffffffffffffffffffffffffffffffffffff826118e3565b61192a86836118e3565b95508019841693508086168417925050509392505050565b6000819050919050565b600061196761196261195d84610f0a565b611942565b610f0a565b9050919050565b6000819050919050565b6119818361194c565b61199561198d8261196e565b8484546118f0565b825550505050565b600090565b6119aa61199d565b6119b5818484611978565b505050565b5b818110156119d9576119ce6000826119a2565b6001810190506119bb565b5050565b601f821115611a1e576119ef816118be565b6119f8846118d3565b81016020851015611a07578190505b611a1b611a13856118d3565b8301826119ba565b50505b505050565b600082821c905092915050565b6000611a4160001984600802611a23565b1980831691505092915050565b6000611a5a8383611a30565b9150826002028217905092915050565b611a738261113a565b67ffffffffffffffff811115611a8c57611a8b610f6d565b5b611a9682546115c7565b611aa18282856119dd565b600060209050601f831160018114611ad45760008415611ac2578287015190505b611acc8582611a4e565b865550611b34565b601f198416611ae2866118be565b60005b82811015611b0a57848901518255600182019150602085019450602081019050611ae5565b86831015611b275784890151611b23601f891682611a30565b8355505b6001600288020188555050505b505050505050565b60006040820190508181036000830152611b568185611180565b90508181036020830152611b6a8184611180565b90509392505050565b7f4e6f2063616e64696461746520666f756e6420776974682074686973206e617460008201527f696f6e616c204944000000000000000000000000000000000000000000000000602082015250565b6000611bcf602883611145565b9150611bda82611b73565b604082019050919050565b60006020820190508181036000830152611bfe81611bc2565b905091905056fea264697066735822122047756f38a0cfbbb3de6dc1aae0d9bd6e2b9a55d8dac68346c0175a4b0644e6c064736f6c63430008140033",
  "linkReferences": {},
  "deployedLinkReferences": {}
}