{
  "_format": "hh-sol-artifact-1",
  "contractName": "ElectionResults",
  "sourceName": "contracts/ElectionResults.sol",
  "abi": [
    {
      "inputs": [
        {
          "internalType": "address",
          "name": "_votingAddress",
          "type": "address"
        },
        {
          "internalType": "address",
          "name": "_candidateAddress",
          "type": "address"
        },
        {
          "internalType": "address",
          "name": "_voterAddress",
          "type": "address"
        }
      ],
      "stateMutability": "nonpayable",
      "type": "constructor"
    },
    {
      "anonymous": false,
      "inputs": [
        {
          "indexed": true,
          "internalType": "uint256",
          "name": "winningCandidateID",
          "type": "uint256"
        },
        {
          "indexed": false,
          "internalType": "uint256",
          "name": "totalVotes",
          "type": "uint256"
        }
      ],
      "name": "ResultsFinalized",
      "type": "event"
    },
    {
      "inputs": [],
      "name": "candidateContract",
      "outputs": [
        {
          "internalType": "contract CandidateRegistration",
          "name": "",
          "type": "address"
        }
      ],
      "stateMutability": "view",
      "type": "function"
    },
    {
      "inputs": [],
      "name": "electionCommission",
      "outputs": [
        {
          "internalType": "address",
          "name": "",
          "type": "address"
        }
      ],
      "stateMutability": "view",
      "type": "function"
    },
    {
      "inputs": [],
      "name": "finalizeResults",
      "outputs": [],
      "stateMutability": "nonpayable",
      "type": "function"
    },
    {
      "inputs": [],
      "name": "getAllResults",
      "outputs": [
        {
          "components": [
            {
              "internalType": "uint256",
              "name": "candidateID",
              "type": "uint256"
            },
            {
              "internalType": "string",
              "name": "nationalID",
              "type": "string"
            },
            {
              "internalType": "string",
              "name": "candidateName",
              "type": "string"
            },
            {
              "internalType": "string",
              "name": "party",
              "type": "string"
            },
            {
              "internalType": "uint256",
              "name": "voteCount",
              "type": "uint256"
            }
          ],
          "internalType": "struct ElectionResults.ElectionResult[]",
          "name": "",
          "type": "tuple[]"
        }
      ],
      "stateMutability": "view",
      "type": "function"
    },
    {
      "inputs": [],
      "name": "getVoterTurnout",
      "outputs": [
        {
          "internalType": "uint256",
          "name": "",
          "type": "uint256"
        }
      ],
      "stateMutability": "view",
      "type": "function"
    },
    {
      "inputs": [],
      "name": "getWinner",
      "outputs": [
        {
          "components": [
            {
              "internalType": "uint256",
              "name": "candidateID",
              "type": "uint256"
            },
            {
              "internalType": "string",
              "name": "nationalID",
              "type": "string"
            },
            {
              "internalType": "string",
              "name": "candidateName",
              "type": "string"
            },
            {
              "internalType": "string",
              "name": "party",
              "type": "string"
            },
            {
              "internalType": "uint256",
              "name": "voteCount",
              "type": "uint256"
            }
          ],
          "internalType": "struct ElectionResults.ElectionResult",
          "name": "",
          "type": "tuple"
        }
      ],
      "stateMutability": "view",
      "type": "function"
    },
    {
      "inputs": [],
      "name": "resultFinalized",
      "outputs": [
        {
          "internalType": "bool",
          "name": "",
          "type": "bool"
        }
      ],
      "stateMutability": "view",
      "type": "function"
    },
    {
      "inputs": [],
      "name": "totalVotesCast",
      "outputs": [
        {
          "internalType": "uint256",
          "name": "",
          "type": "uint256"
        }
      ],
      "stateMutability": "view",
      "type": "function"
    },
    {
      "inputs": [],
      "name": "voterContract",
      "outputs": [
        {
          "internalType": "contract VoterRegistration",
          "name": "",
          "type": "address"
        }
      ],
      "stateMutability": "view",
      "type": "function"
    },
    {
      "inputs": [],
      "name": "votingContract",
      "outputs": [
        {
          "internalType": "contract Voting",
          "name": "",
          "type": "address"
        }
      ],
      "stateMutability": "view",
      "type": "function"
    },
    {
      "inputs": [],
      "name": "winningCandidateID",
      "outputs": [
        {
          "internalType": "uint256",
          "name": "",
          "type": "uint256"
        }
      ],
      "stateMutability": "view",
      "type": "function"
    }
  ],
  "bytecode": "0x60806040523480156200001157600080fd5b5060405162001b3338038062001b338339818101604052810190620000379190620001c8565b336000806101000a81548173ffffffffffffffffffffffffffffffffffffffff021916908373ffffffffffffffffffffffffffffffffffffffff16021790555082600160006101000a81548173ffffffffffffffffffffffffffffffffffffffff021916908373ffffffffffffffffffffffffffffffffffffffff16021790555081600260006101000a81548173ffffffffffffffffffffffffffffffffffffffff021916908373ffffffffffffffffffffffffffffffffffffffff16021790555080600360006101000a81548173ffffffffffffffffffffffffffffffffffffffff021916908373ffffffffffffffffffffffffffffffffffffffff1602179055506000600660006101000a81548160ff02191690831515021790555050505062000224565b600080fd5b600073ffffffffffffffffffffffffffffffffffffffff82169050919050565b6000620001908262000163565b9050919050565b620001a28162000183565b8114620001ae57600080fd5b50565b600081519050620001c28162000197565b92915050565b600080600060608486031215620001e457620001e36200015e565b5b6000620001f486828701620001b1565b93505060206200020786828701620001b1565b92505060406200021a86828701620001b1565b9150509250925092565b6118ff80620002346000396000f3fe608060405234801561001057600080fd5b50600436106100a95760003560e01c8063aab46b7f11610071578063aab46b7f14610144578063b4a3a16214610162578063b65ee3bc14610180578063c1fc006a1461019e578063e6610bc8146101bc578063f7d3d4f3146101da576100a9565b80631aae9ff3146100ae5780632fd0d870146100cc57806376d9be08146100ea5780637de418d5146101085780638e7ea5b214610126575b600080fd5b6100b66101e4565b6040516100c39190610c42565b60405180910390f35b6100d46101f7565b6040516100e19190610c76565b60405180910390f35b6100f26102c0565b6040516100ff9190610e76565b60405180910390f35b610110610595565b60405161011d9190610c76565b60405180910390f35b61012e61059b565b60405161013b9190610f1c565b60405180910390f35b61014c610777565b6040516101599190610f7f565b60405180910390f35b61016a61079b565b6040516101779190610ff9565b60405180910390f35b6101886107c1565b6040516101959190610c76565b60405180910390f35b6101a66107c7565b6040516101b39190611035565b60405180910390f35b6101c46107ed565b6040516101d19190611071565b60405180910390f35b6101e2610813565b005b600660009054906101000a900460ff1681565b600080600360009054906101000a900473ffffffffffffffffffffffffffffffffffffffff1673ffffffffffffffffffffffffffffffffffffffff1663793cf2186040518163ffffffff1660e01b8152600401602060405180830381865afa158015610267573d6000803e3d6000fd5b505050506040513d601f19601f8201168201806040525081019061028b91906110cc565b90506000810361029f5760009150506102bd565b8060646004546102af9190611128565b6102b99190611199565b9150505b90565b60606000600260009054906101000a900473ffffffffffffffffffffffffffffffffffffffff1673ffffffffffffffffffffffffffffffffffffffff16635323b8046040518163ffffffff1660e01b8152600401600060405180830381865afa158015610331573d6000803e3d6000fd5b505050506040513d6000823e3d601f19601f8201168201806040525081019061035a9190611312565b90506000815167ffffffffffffffff811115610379576103786111cf565b5b6040519080825280602002602001820160405280156103b257816020015b61039f610bf8565b8152602001906001900390816103975790505b50905060005b825181101561058c5760008382815181106103d6576103d561135b565b5b602002602001015190506000600260009054906101000a900473ffffffffffffffffffffffffffffffffffffffff1673ffffffffffffffffffffffffffffffffffffffff166335b8e820836040518263ffffffff1660e01b815260040161043d9190610c76565b600060405180830381865afa15801561045a573d6000803e3d6000fd5b505050506040513d6000823e3d601f19601f820116820180604052508101906104839190611576565b90506000600160009054906101000a900473ffffffffffffffffffffffffffffffffffffffff1673ffffffffffffffffffffffffffffffffffffffff1663b2c2f2e8846040518263ffffffff1660e01b81526004016104e29190610c76565b602060405180830381865afa1580156104ff573d6000803e3d6000fd5b505050506040513d601f19601f8201168201806040525081019061052391906110cc565b90506040518060a001604052808481526020018360200151815260200183604001518152602001836060015181526020018281525085858151811061056b5761056a61135b565b5b60200260200101819052505050508080610584906115bf565b9150506103b8565b50809250505090565b60045481565b6105a3610bf8565b600660009054906101000a900460ff166105f2576040517f08c379a00000000000000000000000000000000000000000000000000000000081526004016105e990611664565b60405180910390fd5b6000600260009054906101000a900473ffffffffffffffffffffffffffffffffffffffff1673ffffffffffffffffffffffffffffffffffffffff166335b8e8206005546040518263ffffffff1660e01b81526004016106519190610c76565b600060405180830381865afa15801561066e573d6000803e3d6000fd5b505050506040513d6000823e3d601f19601f820116820180604052508101906106979190611576565b90506000600160009054906101000a900473ffffffffffffffffffffffffffffffffffffffff1673ffffffffffffffffffffffffffffffffffffffff1663b2c2f2e86005546040518263ffffffff1660e01b81526004016106f89190610c76565b602060405180830381865afa158015610715573d6000803e3d6000fd5b505050506040513d601f19601f8201168201806040525081019061073991906110cc565b90506040518060a001604052806005548152602001836020015181526020018360400151815260200183606001518152602001828152509250505090565b60008054906101000a900473ffffffffffffffffffffffffffffffffffffffff1681565b600260009054906101000a900473ffffffffffffffffffffffffffffffffffffffff1681565b60055481565b600160009054906101000a900473ffffffffffffffffffffffffffffffffffffffff1681565b600360009054906101000a900473ffffffffffffffffffffffffffffffffffffffff1681565b60008054906101000a900473ffffffffffffffffffffffffffffffffffffffff1673ffffffffffffffffffffffffffffffffffffffff163373ffffffffffffffffffffffffffffffffffffffff16146108a1576040517f08c379a0000000000000000000000000000000000000000000000000000000008152600401610898906116f6565b60405180910390fd5b6003808111156108b4576108b3611716565b5b600160009054906101000a900473ffffffffffffffffffffffffffffffffffffffff1673ffffffffffffffffffffffffffffffffffffffff1663c19d93fb6040518163ffffffff1660e01b8152600401602060405180830381865afa158015610921573d6000803e3d6000fd5b505050506040513d601f19601f82011682018060405250810190610945919061176a565b600381111561095757610956611716565b5b14610997576040517f08c379a000000000000000000000000000000000000000000000000000000000815260040161098e90611809565b60405180910390fd5b600660009054906101000a900460ff16156109e7576040517f08c379a00000000000000000000000000000000000000000000000000000000081526004016109de90611875565b60405180910390fd5b60008060006004819055506000600260009054906101000a900473ffffffffffffffffffffffffffffffffffffffff1673ffffffffffffffffffffffffffffffffffffffff16635323b8046040518163ffffffff1660e01b8152600401600060405180830381865afa158015610a61573d6000803e3d6000fd5b505050506040513d6000823e3d601f19601f82011682018060405250810190610a8a9190611312565b905060005b8151811015610b94576000828281518110610aad57610aac61135b565b5b602002602001015190506000600160009054906101000a900473ffffffffffffffffffffffffffffffffffffffff1673ffffffffffffffffffffffffffffffffffffffff1663b2c2f2e8836040518263ffffffff1660e01b8152600401610b149190610c76565b602060405180830381865afa158015610b31573d6000803e3d6000fd5b505050506040513d601f19601f82011682018060405250810190610b5591906110cc565b90508060046000828254610b699190611895565b9250508190555085811115610b7f578095508194505b50508080610b8c906115bf565b915050610a8f565b50816005819055506001600660006101000a81548160ff0219169083151502179055506005547fee5a2462291e9ee9885408b1526abfa3ba1703fc262a787055eb8061750084e8600454604051610beb9190610c76565b60405180910390a2505050565b6040518060a0016040528060008152602001606081526020016060815260200160608152602001600081525090565b60008115159050919050565b610c3c81610c27565b82525050565b6000602082019050610c576000830184610c33565b92915050565b6000819050919050565b610c7081610c5d565b82525050565b6000602082019050610c8b6000830184610c67565b92915050565b600081519050919050565b600082825260208201905092915050565b6000819050602082019050919050565b610cc681610c5d565b82525050565b600081519050919050565b600082825260208201905092915050565b60005b83811015610d06578082015181840152602081019050610ceb565b60008484015250505050565b6000601f19601f8301169050919050565b6000610d2e82610ccc565b610d388185610cd7565b9350610d48818560208601610ce8565b610d5181610d12565b840191505092915050565b600060a083016000830151610d746000860182610cbd565b5060208301518482036020860152610d8c8282610d23565b91505060408301518482036040860152610da68282610d23565b91505060608301518482036060860152610dc08282610d23565b9150506080830151610dd56080860182610cbd565b508091505092915050565b6000610dec8383610d5c565b905092915050565b6000602082019050919050565b6000610e0c82610c91565b610e168185610c9c565b935083602082028501610e2885610cad565b8060005b85811015610e645784840389528151610e458582610de0565b9450610e5083610df4565b925060208a01995050600181019050610e2c565b50829750879550505050505092915050565b60006020820190508181036000830152610e908184610e01565b905092915050565b600060a083016000830151610eb06000860182610cbd565b5060208301518482036020860152610ec88282610d23565b91505060408301518482036040860152610ee28282610d23565b91505060608301518482036060860152610efc8282610d23565b9150506080830151610f116080860182610cbd565b508091505092915050565b60006020820190508181036000830152610f368184610e98565b905092915050565b600073ffffffffffffffffffffffffffffffffffffffff82169050919050565b6000610f6982610f3e565b9050919050565b610f7981610f5e565b82525050565b6000602082019050610f946000830184610f70565b92915050565b6000819050919050565b6000610fbf610fba610fb584610f3e565b610f9a565b610f3e565b9050919050565b6000610fd182610fa4565b9050919050565b6000610fe382610fc6565b9050919050565b610ff381610fd8565b82525050565b600060208201905061100e6000830184610fea565b92915050565b600061101f82610fc6565b9050919050565b61102f81611014565b82525050565b600060208201905061104a6000830184611026565b92915050565b600061105b82610fc6565b9050919050565b61106b81611050565b82525050565b60006020820190506110866000830184611062565b92915050565b6000604051905090565b600080fd5b600080fd5b6110a981610c5d565b81146110b457600080fd5b50565b6000815190506110c6816110a0565b92915050565b6000602082840312156110e2576110e1611096565b5b60006110f0848285016110b7565b91505092915050565b7f4e487b7100000000000000000000000000000000000000000000000000000000600052601160045260246000fd5b600061113382610c5d565b915061113e83610c5d565b925082820261114c81610c5d565b91508282048414831517611163576111626110f9565b5b5092915050565b7f4e487b7100000000000000000000000000000000000000000000000000000000600052601260045260246000fd5b60006111a482610c5d565b91506111af83610c5d565b9250826111bf576111be61116a565b5b828204905092915050565b600080fd5b7f4e487b7100000000000000000000000000000000000000000000000000000000600052604160045260246000fd5b61120782610d12565b810181811067ffffffffffffffff82111715611226576112256111cf565b5b80604052505050565b600061123961108c565b905061124582826111fe565b919050565b600067ffffffffffffffff821115611265576112646111cf565b5b602082029050602081019050919050565b600080fd5b600061128e6112898461124a565b61122f565b905080838252602082019050602084028301858111156112b1576112b0611276565b5b835b818110156112da57806112c688826110b7565b8452602084019350506020810190506112b3565b5050509392505050565b600082601f8301126112f9576112f86111ca565b5b815161130984826020860161127b565b91505092915050565b60006020828403121561132857611327611096565b5b600082015167ffffffffffffffff8111156113465761134561109b565b5b611352848285016112e4565b91505092915050565b7f4e487b7100000000000000000000000000000000000000000000000000000000600052603260045260246000fd5b600080fd5b600080fd5b600080fd5b600067ffffffffffffffff8211156113b4576113b36111cf565b5b6113bd82610d12565b9050602081019050919050565b60006113dd6113d884611399565b61122f565b9050828152602081018484840111156113f9576113f8611394565b5b611404848285610ce8565b509392505050565b600082601f830112611421576114206111ca565b5b81516114318482602086016113ca565b91505092915050565b61144381610c27565b811461144e57600080fd5b50565b6000815190506114608161143a565b92915050565b600060c0828403121561147c5761147b61138a565b5b61148660c061122f565b90506000611496848285016110b7565b600083015250602082015167ffffffffffffffff8111156114ba576114b961138f565b5b6114c68482850161140c565b602083015250604082015167ffffffffffffffff8111156114ea576114e961138f565b5b6114f68482850161140c565b604083015250606082015167ffffffffffffffff81111561151a5761151961138f565b5b6115268482850161140c565b606083015250608082015167ffffffffffffffff81111561154a5761154961138f565b5b6115568482850161140c565b60808301525060a061156a84828501611451565b60a08301525092915050565b60006020828403121561158c5761158b611096565b5b600082015167ffffffffffffffff8111156115aa576115a961109b565b5b6115b684828501611466565b91505092915050565b60006115ca82610c5d565b91507fffffffffffffffffffffffffffffffffffffffffffffffffffffffffffffffff82036115fc576115fb6110f9565b5b600182019050919050565b600082825260208201905092915050565b7f526573756c7473206e6f742066696e616c697a65642079657400000000000000600082015250565b600061164e601983611607565b915061165982611618565b602082019050919050565b6000602082019050818103600083015261167d81611641565b9050919050565b7f4f6e6c7920656c656374696f6e20636f6d6d697373696f6e2063616e2070657260008201527f666f726d207468697320616374696f6e00000000000000000000000000000000602082015250565b60006116e0603083611607565b91506116eb82611684565b604082019050919050565b6000602082019050818103600083015261170f816116d3565b9050919050565b7f4e487b7100000000000000000000000000000000000000000000000000000000600052602160045260246000fd5b6004811061175257600080fd5b50565b60008151905061176481611745565b92915050565b6000602082840312156117805761177f611096565b5b600061178e84828501611755565b91505092915050565b7f456c656374696f6e206d75737420626520656e646564206265666f726520666960008201527f6e616c697a696e6720726573756c747300000000000000000000000000000000602082015250565b60006117f3603083611607565b91506117fe82611797565b604082019050919050565b60006020820190508181036000830152611822816117e6565b9050919050565b7f526573756c747320616c72656164792066696e616c697a656400000000000000600082015250565b600061185f601983611607565b915061186a82611829565b602082019050919050565b6000602082019050818103600083015261188e81611852565b9050919050565b60006118a082610c5d565b91506118ab83610c5d565b92508282019050808211156118c3576118c26110f9565b5b9291505056fea2646970667358221220bd9e2ccf80c518759661f8195444ffb7df71e94ded245f2123ef1e4e99f057da64736f6c63430008140033",
  "linkReferences": {},
  "deployedLinkReferences": {}
}