{
  "_format": "hh-sol-artifact-1",
  "contractName": "VoterRegistration",
  "sourceName": "contracts/VoterRegistration.sol",
  "abi": [
    {
      "inputs": [],
      "stateMutability": "nonpayable",
      "type": "constructor"
    },
    {
      "anonymous": false,
      "inputs": [
        {
          "indexed": true,
          "internalType": "address",
          "name": "voterAddress",
          "type": "address"
        },
        {
          "indexed": false,
          "internalType": "string",
          "name": "nationalID",
          "type": "string"
        }
      ],
      "name": "VoterRegistered",
      "type": "event"
    },
    {
      "anonymous": false,
      "inputs": [
        {
          "indexed": true,
          "internalType": "address",
          "name": "voterAddress",
          "type": "address"
        },
        {
          "indexed": false,
          "internalType": "bool",
          "name": "hasVoted",
          "type": "bool"
        }
      ],
      "name": "VoterStatusUpdated",
      "type": "event"
    },
    {
      "anonymous": false,
      "inputs": [
        {
          "indexed": true,
          "internalType": "address",
          "name": "voterAddress",
          "type": "address"
        },
        {
          "indexed": false,
          "internalType": "string",
          "name": "nationalID",
          "type": "string"
        }
      ],
      "name": "VotingTokenAssigned",
      "type": "event"
    },
    {
      "inputs": [],
      "name": "electionCommission",
      "outputs": [
        {
          "internalType": "address",
          "name": "",
          "type": "address"
        }
      ],
      "stateMutability": "view",
      "type": "function"
    },
    {
      "inputs": [],
      "name": "getTotalVoters",
      "outputs": [
        {
          "internalType": "uint256",
          "name": "",
          "type": "uint256"
        }
      ],
      "stateMutability": "view",
      "type": "function"
    },
    {
      "inputs": [
        {
          "internalType": "address",
          "name": "_voterAddress",
          "type": "address"
        }
      ],
      "name": "getVoterNationalID",
      "outputs": [
        {
          "internalType": "string",
          "name": "",
          "type": "string"
        }
      ],
      "stateMutability": "view",
      "type": "function"
    },
    {
      "inputs": [
        {
          "internalType": "address",
          "name": "_voterAddress",
          "type": "address"
        }
      ],
      "name": "hasVoted",
      "outputs": [
        {
          "internalType": "bool",
          "name": "",
          "type": "bool"
        }
      ],
      "stateMutability": "view",
      "type": "function"
    },
    {
      "inputs": [
        {
          "internalType": "string",
          "name": "_nationalID",
          "type": "string"
        }
      ],
      "name": "isRegisteredNationalID",
      "outputs": [
        {
          "internalType": "bool",
          "name": "",
          "type": "bool"
        }
      ],
      "stateMutability": "view",
      "type": "function"
    },
    {
      "inputs": [
        {
          "internalType": "address",
          "name": "_voterAddress",
          "type": "address"
        }
      ],
      "name": "isRegisteredVoter",
      "outputs": [
        {
          "internalType": "bool",
          "name": "",
          "type": "bool"
        }
      ],
      "stateMutability": "view",
      "type": "function"
    },
    {
      "inputs": [
        {
          "internalType": "address",
          "name": "_voterAddress",
          "type": "address"
        }
      ],
      "name": "markVoted",
      "outputs": [],
      "stateMutability": "nonpayable",
      "type": "function"
    },
    {
      "inputs": [
        {
          "internalType": "string",
          "name": "",
          "type": "string"
        }
      ],
      "name": "nationalIDToAddress",
      "outputs": [
        {
          "internalType": "address",
          "name": "",
          "type": "address"
        }
      ],
      "stateMutability": "view",
      "type": "function"
    },
    {
      "inputs": [
        {
          "internalType": "address",
          "name": "_voterAddress",
          "type": "address"
        },
        {
          "internalType": "string",
          "name": "_nationalID",
          "type": "string"
        },
        {
          "internalType": "string",
          "name": "_name",
          "type": "string"
        }
      ],
      "name": "registerVoter",
      "outputs": [],
      "stateMutability": "nonpayable",
      "type": "function"
    },
    {
      "inputs": [
        {
          "internalType": "uint256",
          "name": "",
          "type": "uint256"
        }
      ],
      "name": "registeredVoterAddresses",
      "outputs": [
        {
          "internalType": "address",
          "name": "",
          "type": "address"
        }
      ],
      "stateMutability": "view",
      "type": "function"
    },
    {
      "inputs": [
        {
          "internalType": "string",
          "name": "_nationalID",
          "type": "string"
        },
        {
          "internalType": "string",
          "name": "_name",
          "type": "string"
        }
      ],
      "name": "selfRegister",
      "outputs": [],
      "stateMutability": "nonpayable",
      "type": "function"
    },
    {
      "inputs": [
        {
          "internalType": "address",
          "name": "_votingTokenAddress",
          "type": "address"
        }
      ],
      "name": "setVotingToken",
      "outputs": [],
      "stateMutability": "nonpayable",
      "type": "function"
    },
    {
      "inputs": [],
      "name": "voterCount",
      "outputs": [
        {
          "internalType": "uint256",
          "name": "",
          "type": "uint256"
        }
      ],
      "stateMutability": "view",
      "type": "function"
    },
    {
      "inputs": [
        {
          "internalType": "address",
          "name": "",
          "type": "address"
        }
      ],
      "name": "voters",
      "outputs": [
        {
          "internalType": "bool",
          "name": "isRegistered",
          "type": "bool"
        },
        {
          "internalType": "bool",
          "name": "hasVoted",
          "type": "bool"
        },
        {
          "internalType": "string",
          "name": "nationalID",
          "type": "string"
        },
        {
          "internalType": "string",
          "name": "name",
          "type": "string"
        }
      ],
      "stateMutability": "view",
      "type": "function"
    },
    {
      "inputs": [],
      "name": "votingToken",
      "outputs": [
        {
          "internalType": "contract VotingToken",
          "name": "",
          "type": "address"
        }
      ],
      "stateMutability": "view",
      "type": "function"
    }
  ],
  "bytecode": "0x608060405234801561001057600080fd5b50336000806101000a81548173ffffffffffffffffffffffffffffffffffffffff021916908373ffffffffffffffffffffffffffffffffffffffff16021790555060006005819055506120f9806100686000396000f3fe608060405234801561001057600080fd5b50600436106100f55760003560e01c8063a873bb0011610097578063b0c85c0311610066578063b0c85c031461029d578063bb8fab8e146102cd578063da36cffe146102e9578063e2d7462814610319576100f5565b8063a873bb0014610215578063a8fd0cfa14610245578063aab46b7f14610261578063b03401231461027f576100f5565b806342169e48116100d357806342169e481461017657806355c7a35814610194578063793cf218146101c4578063a3ec138d146101e2576100f5565b806309eef43e146100fa5780631ba9de5e1461012a57806333f04dcf14610146575b600080fd5b610114600480360381019061010f919061152d565b610335565b6040516101219190611575565b60405180910390f35b610144600480360381019061013f91906116d6565b61038e565b005b610160600480360381019061015b919061152d565b610846565b60405161016d91906117cd565b60405180910390f35b61017e6109a9565b60405161018b9190611808565b60405180910390f35b6101ae60048036038101906101a99190611823565b6109af565b6040516101bb919061187b565b60405180910390f35b6101cc6109f8565b6040516101d99190611808565b60405180910390f35b6101fc60048036038101906101f7919061152d565b610a02565b60405161020c9493929190611896565b60405180910390f35b61022f600480360381019061022a9190611915565b610b5c565b60405161023c919061187b565b60405180910390f35b61025f600480360381019061025a919061152d565b610b9b565b005b610269610d67565b604051610276919061187b565b60405180910390f35b610287610d8b565b60405161029491906119a1565b60405180910390f35b6102b760048036038101906102b29190611823565b610db1565b6040516102c49190611575565b60405180910390f35b6102e760048036038101906102e291906119bc565b610e28565b005b61030360048036038101906102fe919061152d565b61136f565b6040516103109190611575565b60405180910390f35b610333600480360381019061032e919061152d565b6113c8565b005b6000600260008373ffffffffffffffffffffffffffffffffffffffff1673ffffffffffffffffffffffffffffffffffffffff16815260200190815260200160002060000160019054906101000a900460ff169050919050565b600260003373ffffffffffffffffffffffffffffffffffffffff1673ffffffffffffffffffffffffffffffffffffffff16815260200190815260200160002060000160009054906101000a900460ff161561041e576040517f08c379a000000000000000000000000000000000000000000000000000000000815260040161041590611a93565b60405180910390fd5b6104278261149a565b610466576040517f08c379a000000000000000000000000000000000000000000000000000000000815260040161045d90611aff565b60405180910390fd5b600073ffffffffffffffffffffffffffffffffffffffff1660038360405161048e9190611b5b565b908152602001604051809103902060009054906101000a900473ffffffffffffffffffffffffffffffffffffffff1673ffffffffffffffffffffffffffffffffffffffff1614610513576040517f08c379a000000000000000000000000000000000000000000000000000000000815260040161050a90611bbe565b60405180910390fd5b6005600081548092919061052690611c0d565b9190505550604051806080016040528060011515815260200160001515815260200183815260200182815250600260003373ffffffffffffffffffffffffffffffffffffffff1673ffffffffffffffffffffffffffffffffffffffff16815260200190815260200160002060008201518160000160006101000a81548160ff02191690831515021790555060208201518160000160016101000a81548160ff02191690831515021790555060408201518160010190816105e69190611e57565b5060608201518160020190816105fc9190611e57565b50905050336003836040516106119190611b5b565b908152602001604051809103902060006101000a81548173ffffffffffffffffffffffffffffffffffffffff021916908373ffffffffffffffffffffffffffffffffffffffff1602179055506004339080600181540180825580915050600190039060005260206000200160009091909190916101000a81548173ffffffffffffffffffffffffffffffffffffffff021916908373ffffffffffffffffffffffffffffffffffffffff160217905550600073ffffffffffffffffffffffffffffffffffffffff16600160009054906101000a900473ffffffffffffffffffffffffffffffffffffffff1673ffffffffffffffffffffffffffffffffffffffff16146107f457600160009054906101000a900473ffffffffffffffffffffffffffffffffffffffff1673ffffffffffffffffffffffffffffffffffffffff1663c8fcb28c33846040518363ffffffff1660e01b8152600401610773929190611f29565b600060405180830381600087803b15801561078d57600080fd5b505af11580156107a1573d6000803e3d6000fd5b505050503373ffffffffffffffffffffffffffffffffffffffff167f014d1935b11ae61699aae84c1f62dee77139f9fb98a7b27b8f88890a77ee87f8836040516107eb91906117cd565b60405180910390a25b3373ffffffffffffffffffffffffffffffffffffffff167fffeb7702be7dcd8fee170d954b70afb9a7c78f7f5cff232d037e7b9d8243356a8360405161083a91906117cd565b60405180910390a25050565b6060600260008373ffffffffffffffffffffffffffffffffffffffff1673ffffffffffffffffffffffffffffffffffffffff16815260200190815260200160002060000160009054906101000a900460ff166108d7576040517f08c379a00000000000000000000000000000000000000000000000000000000081526004016108ce90611fa5565b60405180910390fd5b600260008373ffffffffffffffffffffffffffffffffffffffff1673ffffffffffffffffffffffffffffffffffffffff168152602001908152602001600020600101805461092490611c84565b80601f016020809104026020016040519081016040528092919081815260200182805461095090611c84565b801561099d5780601f106109725761010080835404028352916020019161099d565b820191906000526020600020905b81548152906001019060200180831161098057829003601f168201915b50505050509050919050565b60055481565b6003818051602081018201805184825260208301602085012081835280955050505050506000915054906101000a900473ffffffffffffffffffffffffffffffffffffffff1681565b6000600554905090565b60026020528060005260406000206000915090508060000160009054906101000a900460ff16908060000160019054906101000a900460ff1690806001018054610a4b90611c84565b80601f0160208091040260200160405190810160405280929190818152602001828054610a7790611c84565b8015610ac45780601f10610a9957610100808354040283529160200191610ac4565b820191906000526020600020905b815481529060010190602001808311610aa757829003601f168201915b505050505090806002018054610ad990611c84565b80601f0160208091040260200160405190810160405280929190818152602001828054610b0590611c84565b8015610b525780601f10610b2757610100808354040283529160200191610b52565b820191906000526020600020905b815481529060010190602001808311610b3557829003601f168201915b5050505050905084565b60048181548110610b6c57600080fd5b906000526020600020016000915054906101000a900473ffffffffffffffffffffffffffffffffffffffff1681565b600260008273ffffffffffffffffffffffffffffffffffffffff1673ffffffffffffffffffffffffffffffffffffffff16815260200190815260200160002060000160009054906101000a900460ff16610c2a576040517f08c379a0000000000000000000000000000000000000000000000000000000008152600401610c2190611fa5565b60405180910390fd5b600260008273ffffffffffffffffffffffffffffffffffffffff1673ffffffffffffffffffffffffffffffffffffffff16815260200190815260200160002060000160019054906101000a900460ff1615610cba576040517f08c379a0000000000000000000000000000000000000000000000000000000008152600401610cb190612011565b60405180910390fd5b6001600260008373ffffffffffffffffffffffffffffffffffffffff1673ffffffffffffffffffffffffffffffffffffffff16815260200190815260200160002060000160016101000a81548160ff0219169083151502179055508073ffffffffffffffffffffffffffffffffffffffff167f930092ace8157b2101bc333d8c3951d9a4cf5cb98ec4890e25b6b5ae155f080b6001604051610d5c9190611575565b60405180910390a250565b60008054906101000a900473ffffffffffffffffffffffffffffffffffffffff1681565b600160009054906101000a900473ffffffffffffffffffffffffffffffffffffffff1681565b60008073ffffffffffffffffffffffffffffffffffffffff16600383604051610dda9190611b5b565b908152602001604051809103902060009054906101000a900473ffffffffffffffffffffffffffffffffffffffff1673ffffffffffffffffffffffffffffffffffffffff1614159050919050565b60008054906101000a900473ffffffffffffffffffffffffffffffffffffffff1673ffffffffffffffffffffffffffffffffffffffff163373ffffffffffffffffffffffffffffffffffffffff1614610eb6576040517f08c379a0000000000000000000000000000000000000000000000000000000008152600401610ead906120a3565b60405180910390fd5b600260008473ffffffffffffffffffffffffffffffffffffffff1673ffffffffffffffffffffffffffffffffffffffff16815260200190815260200160002060000160009054906101000a900460ff1615610f46576040517f08c379a0000000000000000000000000000000000000000000000000000000008152600401610f3d90611a93565b60405180910390fd5b610f4f8261149a565b610f8e576040517f08c379a0000000000000000000000000000000000000000000000000000000008152600401610f8590611aff565b60405180910390fd5b600073ffffffffffffffffffffffffffffffffffffffff16600383604051610fb69190611b5b565b908152602001604051809103902060009054906101000a900473ffffffffffffffffffffffffffffffffffffffff1673ffffffffffffffffffffffffffffffffffffffff161461103b576040517f08c379a000000000000000000000000000000000000000000000000000000000815260040161103290611bbe565b60405180910390fd5b6005600081548092919061104e90611c0d565b9190505550604051806080016040528060011515815260200160001515815260200183815260200182815250600260008573ffffffffffffffffffffffffffffffffffffffff1673ffffffffffffffffffffffffffffffffffffffff16815260200190815260200160002060008201518160000160006101000a81548160ff02191690831515021790555060208201518160000160016101000a81548160ff021916908315150217905550604082015181600101908161110e9190611e57565b5060608201518160020190816111249190611e57565b50905050826003836040516111399190611b5b565b908152602001604051809103902060006101000a81548173ffffffffffffffffffffffffffffffffffffffff021916908373ffffffffffffffffffffffffffffffffffffffff1602179055506004839080600181540180825580915050600190039060005260206000200160009091909190916101000a81548173ffffffffffffffffffffffffffffffffffffffff021916908373ffffffffffffffffffffffffffffffffffffffff160217905550600073ffffffffffffffffffffffffffffffffffffffff16600160009054906101000a900473ffffffffffffffffffffffffffffffffffffffff1673ffffffffffffffffffffffffffffffffffffffff161461131c57600160009054906101000a900473ffffffffffffffffffffffffffffffffffffffff1673ffffffffffffffffffffffffffffffffffffffff1663c8fcb28c84846040518363ffffffff1660e01b815260040161129b929190611f29565b600060405180830381600087803b1580156112b557600080fd5b505af11580156112c9573d6000803e3d6000fd5b505050508273ffffffffffffffffffffffffffffffffffffffff167f014d1935b11ae61699aae84c1f62dee77139f9fb98a7b27b8f88890a77ee87f88360405161131391906117cd565b60405180910390a25b8273ffffffffffffffffffffffffffffffffffffffff167fffeb7702be7dcd8fee170d954b70afb9a7c78f7f5cff232d037e7b9d8243356a8360405161136291906117cd565b60405180910390a2505050565b6000600260008373ffffffffffffffffffffffffffffffffffffffff1673ffffffffffffffffffffffffffffffffffffffff16815260200190815260200160002060000160009054906101000a900460ff169050919050565b60008054906101000a900473ffffffffffffffffffffffffffffffffffffffff1673ffffffffffffffffffffffffffffffffffffffff163373ffffffffffffffffffffffffffffffffffffffff1614611456576040517f08c379a000000000000000000000000000000000000000000000000000000000815260040161144d906120a3565b60405180910390fd5b80600160006101000a81548173ffffffffffffffffffffffffffffffffffffffff021916908373ffffffffffffffffffffffffffffffffffffffff16021790555050565b600080829050600081511180156114b357506014815111155b915050919050565b6000604051905090565b600080fd5b600080fd5b600073ffffffffffffffffffffffffffffffffffffffff82169050919050565b60006114fa826114cf565b9050919050565b61150a816114ef565b811461151557600080fd5b50565b60008135905061152781611501565b92915050565b600060208284031215611543576115426114c5565b5b600061155184828501611518565b91505092915050565b60008115159050919050565b61156f8161155a565b82525050565b600060208201905061158a6000830184611566565b92915050565b600080fd5b600080fd5b6000601f19601f8301169050919050565b7f4e487b7100000000000000000000000000000000000000000000000000000000600052604160045260246000fd5b6115e38261159a565b810181811067ffffffffffffffff82111715611602576116016115ab565b5b80604052505050565b60006116156114bb565b905061162182826115da565b919050565b600067ffffffffffffffff821115611641576116406115ab565b5b61164a8261159a565b9050602081019050919050565b82818337600083830152505050565b600061167961167484611626565b61160b565b90508281526020810184848401111561169557611694611595565b5b6116a0848285611657565b509392505050565b600082601f8301126116bd576116bc611590565b5b81356116cd848260208601611666565b91505092915050565b600080604083850312156116ed576116ec6114c5565b5b600083013567ffffffffffffffff81111561170b5761170a6114ca565b5b611717858286016116a8565b925050602083013567ffffffffffffffff811115611738576117376114ca565b5b611744858286016116a8565b9150509250929050565b600081519050919050565b600082825260208201905092915050565b60005b8381101561178857808201518184015260208101905061176d565b60008484015250505050565b600061179f8261174e565b6117a98185611759565b93506117b981856020860161176a565b6117c28161159a565b840191505092915050565b600060208201905081810360008301526117e78184611794565b905092915050565b6000819050919050565b611802816117ef565b82525050565b600060208201905061181d60008301846117f9565b92915050565b600060208284031215611839576118386114c5565b5b600082013567ffffffffffffffff811115611857576118566114ca565b5b611863848285016116a8565b91505092915050565b611875816114ef565b82525050565b6000602082019050611890600083018461186c565b92915050565b60006080820190506118ab6000830187611566565b6118b86020830186611566565b81810360408301526118ca8185611794565b905081810360608301526118de8184611794565b905095945050505050565b6118f2816117ef565b81146118fd57600080fd5b50565b60008135905061190f816118e9565b92915050565b60006020828403121561192b5761192a6114c5565b5b600061193984828501611900565b91505092915050565b6000819050919050565b600061196761196261195d846114cf565b611942565b6114cf565b9050919050565b60006119798261194c565b9050919050565b600061198b8261196e565b9050919050565b61199b81611980565b82525050565b60006020820190506119b66000830184611992565b92915050565b6000806000606084860312156119d5576119d46114c5565b5b60006119e386828701611518565b935050602084013567ffffffffffffffff811115611a0457611a036114ca565b5b611a10868287016116a8565b925050604084013567ffffffffffffffff811115611a3157611a306114ca565b5b611a3d868287016116a8565b9150509250925092565b7f566f74657220616c726561647920726567697374657265640000000000000000600082015250565b6000611a7d601883611759565b9150611a8882611a47565b602082019050919050565b60006020820190508181036000830152611aac81611a70565b9050919050565b7f496e76616c6964206e6174696f6e616c20494420666f726d6174000000000000600082015250565b6000611ae9601a83611759565b9150611af482611ab3565b602082019050919050565b60006020820190508181036000830152611b1881611adc565b9050919050565b600081905092915050565b6000611b358261174e565b611b3f8185611b1f565b9350611b4f81856020860161176a565b80840191505092915050565b6000611b678284611b2a565b915081905092915050565b7f4e6174696f6e616c20494420616c726561647920726567697374657265640000600082015250565b6000611ba8601e83611759565b9150611bb382611b72565b602082019050919050565b60006020820190508181036000830152611bd781611b9b565b9050919050565b7f4e487b7100000000000000000000000000000000000000000000000000000000600052601160045260246000fd5b6000611c18826117ef565b91507fffffffffffffffffffffffffffffffffffffffffffffffffffffffffffffffff8203611c4a57611c49611bde565b5b600182019050919050565b7f4e487b7100000000000000000000000000000000000000000000000000000000600052602260045260246000fd5b60006002820490506001821680611c9c57607f821691505b602082108103611caf57611cae611c55565b5b50919050565b60008190508160005260206000209050919050565b60006020601f8301049050919050565b600082821b905092915050565b600060088302611d177fffffffffffffffffffffffffffffffffffffffffffffffffffffffffffffffff82611cda565b611d218683611cda565b95508019841693508086168417925050509392505050565b6000611d54611d4f611d4a846117ef565b611942565b6117ef565b9050919050565b6000819050919050565b611d6e83611d39565b611d82611d7a82611d5b565b848454611ce7565b825550505050565b600090565b611d97611d8a565b611da2818484611d65565b505050565b5b81811015611dc657611dbb600082611d8f565b600181019050611da8565b5050565b601f821115611e0b57611ddc81611cb5565b611de584611cca565b81016020851015611df4578190505b611e08611e0085611cca565b830182611da7565b50505b505050565b600082821c905092915050565b6000611e2e60001984600802611e10565b1980831691505092915050565b6000611e478383611e1d565b9150826002028217905092915050565b611e608261174e565b67ffffffffffffffff811115611e7957611e786115ab565b5b611e838254611c84565b611e8e828285611dca565b600060209050601f831160018114611ec15760008415611eaf578287015190505b611eb98582611e3b565b865550611f21565b601f198416611ecf86611cb5565b60005b82811015611ef757848901518255600182019150602085019450602081019050611ed2565b86831015611f145784890151611f10601f891682611e1d565b8355505b6001600288020188555050505b505050505050565b6000604082019050611f3e600083018561186c565b8181036020830152611f508184611794565b90509392505050565b7f566f746572206e6f742072656769737465726564000000000000000000000000600082015250565b6000611f8f601483611759565b9150611f9a82611f59565b602082019050919050565b60006020820190508181036000830152611fbe81611f82565b9050919050565b7f566f74657220616c726561647920766f74656400000000000000000000000000600082015250565b6000611ffb601383611759565b915061200682611fc5565b602082019050919050565b6000602082019050818103600083015261202a81611fee565b9050919050565b7f4f6e6c7920656c656374696f6e20636f6d6d697373696f6e2063616e2070657260008201527f666f726d207468697320616374696f6e00000000000000000000000000000000602082015250565b600061208d603083611759565b915061209882612031565b604082019050919050565b600060208201905081810360008301526120bc81612080565b905091905056fea2646970667358221220978133852ca6561c914ca65b8af0c8cb7bb4631ea53fadd652851b502c64096964736f6c63430008140033",
  "linkReferences": {},
  "deployedLinkReferences": {}
}