{
  "_format": "hh-sol-artifact-1",
  "contractName": "Voting",
  "sourceName": "contracts/Voting.sol",
  "abi": [
    {
      "inputs": [
        {
          "internalType": "address",
          "name": "_voterContractAddress",
          "type": "address"
        },
        {
          "internalType": "address",
          "name": "_candidateContractAddress",
          "type": "address"
        },
        {
          "internalType": "string",
          "name": "_electionName",
          "type": "string"
        }
      ],
      "stateMutability": "nonpayable",
      "type": "constructor"
    },
    {
      "inputs": [],
      "name": "ReentrancyGuardReentrantCall",
      "type": "error"
    },
    {
      "anonymous": false,
      "inputs": [
        {
          "indexed": false,
          "internalType": "enum Voting.ElectionState",
          "name": "newState",
          "type": "uint8"
        }
      ],
      "name": "ElectionStateChanged",
      "type": "event"
    },
    {
      "anonymous": false,
      "inputs": [
        {
          "indexed": false,
          "internalType": "string",
          "name": "documentType",
          "type": "string"
        }
      ],
      "name": "LegalDocumentationUpdated",
      "type": "event"
    },
    {
      "anonymous": false,
      "inputs": [
        {
          "indexed": false,
          "internalType": "address",
          "name": "verificationContract",
          "type": "address"
        }
      ],
      "name": "VerificationContractSet",
      "type": "event"
    },
    {
      "anonymous": false,
      "inputs": [
        {
          "indexed": true,
          "internalType": "address",
          "name": "voter",
          "type": "address"
        },
        {
          "indexed": true,
          "internalType": "uint256",
          "name": "candidateID",
          "type": "uint256"
        },
        {
          "indexed": false,
          "internalType": "string",
          "name": "voterNationalID",
          "type": "string"
        }
      ],
      "name": "VoteCast",
      "type": "event"
    },
    {
      "anonymous": false,
      "inputs": [
        {
          "indexed": false,
          "internalType": "address",
          "name": "votingTokenAddress",
          "type": "address"
        }
      ],
      "name": "VotingTokenSet",
      "type": "event"
    },
    {
      "inputs": [],
      "name": "candidateContract",
      "outputs": [
        {
          "internalType": "contract CandidateRegistration",
          "name": "",
          "type": "address"
        }
      ],
      "stateMutability": "view",
      "type": "function"
    },
    {
      "inputs": [
        {
          "internalType": "uint256",
          "name": "_candidateID",
          "type": "uint256"
        }
      ],
      "name": "castVote",
      "outputs": [],
      "stateMutability": "nonpayable",
      "type": "function"
    },
    {
      "inputs": [
        {
          "internalType": "string",
          "name": "_nationalID",
          "type": "string"
        },
        {
          "internalType": "uint256",
          "name": "_candidateID",
          "type": "uint256"
        }
      ],
      "name": "castVoteByNationalID",
      "outputs": [],
      "stateMutability": "nonpayable",
      "type": "function"
    },
    {
      "inputs": [],
      "name": "dataProtectionPolicy",
      "outputs": [
        {
          "internalType": "string",
          "name": "",
          "type": "string"
        }
      ],
      "stateMutability": "view",
      "type": "function"
    },
    {
      "inputs": [],
      "name": "electionCommission",
      "outputs": [
        {
          "internalType": "address",
          "name": "",
          "type": "address"
        }
      ],
      "stateMutability": "view",
      "type": "function"
    },
    {
      "inputs": [],
      "name": "electionName",
      "outputs": [
        {
          "internalType": "string",
          "name": "",
          "type": "string"
        }
      ],
      "stateMutability": "view",
      "type": "function"
    },
    {
      "inputs": [],
      "name": "endElection",
      "outputs": [],
      "stateMutability": "nonpayable",
      "type": "function"
    },
    {
      "inputs": [],
      "name": "endTime",
      "outputs": [
        {
          "internalType": "uint256",
          "name": "",
          "type": "uint256"
        }
      ],
      "stateMutability": "view",
      "type": "function"
    },
    {
      "inputs": [],
      "name": "getRemainingTime",
      "outputs": [
        {
          "internalType": "uint256",
          "name": "",
          "type": "uint256"
        }
      ],
      "stateMutability": "view",
      "type": "function"
    },
    {
      "inputs": [
        {
          "internalType": "string",
          "name": "_nationalID",
          "type": "string"
        }
      ],
      "name": "getVoteByNationalID",
      "outputs": [
        {
          "internalType": "uint256",
          "name": "",
          "type": "uint256"
        }
      ],
      "stateMutability": "view",
      "type": "function"
    },
    {
      "inputs": [
        {
          "internalType": "uint256",
          "name": "_candidateID",
          "type": "uint256"
        }
      ],
      "name": "getVoteCount",
      "outputs": [
        {
          "internalType": "uint256",
          "name": "",
          "type": "uint256"
        }
      ],
      "stateMutability": "view",
      "type": "function"
    },
    {
      "inputs": [],
      "name": "legalFramework",
      "outputs": [
        {
          "internalType": "string",
          "name": "",
          "type": "string"
        }
      ],
      "stateMutability": "view",
      "type": "function"
    },
    {
      "inputs": [
        {
          "internalType": "address",
          "name": "_verificationContract",
          "type": "address"
        }
      ],
      "name": "setVerificationContract",
      "outputs": [],
      "stateMutability": "nonpayable",
      "type": "function"
    },
    {
      "inputs": [
        {
          "internalType": "address",
          "name": "_votingTokenAddress",
          "type": "address"
        }
      ],
      "name": "setVotingToken",
      "outputs": [],
      "stateMutability": "nonpayable",
      "type": "function"
    },
    {
      "inputs": [],
      "name": "startRegistration",
      "outputs": [],
      "stateMutability": "nonpayable",
      "type": "function"
    },
    {
      "inputs": [],
      "name": "startTime",
      "outputs": [
        {
          "internalType": "uint256",
          "name": "",
          "type": "uint256"
        }
      ],
      "stateMutability": "view",
      "type": "function"
    },
    {
      "inputs": [
        {
          "internalType": "uint256",
          "name": "_durationInMinutes",
          "type": "uint256"
        }
      ],
      "name": "startVoting",
      "outputs": [],
      "stateMutability": "nonpayable",
      "type": "function"
    },
    {
      "inputs": [],
      "name": "state",
      "outputs": [
        {
          "internalType": "enum Voting.ElectionState",
          "name": "",
          "type": "uint8"
        }
      ],
      "stateMutability": "view",
      "type": "function"
    },
    {
      "inputs": [
        {
          "internalType": "string",
          "name": "_documentType",
          "type": "string"
        },
        {
          "internalType": "string",
          "name": "_content",
          "type": "string"
        }
      ],
      "name": "updateLegalDocumentation",
      "outputs": [],
      "stateMutability": "nonpayable",
      "type": "function"
    },
    {
      "inputs": [],
      "name": "verificationContract",
      "outputs": [
        {
          "internalType": "address",
          "name": "",
          "type": "address"
        }
      ],
      "stateMutability": "view",
      "type": "function"
    },
    {
      "inputs": [],
      "name": "voterContract",
      "outputs": [
        {
          "internalType": "contract VoterRegistration",
          "name": "",
          "type": "address"
        }
      ],
      "stateMutability": "view",
      "type": "function"
    },
    {
      "inputs": [
        {
          "internalType": "uint256",
          "name": "",
          "type": "uint256"
        }
      ],
      "name": "votesReceived",
      "outputs": [
        {
          "internalType": "uint256",
          "name": "",
          "type": "uint256"
        }
      ],
      "stateMutability": "view",
      "type": "function"
    },
    {
      "inputs": [],
      "name": "votingToken",
      "outputs": [
        {
          "internalType": "contract VotingToken",
          "name": "",
          "type": "address"
        }
      ],
      "stateMutability": "view",
      "type": "function"
    }
  ],
  "bytecode": "0x60806040523480156200001157600080fd5b5060405162003c6038038062003c60833981810160405281019062000037919062000399565b600160008190555033600160006101000a81548173ffffffffffffffffffffffffffffffffffffffff021916908373ffffffffffffffffffffffffffffffffffffffff16021790555082600260006101000a81548173ffffffffffffffffffffffffffffffffffffffff021916908373ffffffffffffffffffffffffffffffffffffffff16021790555081600360006101000a81548173ffffffffffffffffffffffffffffffffffffffff021916908373ffffffffffffffffffffffffffffffffffffffff16021790555080600690816200011391906200065f565b506000600560146101000a81548160ff021916908360038111156200013d576200013c62000746565b5b021790555060405180608001604052806053815260200162003c0d60539139600b90816200016c91906200065f565b5060405180608001604052806042815260200162003bcb60429139600c90816200019791906200065f565b5050505062000775565b6000604051905090565b600080fd5b600080fd5b600073ffffffffffffffffffffffffffffffffffffffff82169050919050565b6000620001e282620001b5565b9050919050565b620001f481620001d5565b81146200020057600080fd5b50565b6000815190506200021481620001e9565b92915050565b600080fd5b600080fd5b6000601f19601f8301169050919050565b7f4e487b7100000000000000000000000000000000000000000000000000000000600052604160045260246000fd5b6200026f8262000224565b810181811067ffffffffffffffff8211171562000291576200029062000235565b5b80604052505050565b6000620002a6620001a1565b9050620002b4828262000264565b919050565b600067ffffffffffffffff821115620002d757620002d662000235565b5b620002e28262000224565b9050602081019050919050565b60005b838110156200030f578082015181840152602081019050620002f2565b60008484015250505050565b6000620003326200032c84620002b9565b6200029a565b9050828152602081018484840111156200035157620003506200021f565b5b6200035e848285620002ef565b509392505050565b600082601f8301126200037e576200037d6200021a565b5b8151620003908482602086016200031b565b91505092915050565b600080600060608486031215620003b557620003b4620001ab565b5b6000620003c58682870162000203565b9350506020620003d88682870162000203565b925050604084015167ffffffffffffffff811115620003fc57620003fb620001b0565b5b6200040a8682870162000366565b9150509250925092565b600081519050919050565b7f4e487b7100000000000000000000000000000000000000000000000000000000600052602260045260246000fd5b600060028204905060018216806200046757607f821691505b6020821081036200047d576200047c6200041f565b5b50919050565b60008190508160005260206000209050919050565b60006020601f8301049050919050565b600082821b905092915050565b600060088302620004e77fffffffffffffffffffffffffffffffffffffffffffffffffffffffffffffffff82620004a8565b620004f38683620004a8565b95508019841693508086168417925050509392505050565b6000819050919050565b6000819050919050565b6000620005406200053a62000534846200050b565b62000515565b6200050b565b9050919050565b6000819050919050565b6200055c836200051f565b620005746200056b8262000547565b848454620004b5565b825550505050565b600090565b6200058b6200057c565b6200059881848462000551565b505050565b5b81811015620005c057620005b460008262000581565b6001810190506200059e565b5050565b601f8211156200060f57620005d98162000483565b620005e48462000498565b81016020851015620005f4578190505b6200060c620006038562000498565b8301826200059d565b50505b505050565b600082821c905092915050565b6000620006346000198460080262000614565b1980831691505092915050565b60006200064f838362000621565b9150826002028217905092915050565b6200066a8262000414565b67ffffffffffffffff81111562000686576200068562000235565b5b6200069282546200044e565b6200069f828285620005c4565b600060209050601f831160018114620006d75760008415620006c2578287015190505b620006ce858262000641565b8655506200073e565b601f198416620006e78662000483565b60005b828110156200071157848901518255600182019150602085019450602081019050620006ea565b868310156200073157848901516200072d601f89168262000621565b8355505b6001600288020188555050505b505050505050565b7f4e487b7100000000000000000000000000000000000000000000000000000000600052602160045260246000fd5b61344680620007856000396000f3fe608060405234801561001057600080fd5b506004361061014d5760003560e01c8063b0340123116100c3578063c5c8877f1161007c578063c5c8877f14610344578063e2d7462814610362578063e6610bc81461037e578063efb98bcf1461039c578063f3084a63146103ba578063fb48d6be146103ea5761014d565b8063b034012314610280578063b2c2f2e81461029e578063b4a3a162146102ce578063b64b9ffd146102ec578063c19d93fb1461030a578063c4f2d484146103285761014d565b80635c31bcd5116101155780635c31bcd5146101bc578063743cabe6146101d857806378e97925146102085780637e2226611461022657806385e8e7a714610244578063aab46b7f146102625761014d565b806310b86695146101525780633197cbb61461015c5780633d2f5bda1461017a5780633eb76b9c1461019657806359f78468146101b2575b600080fd5b61015a610406565b005b610164610573565b604051610171919061215e565b60405180910390f35b610194600480360381019061018f91906121b9565b610579565b005b6101b060048036038101906101ab91906121b9565b61070e565b005b6101ba610eaa565b005b6101d660048036038101906101d1919061232c565b61105c565b005b6101f260048036038101906101ed9190612388565b611818565b6040516101ff919061215e565b60405180910390f35b610210611928565b60405161021d919061215e565b60405180910390f35b61022e61192e565b60405161023b9190612412565b60405180910390f35b61024c611954565b60405161025991906124ac565b60405180910390f35b61026a6119e2565b6040516102779190612412565b60405180910390f35b610288611a08565b604051610295919061252d565b60405180910390f35b6102b860048036038101906102b391906121b9565b611a2e565b6040516102c5919061215e565b60405180910390f35b6102d6611b26565b6040516102e39190612569565b60405180910390f35b6102f4611b4c565b60405161030191906124ac565b60405180910390f35b610312611bda565b60405161031f91906125fb565b60405180910390f35b610342600480360381019061033d9190612616565b611bed565b005b61034c611d73565b60405161035991906124ac565b60405180910390f35b61037c600480360381019061037791906126ba565b611e01565b005b610386611f0c565b6040516103939190612708565b60405180910390f35b6103a4611f32565b6040516103b1919061215e565b60405180910390f35b6103d460048036038101906103cf91906121b9565b611fd2565b6040516103e1919061215e565b60405180910390f35b61040460048036038101906103ff91906126ba565b611fea565b005b600160009054906101000a900473ffffffffffffffffffffffffffffffffffffffff1673ffffffffffffffffffffffffffffffffffffffff163373ffffffffffffffffffffffffffffffffffffffff1614610496576040517f08c379a000000000000000000000000000000000000000000000000000000000815260040161048d90612795565b60405180910390fd5b60008060038111156104ab576104aa612584565b5b600560149054906101000a900460ff1660038111156104cd576104cc612584565b5b1461050d576040517f08c379a000000000000000000000000000000000000000000000000000000000815260040161050490612827565b60405180910390fd5b6001600560146101000a81548160ff0219169083600381111561053357610532612584565b5b02179055507f82aa0cc22cbb103bd5f28a40c65b9e63f2df333bbb70c6c9128eb83d7cb1041d600160405161056891906125fb565b60405180910390a150565b60085481565b600160009054906101000a900473ffffffffffffffffffffffffffffffffffffffff1673ffffffffffffffffffffffffffffffffffffffff163373ffffffffffffffffffffffffffffffffffffffff1614610609576040517f08c379a000000000000000000000000000000000000000000000000000000000815260040161060090612795565b60405180910390fd5b600180600381111561061e5761061d612584565b5b600560149054906101000a900460ff1660038111156106405761063f612584565b5b14610680576040517f08c379a000000000000000000000000000000000000000000000000000000000815260040161067790612827565b60405180910390fd5b6002600560146101000a81548160ff021916908360038111156106a6576106a5612584565b5b021790555042600781905550603c826106bf9190612876565b6007546106cc91906128b8565b6008819055507f82aa0cc22cbb103bd5f28a40c65b9e63f2df333bbb70c6c9128eb83d7cb1041d600260405161070291906125fb565b60405180910390a15050565b600280600381111561072357610722612584565b5b600560149054906101000a900460ff16600381111561074557610744612584565b5b14610785576040517f08c379a000000000000000000000000000000000000000000000000000000000815260040161077c90612827565b60405180910390fd5b61078d6120f5565b6008544211156107d2576040517f08c379a00000000000000000000000000000000000000000000000000000000081526004016107c990612938565b60405180910390fd5b600260009054906101000a900473ffffffffffffffffffffffffffffffffffffffff1673ffffffffffffffffffffffffffffffffffffffff1663da36cffe336040518263ffffffff1660e01b815260040161082d9190612412565b602060405180830381865afa15801561084a573d6000803e3d6000fd5b505050506040513d601f19601f8201168201806040525081019061086e9190612990565b6108ad576040517f08c379a00000000000000000000000000000000000000000000000000000000081526004016108a490612a09565b60405180910390fd5b600260009054906101000a900473ffffffffffffffffffffffffffffffffffffffff1673ffffffffffffffffffffffffffffffffffffffff166309eef43e336040518263ffffffff1660e01b81526004016109089190612412565b602060405180830381865afa158015610925573d6000803e3d6000fd5b505050506040513d601f19601f820116820180604052508101906109499190612990565b15610989576040517f08c379a000000000000000000000000000000000000000000000000000000000815260040161098090612a75565b60405180910390fd5b600360009054906101000a900473ffffffffffffffffffffffffffffffffffffffff1673ffffffffffffffffffffffffffffffffffffffff1663bf98db68836040518263ffffffff1660e01b81526004016109e4919061215e565b602060405180830381865afa158015610a01573d6000803e3d6000fd5b505050506040513d601f19601f82011682018060405250810190610a259190612990565b610a64576040517f08c379a0000000000000000000000000000000000000000000000000000000008152600401610a5b90612ae1565b60405180910390fd5b600073ffffffffffffffffffffffffffffffffffffffff16600460009054906101000a900473ffffffffffffffffffffffffffffffffffffffff1673ffffffffffffffffffffffffffffffffffffffff1614610cd057600460009054906101000a900473ffffffffffffffffffffffffffffffffffffffff1673ffffffffffffffffffffffffffffffffffffffff1663313ce5676040518163ffffffff1660e01b8152600401602060405180830381865afa158015610b27573d6000803e3d6000fd5b505050506040513d601f19601f82011682018060405250810190610b4b9190612b3a565b600a610b579190612c9a565b6001610b639190612876565b600460009054906101000a900473ffffffffffffffffffffffffffffffffffffffff1673ffffffffffffffffffffffffffffffffffffffff166370a08231336040518263ffffffff1660e01b8152600401610bbe9190612412565b602060405180830381865afa158015610bdb573d6000803e3d6000fd5b505050506040513d601f19601f82011682018060405250810190610bff9190612cfa565b1015610c40576040517f08c379a0000000000000000000000000000000000000000000000000000000008152600401610c3790612d73565b60405180910390fd5b600460009054906101000a900473ffffffffffffffffffffffffffffffffffffffff1673ffffffffffffffffffffffffffffffffffffffff16636c3d916933846040518363ffffffff1660e01b8152600401610c9d929190612d93565b600060405180830381600087803b158015610cb757600080fd5b505af1158015610ccb573d6000803e3d6000fd5b505050505b6000600260009054906101000a900473ffffffffffffffffffffffffffffffffffffffff1673ffffffffffffffffffffffffffffffffffffffff166333f04dcf336040518263ffffffff1660e01b8152600401610d2d9190612412565b600060405180830381865afa158015610d4a573d6000803e3d6000fd5b505050506040513d6000823e3d601f19601f82011682018060405250810190610d739190612e2c565b9050600960008481526020019081526020016000206000815480929190610d9990612e75565b919050555082600a82604051610daf9190612ef9565b908152602001604051809103902081905550600260009054906101000a900473ffffffffffffffffffffffffffffffffffffffff1673ffffffffffffffffffffffffffffffffffffffff1663a8fd0cfa336040518263ffffffff1660e01b8152600401610e1c9190612412565b600060405180830381600087803b158015610e3657600080fd5b505af1158015610e4a573d6000803e3d6000fd5b50505050823373ffffffffffffffffffffffffffffffffffffffff167f41aeb55eef25a94e94aeac300a628610ffa8099eb2bf991b3ae640d42233467d83604051610e9591906124ac565b60405180910390a350610ea661213b565b5050565b600160009054906101000a900473ffffffffffffffffffffffffffffffffffffffff1673ffffffffffffffffffffffffffffffffffffffff163373ffffffffffffffffffffffffffffffffffffffff1614610f3a576040517f08c379a0000000000000000000000000000000000000000000000000000000008152600401610f3190612795565b60405180910390fd5b6002806003811115610f4f57610f4e612584565b5b600560149054906101000a900460ff166003811115610f7157610f70612584565b5b14610fb1576040517f08c379a0000000000000000000000000000000000000000000000000000000008152600401610fa890612827565b60405180910390fd5b600854421015610ff6576040517f08c379a0000000000000000000000000000000000000000000000000000000008152600401610fed90612f5c565b60405180910390fd5b6003600560146101000a81548160ff0219169083600381111561101c5761101b612584565b5b02179055507f82aa0cc22cbb103bd5f28a40c65b9e63f2df333bbb70c6c9128eb83d7cb1041d600360405161105191906125fb565b60405180910390a150565b600160009054906101000a900473ffffffffffffffffffffffffffffffffffffffff1673ffffffffffffffffffffffffffffffffffffffff163373ffffffffffffffffffffffffffffffffffffffff16146110ec576040517f08c379a00000000000000000000000000000000000000000000000000000000081526004016110e390612795565b60405180910390fd5b600280600381111561110157611100612584565b5b600560149054906101000a900460ff16600381111561112357611122612584565b5b14611163576040517f08c379a000000000000000000000000000000000000000000000000000000000815260040161115a90612827565b60405180910390fd5b61116b6120f5565b6008544211156111b0576040517f08c379a00000000000000000000000000000000000000000000000000000000081526004016111a790612938565b60405180910390fd5b6000600260009054906101000a900473ffffffffffffffffffffffffffffffffffffffff1673ffffffffffffffffffffffffffffffffffffffff166355c7a358856040518263ffffffff1660e01b815260040161120d91906124ac565b602060405180830381865afa15801561122a573d6000803e3d6000fd5b505050506040513d601f19601f8201168201806040525081019061124e9190612f91565b9050600073ffffffffffffffffffffffffffffffffffffffff168173ffffffffffffffffffffffffffffffffffffffff16036112bf576040517f08c379a00000000000000000000000000000000000000000000000000000000081526004016112b690613030565b60405180910390fd5b600260009054906101000a900473ffffffffffffffffffffffffffffffffffffffff1673ffffffffffffffffffffffffffffffffffffffff166309eef43e826040518263ffffffff1660e01b815260040161131a9190612412565b602060405180830381865afa158015611337573d6000803e3d6000fd5b505050506040513d601f19601f8201168201806040525081019061135b9190612990565b1561139b576040517f08c379a000000000000000000000000000000000000000000000000000000000815260040161139290612a75565b60405180910390fd5b600360009054906101000a900473ffffffffffffffffffffffffffffffffffffffff1673ffffffffffffffffffffffffffffffffffffffff1663bf98db68846040518263ffffffff1660e01b81526004016113f6919061215e565b602060405180830381865afa158015611413573d6000803e3d6000fd5b505050506040513d601f19601f820116820180604052508101906114379190612990565b611476576040517f08c379a000000000000000000000000000000000000000000000000000000000815260040161146d90612ae1565b60405180910390fd5b600073ffffffffffffffffffffffffffffffffffffffff16600460009054906101000a900473ffffffffffffffffffffffffffffffffffffffff1673ffffffffffffffffffffffffffffffffffffffff16146116e257600460009054906101000a900473ffffffffffffffffffffffffffffffffffffffff1673ffffffffffffffffffffffffffffffffffffffff1663313ce5676040518163ffffffff1660e01b8152600401602060405180830381865afa158015611539573d6000803e3d6000fd5b505050506040513d601f19601f8201168201806040525081019061155d9190612b3a565b600a6115699190612c9a565b60016115759190612876565b600460009054906101000a900473ffffffffffffffffffffffffffffffffffffffff1673ffffffffffffffffffffffffffffffffffffffff166370a08231836040518263ffffffff1660e01b81526004016115d09190612412565b602060405180830381865afa1580156115ed573d6000803e3d6000fd5b505050506040513d601f19601f820116820180604052508101906116119190612cfa565b1015611652576040517f08c379a000000000000000000000000000000000000000000000000000000000815260040161164990612d73565b60405180910390fd5b600460009054906101000a900473ffffffffffffffffffffffffffffffffffffffff1673ffffffffffffffffffffffffffffffffffffffff16636c3d916982856040518363ffffffff1660e01b81526004016116af929190612d93565b600060405180830381600087803b1580156116c957600080fd5b505af11580156116dd573d6000803e3d6000fd5b505050505b60096000848152602001908152602001600020600081548092919061170690612e75565b919050555082600a8560405161171c9190612ef9565b908152602001604051809103902081905550600260009054906101000a900473ffffffffffffffffffffffffffffffffffffffff1673ffffffffffffffffffffffffffffffffffffffff1663a8fd0cfa826040518263ffffffff1660e01b81526004016117899190612412565b600060405180830381600087803b1580156117a357600080fd5b505af11580156117b7573d6000803e3d6000fd5b50505050828173ffffffffffffffffffffffffffffffffffffffff167f41aeb55eef25a94e94aeac300a628610ffa8099eb2bf991b3ae640d42233467d8660405161180291906124ac565b60405180910390a35061181361213b565b505050565b6000600160009054906101000a900473ffffffffffffffffffffffffffffffffffffffff1673ffffffffffffffffffffffffffffffffffffffff163373ffffffffffffffffffffffffffffffffffffffff1614806118c35750600560009054906101000a900473ffffffffffffffffffffffffffffffffffffffff1673ffffffffffffffffffffffffffffffffffffffff163373ffffffffffffffffffffffffffffffffffffffff16145b611902576040517f08c379a00000000000000000000000000000000000000000000000000000000081526004016118f9906130e8565b60405180910390fd5b600a826040516119129190612ef9565b9081526020016040518091039020549050919050565b60075481565b600560009054906101000a900473ffffffffffffffffffffffffffffffffffffffff1681565b6006805461196190613137565b80601f016020809104026020016040519081016040528092919081815260200182805461198d90613137565b80156119da5780601f106119af576101008083540402835291602001916119da565b820191906000526020600020905b8154815290600101906020018083116119bd57829003601f168201915b505050505081565b600160009054906101000a900473ffffffffffffffffffffffffffffffffffffffff1681565b600460009054906101000a900473ffffffffffffffffffffffffffffffffffffffff1681565b6000600360009054906101000a900473ffffffffffffffffffffffffffffffffffffffff1673ffffffffffffffffffffffffffffffffffffffff1663bf98db68836040518263ffffffff1660e01b8152600401611a8b919061215e565b602060405180830381865afa158015611aa8573d6000803e3d6000fd5b505050506040513d601f19601f82011682018060405250810190611acc9190612990565b611b0b576040517f08c379a0000000000000000000000000000000000000000000000000000000008152600401611b0290612ae1565b60405180910390fd5b60096000838152602001908152602001600020549050919050565b600360009054906101000a900473ffffffffffffffffffffffffffffffffffffffff1681565b600c8054611b5990613137565b80601f0160208091040260200160405190810160405280929190818152602001828054611b8590613137565b8015611bd25780601f10611ba757610100808354040283529160200191611bd2565b820191906000526020600020905b815481529060010190602001808311611bb557829003601f168201915b505050505081565b600560149054906101000a900460ff1681565b600160009054906101000a900473ffffffffffffffffffffffffffffffffffffffff1673ffffffffffffffffffffffffffffffffffffffff163373ffffffffffffffffffffffffffffffffffffffff1614611c7d576040517f08c379a0000000000000000000000000000000000000000000000000000000008152600401611c7490612795565b60405180910390fd5b6040518060400160405280600981526020017f6672616d65776f726b000000000000000000000000000000000000000000000081525080519060200120828051906020012003611cdc5780600b9081611cd6919061330a565b50611d38565b6040518060400160405280600e81526020017f6461746150726f74656374696f6e00000000000000000000000000000000000081525080519060200120828051906020012003611d375780600c9081611d35919061330a565b505b5b7f5bdf9e077dec3144495552a1f84a79d5fe062a4ceec2a0ad945a452efcc30e5582604051611d6791906124ac565b60405180910390a15050565b600b8054611d8090613137565b80601f0160208091040260200160405190810160405280929190818152602001828054611dac90613137565b8015611df95780601f10611dce57610100808354040283529160200191611df9565b820191906000526020600020905b815481529060010190602001808311611ddc57829003601f168201915b505050505081565b600160009054906101000a900473ffffffffffffffffffffffffffffffffffffffff1673ffffffffffffffffffffffffffffffffffffffff163373ffffffffffffffffffffffffffffffffffffffff1614611e91576040517f08c379a0000000000000000000000000000000000000000000000000000000008152600401611e8890612795565b60405180910390fd5b80600460006101000a81548173ffffffffffffffffffffffffffffffffffffffff021916908373ffffffffffffffffffffffffffffffffffffffff1602179055507f392aa4d4c6804dae27d6bfa0c6430bba42833bed9c53833e7b7f2b2d7cc13aef81604051611f019190612412565b60405180910390a150565b600260009054906101000a900473ffffffffffffffffffffffffffffffffffffffff1681565b60006002806003811115611f4957611f48612584565b5b600560149054906101000a900460ff166003811115611f6b57611f6a612584565b5b14611fab576040517f08c379a0000000000000000000000000000000000000000000000000000000008152600401611fa290612827565b60405180910390fd5b6008544210611fbd5760009150611fce565b42600854611fcb91906133dc565b91505b5090565b60096020528060005260406000206000915090505481565b600160009054906101000a900473ffffffffffffffffffffffffffffffffffffffff1673ffffffffffffffffffffffffffffffffffffffff163373ffffffffffffffffffffffffffffffffffffffff161461207a576040517f08c379a000000000000000000000000000000000000000000000000000000000815260040161207190612795565b60405180910390fd5b80600560006101000a81548173ffffffffffffffffffffffffffffffffffffffff021916908373ffffffffffffffffffffffffffffffffffffffff1602179055507fcf28f0596d765cb31a13e5edc200ab5b5b89ad072726fd214adf805a5bca9130816040516120ea9190612412565b60405180910390a150565b600260005403612131576040517f3ee5aeb500000000000000000000000000000000000000000000000000000000815260040160405180910390fd5b6002600081905550565b6001600081905550565b6000819050919050565b61215881612145565b82525050565b6000602082019050612173600083018461214f565b92915050565b6000604051905090565b600080fd5b600080fd5b61219681612145565b81146121a157600080fd5b50565b6000813590506121b38161218d565b92915050565b6000602082840312156121cf576121ce612183565b5b60006121dd848285016121a4565b91505092915050565b600080fd5b600080fd5b6000601f19601f8301169050919050565b7f4e487b7100000000000000000000000000000000000000000000000000000000600052604160045260246000fd5b612239826121f0565b810181811067ffffffffffffffff8211171561225857612257612201565b5b80604052505050565b600061226b612179565b90506122778282612230565b919050565b600067ffffffffffffffff82111561229757612296612201565b5b6122a0826121f0565b9050602081019050919050565b82818337600083830152505050565b60006122cf6122ca8461227c565b612261565b9050828152602081018484840111156122eb576122ea6121eb565b5b6122f68482856122ad565b509392505050565b600082601f830112612313576123126121e6565b5b81356123238482602086016122bc565b91505092915050565b6000806040838503121561234357612342612183565b5b600083013567ffffffffffffffff81111561236157612360612188565b5b61236d858286016122fe565b925050602061237e858286016121a4565b9150509250929050565b60006020828403121561239e5761239d612183565b5b600082013567ffffffffffffffff8111156123bc576123bb612188565b5b6123c8848285016122fe565b91505092915050565b600073ffffffffffffffffffffffffffffffffffffffff82169050919050565b60006123fc826123d1565b9050919050565b61240c816123f1565b82525050565b60006020820190506124276000830184612403565b92915050565b600081519050919050565b600082825260208201905092915050565b60005b8381101561246757808201518184015260208101905061244c565b60008484015250505050565b600061247e8261242d565b6124888185612438565b9350612498818560208601612449565b6124a1816121f0565b840191505092915050565b600060208201905081810360008301526124c68184612473565b905092915050565b6000819050919050565b60006124f36124ee6124e9846123d1565b6124ce565b6123d1565b9050919050565b6000612505826124d8565b9050919050565b6000612517826124fa565b9050919050565b6125278161250c565b82525050565b6000602082019050612542600083018461251e565b92915050565b6000612553826124fa565b9050919050565b61256381612548565b82525050565b600060208201905061257e600083018461255a565b92915050565b7f4e487b7100000000000000000000000000000000000000000000000000000000600052602160045260246000fd5b600481106125c4576125c3612584565b5b50565b60008190506125d5826125b3565b919050565b60006125e5826125c7565b9050919050565b6125f5816125da565b82525050565b600060208201905061261060008301846125ec565b92915050565b6000806040838503121561262d5761262c612183565b5b600083013567ffffffffffffffff81111561264b5761264a612188565b5b612657858286016122fe565b925050602083013567ffffffffffffffff81111561267857612677612188565b5b612684858286016122fe565b9150509250929050565b612697816123f1565b81146126a257600080fd5b50565b6000813590506126b48161268e565b92915050565b6000602082840312156126d0576126cf612183565b5b60006126de848285016126a5565b91505092915050565b60006126f2826124fa565b9050919050565b612702816126e7565b82525050565b600060208201905061271d60008301846126f9565b92915050565b7f4f6e6c7920656c656374696f6e20636f6d6d697373696f6e2063616e2070657260008201527f666f726d207468697320616374696f6e00000000000000000000000000000000602082015250565b600061277f603083612438565b915061278a82612723565b604082019050919050565b600060208201905081810360008301526127ae81612772565b9050919050565b7f496e76616c696420656c656374696f6e20737461746520666f7220746869732060008201527f616374696f6e0000000000000000000000000000000000000000000000000000602082015250565b6000612811602683612438565b915061281c826127b5565b604082019050919050565b6000602082019050818103600083015261284081612804565b9050919050565b7f4e487b7100000000000000000000000000000000000000000000000000000000600052601160045260246000fd5b600061288182612145565b915061288c83612145565b925082820261289a81612145565b915082820484148315176128b1576128b0612847565b5b5092915050565b60006128c382612145565b91506128ce83612145565b92508282019050808211156128e6576128e5612847565b5b92915050565b7f566f74696e6720706572696f642068617320656e646564000000000000000000600082015250565b6000612922601783612438565b915061292d826128ec565b602082019050919050565b6000602082019050818103600083015261295181612915565b9050919050565b60008115159050919050565b61296d81612958565b811461297857600080fd5b50565b60008151905061298a81612964565b92915050565b6000602082840312156129a6576129a5612183565b5b60006129b48482850161297b565b91505092915050565b7f566f746572206e6f742072656769737465726564000000000000000000000000600082015250565b60006129f3601483612438565b91506129fe826129bd565b602082019050919050565b60006020820190508181036000830152612a22816129e6565b9050919050565b7f566f7465722068617320616c726561647920766f746564000000000000000000600082015250565b6000612a5f601783612438565b9150612a6a82612a29565b602082019050919050565b60006020820190508181036000830152612a8e81612a52565b9050919050565b7f496e76616c69642063616e646964617465000000000000000000000000000000600082015250565b6000612acb601183612438565b9150612ad682612a95565b602082019050919050565b60006020820190508181036000830152612afa81612abe565b9050919050565b600060ff82169050919050565b612b1781612b01565b8114612b2257600080fd5b50565b600081519050612b3481612b0e565b92915050565b600060208284031215612b5057612b4f612183565b5b6000612b5e84828501612b25565b91505092915050565b60008160011c9050919050565b6000808291508390505b6001851115612bbe57808604811115612b9a57612b99612847565b5b6001851615612ba95780820291505b8081029050612bb785612b67565b9450612b7e565b94509492505050565b600082612bd75760019050612c93565b81612be55760009050612c93565b8160018114612bfb5760028114612c0557612c34565b6001915050612c93565b60ff841115612c1757612c16612847565b5b8360020a915084821115612c2e57612c2d612847565b5b50612c93565b5060208310610133831016604e8410600b8410161715612c695782820a905083811115612c6457612c63612847565b5b612c93565b612c768484846001612b74565b92509050818404811115612c8d57612c8c612847565b5b81810290505b9392505050565b6000612ca582612145565b9150612cb083612b01565b9250612cdd7fffffffffffffffffffffffffffffffffffffffffffffffffffffffffffffffff8484612bc7565b905092915050565b600081519050612cf48161218d565b92915050565b600060208284031215612d1057612d0f612183565b5b6000612d1e84828501612ce5565b91505092915050565b7f4e6f20766f74696e6720746f6b656e0000000000000000000000000000000000600082015250565b6000612d5d600f83612438565b9150612d6882612d27565b602082019050919050565b60006020820190508181036000830152612d8c81612d50565b9050919050565b6000604082019050612da86000830185612403565b612db5602083018461214f565b9392505050565b6000612dcf612dca8461227c565b612261565b905082815260208101848484011115612deb57612dea6121eb565b5b612df6848285612449565b509392505050565b600082601f830112612e1357612e126121e6565b5b8151612e23848260208601612dbc565b91505092915050565b600060208284031215612e4257612e41612183565b5b600082015167ffffffffffffffff811115612e6057612e5f612188565b5b612e6c84828501612dfe565b91505092915050565b6000612e8082612145565b91507fffffffffffffffffffffffffffffffffffffffffffffffffffffffffffffffff8203612eb257612eb1612847565b5b600182019050919050565b600081905092915050565b6000612ed38261242d565b612edd8185612ebd565b9350612eed818560208601612449565b80840191505092915050565b6000612f058284612ec8565b915081905092915050565b7f566f74696e6720706572696f64206e6f7420656e646564207965740000000000600082015250565b6000612f46601b83612438565b9150612f5182612f10565b602082019050919050565b60006020820190508181036000830152612f7581612f39565b9050919050565b600081519050612f8b8161268e565b92915050565b600060208284031215612fa757612fa6612183565b5b6000612fb584828501612f7c565b91505092915050565b7f566f74657220776974682074686973206e6174696f6e616c204944206e6f742060008201527f7265676973746572656400000000000000000000000000000000000000000000602082015250565b600061301a602a83612438565b915061302582612fbe565b604082019050919050565b600060208201905081810360008301526130498161300d565b9050919050565b7f4f6e6c7920656c656374696f6e20636f6d6d697373696f6e206f72207665726960008201527f6669636174696f6e20636f6e74726163742063616e20706572666f726d20746860208201527f697320616374696f6e0000000000000000000000000000000000000000000000604082015250565b60006130d2604983612438565b91506130dd82613050565b606082019050919050565b60006020820190508181036000830152613101816130c5565b9050919050565b7f4e487b7100000000000000000000000000000000000000000000000000000000600052602260045260246000fd5b6000600282049050600182168061314f57607f821691505b60208210810361316257613161613108565b5b50919050565b60008190508160005260206000209050919050565b60006020601f8301049050919050565b600082821b905092915050565b6000600883026131ca7fffffffffffffffffffffffffffffffffffffffffffffffffffffffffffffffff8261318d565b6131d4868361318d565b95508019841693508086168417925050509392505050565b60006132076132026131fd84612145565b6124ce565b612145565b9050919050565b6000819050919050565b613221836131ec565b61323561322d8261320e565b84845461319a565b825550505050565b600090565b61324a61323d565b613255818484613218565b505050565b5b818110156132795761326e600082613242565b60018101905061325b565b5050565b601f8211156132be5761328f81613168565b6132988461317d565b810160208510156132a7578190505b6132bb6132b38561317d565b83018261325a565b50505b505050565b600082821c905092915050565b60006132e1600019846008026132c3565b1980831691505092915050565b60006132fa83836132d0565b9150826002028217905092915050565b6133138261242d565b67ffffffffffffffff81111561332c5761332b612201565b5b6133368254613137565b61334182828561327d565b600060209050601f8311600181146133745760008415613362578287015190505b61336c85826132ee565b8655506133d4565b601f19841661338286613168565b60005b828110156133aa57848901518255600182019150602085019450602081019050613385565b868310156133c757848901516133c3601f8916826132d0565b8355505b6001600288020188555050505b505050505050565b60006133e782612145565b91506133f283612145565b925082820390508181111561340a57613409612847565b5b9291505056fea264697066735822122089a5b95b06ef93974e54a9ff2dfc230a4ca0d90b74da1e5700096da7b264cfac64736f6c63430008140033566f74657220646174612069732070726f74656374656420616e64206f6e6c792061636365737369626c6520627920617574686f72697a656420656e7469746965735468697320656c656374726f6e696320766f74696e672073797374656d20697320676f7665726e6564206279206170706c696361626c6520766f74696e67206c61777320616e6420726567756c6174696f6e73",
  "linkReferences": {},
  "deployedLinkReferences": {}
}